{
	"Basic - 1/contracts/MTK.sol": {
		"MtkContracts": {
			"abi": [
				{
					"inputs": [
						{
							"internalType": "contract IERC20",
							"name": "_mtkToken",
							"type": "address"
						}
					],
					"stateMutability": "nonpayable",
					"type": "constructor"
				},
				{
					"anonymous": false,
					"inputs": [
						{
							"indexed": true,
							"internalType": "address",
							"name": "user",
							"type": "address"
						},
						{
							"indexed": false,
							"internalType": "uint256",
							"name": "amount",
							"type": "uint256"
						},
						{
							"indexed": false,
							"internalType": "enum MtkContracts.StakingPeriod",
							"name": "period",
							"type": "uint8"
						},
						{
							"indexed": false,
							"internalType": "uint256",
							"name": "timestamp",
							"type": "uint256"
						}
					],
					"name": "Staked",
					"type": "event"
				},
				{
					"anonymous": false,
					"inputs": [
						{
							"indexed": true,
							"internalType": "address",
							"name": "user",
							"type": "address"
						},
						{
							"indexed": false,
							"internalType": "uint256",
							"name": "totalAmount",
							"type": "uint256"
						},
						{
							"indexed": false,
							"internalType": "uint256",
							"name": "stakeIndex",
							"type": "uint256"
						}
					],
					"name": "Withdrawn",
					"type": "event"
				},
				{
					"inputs": [
						{
							"internalType": "enum MtkContracts.StakingPeriod",
							"name": "",
							"type": "uint8"
						}
					],
					"name": "aprs",
					"outputs": [
						{
							"internalType": "uint256",
							"name": "",
							"type": "uint256"
						}
					],
					"stateMutability": "view",
					"type": "function"
				},
				{
					"inputs": [
						{
							"internalType": "enum MtkContracts.StakingPeriod",
							"name": "",
							"type": "uint8"
						}
					],
					"name": "apy",
					"outputs": [
						{
							"internalType": "uint256",
							"name": "",
							"type": "uint256"
						}
					],
					"stateMutability": "view",
					"type": "function"
				},
				{
					"inputs": [
						{
							"internalType": "enum MtkContracts.StakingPeriod",
							"name": "",
							"type": "uint8"
						}
					],
					"name": "durations",
					"outputs": [
						{
							"internalType": "uint256",
							"name": "",
							"type": "uint256"
						}
					],
					"stateMutability": "view",
					"type": "function"
				},
				{
					"inputs": [
						{
							"internalType": "uint256",
							"name": "amount",
							"type": "uint256"
						},
						{
							"internalType": "enum MtkContracts.StakingPeriod",
							"name": "period",
							"type": "uint8"
						}
					],
					"name": "stake",
					"outputs": [],
					"stateMutability": "nonpayable",
					"type": "function"
				},
				{
					"inputs": [],
					"name": "stakingToken",
					"outputs": [
						{
							"internalType": "contract IERC20",
							"name": "",
							"type": "address"
						}
					],
					"stateMutability": "view",
					"type": "function"
				},
				{
					"inputs": [
						{
							"internalType": "address",
							"name": "",
							"type": "address"
						},
						{
							"internalType": "uint256",
							"name": "",
							"type": "uint256"
						}
					],
					"name": "userStakes",
					"outputs": [
						{
							"internalType": "uint256",
							"name": "stakeIndex",
							"type": "uint256"
						},
						{
							"internalType": "uint256",
							"name": "amount",
							"type": "uint256"
						},
						{
							"internalType": "uint256",
							"name": "startTime",
							"type": "uint256"
						},
						{
							"internalType": "uint256",
							"name": "endTime",
							"type": "uint256"
						},
						{
							"internalType": "uint256",
							"name": "rewardRate",
							"type": "uint256"
						},
						{
							"internalType": "bool",
							"name": "isActive",
							"type": "bool"
						}
					],
					"stateMutability": "view",
					"type": "function"
				},
				{
					"inputs": [
						{
							"internalType": "uint256",
							"name": "stakeIndex",
							"type": "uint256"
						}
					],
					"name": "withdraw",
					"outputs": [],
					"stateMutability": "nonpayable",
					"type": "function"
				}
			],
			"devdoc": {
				"kind": "dev",
				"methods": {},
				"version": 1
			},
			"evm": {
				"assembly": "    /* \"Basic - 1/contracts/MTK.sol\":174:4142  contract MtkContracts {... */\n  mstore(0x40, 0x80)\n    /* \"Basic - 1/contracts/MTK.sol\":1395:1951  constructor(IERC20 _mtkToken) {... */\n  callvalue\n  dup1\n  iszero\n  tag_1\n  jumpi\n  revert(0x00, 0x00)\ntag_1:\n  pop\n  mload(0x40)\n  sub(codesize, bytecodeSize)\n  dup1\n  bytecodeSize\n  dup4\n  codecopy\n  dup2\n  dup2\n  add\n  0x40\n  mstore\n  dup2\n  add\n  swap1\n  tag_2\n  swap2\n  swap1\n  tag_3\n  jump\t// in\ntag_2:\n    /* \"Basic - 1/contracts/MTK.sol\":1451:1460  _mtkToken */\n  dup1\n    /* \"Basic - 1/contracts/MTK.sol\":1436:1448  stakingToken */\n  0x01\n  0x00\n    /* \"Basic - 1/contracts/MTK.sol\":1436:1460  stakingToken = _mtkToken */\n  0x0100\n  exp\n  dup2\n  sload\n  dup2\n  0xffffffffffffffffffffffffffffffffffffffff\n  mul\n  not\n  and\n  swap1\n  dup4\n  0xffffffffffffffffffffffffffffffffffffffff\n  and\n  mul\n  or\n  swap1\n  sstore\n  pop\n    /* \"Basic - 1/contracts/MTK.sol\":1511:1518  30 days */\n  0x278d00\n    /* \"Basic - 1/contracts/MTK.sol\":1473:1482  durations */\n  0x04\n    /* \"Basic - 1/contracts/MTK.sol\":1473:1508  durations[StakingPeriod.ThirtyDays] */\n  0x00\n    /* \"Basic - 1/contracts/MTK.sol\":1483:1507  StakingPeriod.ThirtyDays */\n  0x00\n    /* \"Basic - 1/contracts/MTK.sol\":1473:1508  durations[StakingPeriod.ThirtyDays] */\n  0x03\n  dup2\n  gt\n  iszero\n  tag_6\n  jumpi\n  tag_7\n  tag_8\n  jump\t// in\ntag_7:\ntag_6:\n  0x03\n  dup2\n  gt\n  iszero\n  tag_9\n  jumpi\n  tag_10\n  tag_8\n  jump\t// in\ntag_10:\ntag_9:\n  dup2\n  mstore\n  0x20\n  add\n  swap1\n  dup2\n  mstore\n  0x20\n  add\n  0x00\n  keccak256\n    /* \"Basic - 1/contracts/MTK.sol\":1473:1518  durations[StakingPeriod.ThirtyDays] = 30 days */\n  dup2\n  swap1\n  sstore\n  pop\n    /* \"Basic - 1/contracts/MTK.sol\":1567:1574  90 days */\n  0x76a700\n    /* \"Basic - 1/contracts/MTK.sol\":1529:1538  durations */\n  0x04\n    /* \"Basic - 1/contracts/MTK.sol\":1529:1564  durations[StakingPeriod.NinetyDays] */\n  0x00\n    /* \"Basic - 1/contracts/MTK.sol\":1539:1563  StakingPeriod.NinetyDays */\n  0x01\n    /* \"Basic - 1/contracts/MTK.sol\":1529:1564  durations[StakingPeriod.NinetyDays] */\n  0x03\n  dup2\n  gt\n  iszero\n  tag_11\n  jumpi\n  tag_12\n  tag_8\n  jump\t// in\ntag_12:\ntag_11:\n  0x03\n  dup2\n  gt\n  iszero\n  tag_13\n  jumpi\n  tag_14\n  tag_8\n  jump\t// in\ntag_14:\ntag_13:\n  dup2\n  mstore\n  0x20\n  add\n  swap1\n  dup2\n  mstore\n  0x20\n  add\n  0x00\n  keccak256\n    /* \"Basic - 1/contracts/MTK.sol\":1529:1574  durations[StakingPeriod.NinetyDays] = 90 days */\n  dup2\n  swap1\n  sstore\n  pop\n    /* \"Basic - 1/contracts/MTK.sol\":1630:1638  180 days */\n  0xed4e00\n    /* \"Basic - 1/contracts/MTK.sol\":1585:1594  durations */\n  0x04\n    /* \"Basic - 1/contracts/MTK.sol\":1585:1627  durations[StakingPeriod.HundredEightyDays] */\n  0x00\n    /* \"Basic - 1/contracts/MTK.sol\":1595:1626  StakingPeriod.HundredEightyDays */\n  0x02\n    /* \"Basic - 1/contracts/MTK.sol\":1585:1627  durations[StakingPeriod.HundredEightyDays] */\n  0x03\n  dup2\n  gt\n  iszero\n  tag_15\n  jumpi\n  tag_16\n  tag_8\n  jump\t// in\ntag_16:\ntag_15:\n  0x03\n  dup2\n  gt\n  iszero\n  tag_17\n  jumpi\n  tag_18\n  tag_8\n  jump\t// in\ntag_18:\ntag_17:\n  dup2\n  mstore\n  0x20\n  add\n  swap1\n  dup2\n  mstore\n  0x20\n  add\n  0x00\n  keccak256\n    /* \"Basic - 1/contracts/MTK.sol\":1585:1638  durations[StakingPeriod.HundredEightyDays] = 180 days */\n  dup2\n  swap1\n  sstore\n  pop\n    /* \"Basic - 1/contracts/MTK.sol\":1684:1692  365 days */\n  0x01e13380\n    /* \"Basic - 1/contracts/MTK.sol\":1649:1658  durations */\n  0x04\n    /* \"Basic - 1/contracts/MTK.sol\":1649:1681  durations[StakingPeriod.OneYear] */\n  0x00\n    /* \"Basic - 1/contracts/MTK.sol\":1659:1680  StakingPeriod.OneYear */\n  0x03\n    /* \"Basic - 1/contracts/MTK.sol\":1649:1681  durations[StakingPeriod.OneYear] */\n  dup1\n  dup2\n  gt\n  iszero\n  tag_19\n  jumpi\n  tag_20\n  tag_8\n  jump\t// in\ntag_20:\ntag_19:\n  0x03\n  dup2\n  gt\n  iszero\n  tag_21\n  jumpi\n  tag_22\n  tag_8\n  jump\t// in\ntag_22:\ntag_21:\n  dup2\n  mstore\n  0x20\n  add\n  swap1\n  dup2\n  mstore\n  0x20\n  add\n  0x00\n  keccak256\n    /* \"Basic - 1/contracts/MTK.sol\":1649:1692  durations[StakingPeriod.OneYear] = 365 days */\n  dup2\n  swap1\n  sstore\n  pop\n    /* \"Basic - 1/contracts/MTK.sol\":1737:1739  10 */\n  0x0a\n    /* \"Basic - 1/contracts/MTK.sol\":1705:1708  apy */\n  0x00\n    /* \"Basic - 1/contracts/MTK.sol\":1705:1734  apy[StakingPeriod.ThirtyDays] */\n  0x00\n    /* \"Basic - 1/contracts/MTK.sol\":1709:1733  StakingPeriod.ThirtyDays */\n  0x00\n    /* \"Basic - 1/contracts/MTK.sol\":1705:1734  apy[StakingPeriod.ThirtyDays] */\n  0x03\n  dup2\n  gt\n  iszero\n  tag_23\n  jumpi\n  tag_24\n  tag_8\n  jump\t// in\ntag_24:\ntag_23:\n  0x03\n  dup2\n  gt\n  iszero\n  tag_25\n  jumpi\n  tag_26\n  tag_8\n  jump\t// in\ntag_26:\ntag_25:\n  dup2\n  mstore\n  0x20\n  add\n  swap1\n  dup2\n  mstore\n  0x20\n  add\n  0x00\n  keccak256\n    /* \"Basic - 1/contracts/MTK.sol\":1705:1739  apy[StakingPeriod.ThirtyDays] = 10 */\n  dup2\n  swap1\n  sstore\n  pop\n    /* \"Basic - 1/contracts/MTK.sol\":1798:1800  15 */\n  0x0f\n    /* \"Basic - 1/contracts/MTK.sol\":1766:1769  apy */\n  0x00\n    /* \"Basic - 1/contracts/MTK.sol\":1766:1795  apy[StakingPeriod.NinetyDays] */\n  0x00\n    /* \"Basic - 1/contracts/MTK.sol\":1770:1794  StakingPeriod.NinetyDays */\n  0x01\n    /* \"Basic - 1/contracts/MTK.sol\":1766:1795  apy[StakingPeriod.NinetyDays] */\n  0x03\n  dup2\n  gt\n  iszero\n  tag_27\n  jumpi\n  tag_28\n  tag_8\n  jump\t// in\ntag_28:\ntag_27:\n  0x03\n  dup2\n  gt\n  iszero\n  tag_29\n  jumpi\n  tag_30\n  tag_8\n  jump\t// in\ntag_30:\ntag_29:\n  dup2\n  mstore\n  0x20\n  add\n  swap1\n  dup2\n  mstore\n  0x20\n  add\n  0x00\n  keccak256\n    /* \"Basic - 1/contracts/MTK.sol\":1766:1800  apy[StakingPeriod.NinetyDays] = 15 */\n  dup2\n  swap1\n  sstore\n  pop\n    /* \"Basic - 1/contracts/MTK.sol\":1866:1868  18 */\n  0x12\n    /* \"Basic - 1/contracts/MTK.sol\":1827:1830  apy */\n  0x00\n    /* \"Basic - 1/contracts/MTK.sol\":1827:1863  apy[StakingPeriod.HundredEightyDays] */\n  0x00\n    /* \"Basic - 1/contracts/MTK.sol\":1831:1862  StakingPeriod.HundredEightyDays */\n  0x02\n    /* \"Basic - 1/contracts/MTK.sol\":1827:1863  apy[StakingPeriod.HundredEightyDays] */\n  0x03\n  dup2\n  gt\n  iszero\n  tag_31\n  jumpi\n  tag_32\n  tag_8\n  jump\t// in\ntag_32:\ntag_31:\n  0x03\n  dup2\n  gt\n  iszero\n  tag_33\n  jumpi\n  tag_34\n  tag_8\n  jump\t// in\ntag_34:\ntag_33:\n  dup2\n  mstore\n  0x20\n  add\n  swap1\n  dup2\n  mstore\n  0x20\n  add\n  0x00\n  keccak256\n    /* \"Basic - 1/contracts/MTK.sol\":1827:1868  apy[StakingPeriod.HundredEightyDays] = 18 */\n  dup2\n  swap1\n  sstore\n  pop\n    /* \"Basic - 1/contracts/MTK.sol\":1922:1924  20 */\n  0x14\n    /* \"Basic - 1/contracts/MTK.sol\":1893:1896  apy */\n  0x00\n    /* \"Basic - 1/contracts/MTK.sol\":1893:1919  apy[StakingPeriod.OneYear] */\n  0x00\n    /* \"Basic - 1/contracts/MTK.sol\":1897:1918  StakingPeriod.OneYear */\n  0x03\n    /* \"Basic - 1/contracts/MTK.sol\":1893:1919  apy[StakingPeriod.OneYear] */\n  dup1\n  dup2\n  gt\n  iszero\n  tag_35\n  jumpi\n  tag_36\n  tag_8\n  jump\t// in\ntag_36:\ntag_35:\n  0x03\n  dup2\n  gt\n  iszero\n  tag_37\n  jumpi\n  tag_38\n  tag_8\n  jump\t// in\ntag_38:\ntag_37:\n  dup2\n  mstore\n  0x20\n  add\n  swap1\n  dup2\n  mstore\n  0x20\n  add\n  0x00\n  keccak256\n    /* \"Basic - 1/contracts/MTK.sol\":1893:1924  apy[StakingPeriod.OneYear] = 20 */\n  dup2\n  swap1\n  sstore\n  pop\n    /* \"Basic - 1/contracts/MTK.sol\":1395:1951  constructor(IERC20 _mtkToken) {... */\n  pop\n    /* \"Basic - 1/contracts/MTK.sol\":174:4142  contract MtkContracts {... */\n  jump(tag_39)\n    /* \"#utility.yul\":88:205   */\ntag_41:\n    /* \"#utility.yul\":197:198   */\n  0x00\n    /* \"#utility.yul\":194:195   */\n  0x00\n    /* \"#utility.yul\":187:199   */\n  revert\n    /* \"#utility.yul\":334:460   */\ntag_43:\n    /* \"#utility.yul\":371:378   */\n  0x00\n    /* \"#utility.yul\":411:453   */\n  0xffffffffffffffffffffffffffffffffffffffff\n    /* \"#utility.yul\":404:409   */\n  dup3\n    /* \"#utility.yul\":400:454   */\n  and\n    /* \"#utility.yul\":389:454   */\n  swap1\n  pop\n    /* \"#utility.yul\":334:460   */\n  swap2\n  swap1\n  pop\n  jump\t// out\n    /* \"#utility.yul\":466:562   */\ntag_44:\n    /* \"#utility.yul\":503:510   */\n  0x00\n    /* \"#utility.yul\":532:556   */\n  tag_54\n    /* \"#utility.yul\":550:555   */\n  dup3\n    /* \"#utility.yul\":532:556   */\n  tag_43\n  jump\t// in\ntag_54:\n    /* \"#utility.yul\":521:556   */\n  swap1\n  pop\n    /* \"#utility.yul\":466:562   */\n  swap2\n  swap1\n  pop\n  jump\t// out\n    /* \"#utility.yul\":568:678   */\ntag_45:\n    /* \"#utility.yul\":619:626   */\n  0x00\n    /* \"#utility.yul\":648:672   */\n  tag_56\n    /* \"#utility.yul\":666:671   */\n  dup3\n    /* \"#utility.yul\":648:672   */\n  tag_44\n  jump\t// in\ntag_56:\n    /* \"#utility.yul\":637:672   */\n  swap1\n  pop\n    /* \"#utility.yul\":568:678   */\n  swap2\n  swap1\n  pop\n  jump\t// out\n    /* \"#utility.yul\":684:834   */\ntag_46:\n    /* \"#utility.yul\":771:809   */\n  tag_58\n    /* \"#utility.yul\":803:808   */\n  dup2\n    /* \"#utility.yul\":771:809   */\n  tag_45\n  jump\t// in\ntag_58:\n    /* \"#utility.yul\":764:769   */\n  dup2\n    /* \"#utility.yul\":761:810   */\n  eq\n    /* \"#utility.yul\":751:828   */\n  tag_59\n  jumpi\n    /* \"#utility.yul\":824:825   */\n  0x00\n    /* \"#utility.yul\":821:822   */\n  0x00\n    /* \"#utility.yul\":814:826   */\n  revert\n    /* \"#utility.yul\":751:828   */\ntag_59:\n    /* \"#utility.yul\":684:834   */\n  pop\n  jump\t// out\n    /* \"#utility.yul\":840:1011   */\ntag_47:\n    /* \"#utility.yul\":911:916   */\n  0x00\n    /* \"#utility.yul\":942:948   */\n  dup2\n    /* \"#utility.yul\":936:949   */\n  mload\n    /* \"#utility.yul\":927:949   */\n  swap1\n  pop\n    /* \"#utility.yul\":958:1005   */\n  tag_61\n    /* \"#utility.yul\":999:1004   */\n  dup2\n    /* \"#utility.yul\":958:1005   */\n  tag_46\n  jump\t// in\ntag_61:\n    /* \"#utility.yul\":840:1011   */\n  swap3\n  swap2\n  pop\n  pop\n  jump\t// out\n    /* \"#utility.yul\":1017:1396   */\ntag_3:\n    /* \"#utility.yul\":1101:1107   */\n  0x00\n    /* \"#utility.yul\":1150:1152   */\n  0x20\n    /* \"#utility.yul\":1138:1147   */\n  dup3\n    /* \"#utility.yul\":1129:1136   */\n  dup5\n    /* \"#utility.yul\":1125:1148   */\n  sub\n    /* \"#utility.yul\":1121:1153   */\n  slt\n    /* \"#utility.yul\":1118:1237   */\n  iszero\n  tag_63\n  jumpi\n    /* \"#utility.yul\":1156:1235   */\n  tag_64\n  tag_41\n  jump\t// in\ntag_64:\n    /* \"#utility.yul\":1118:1237   */\ntag_63:\n    /* \"#utility.yul\":1276:1277   */\n  0x00\n    /* \"#utility.yul\":1301:1379   */\n  tag_65\n    /* \"#utility.yul\":1371:1378   */\n  dup5\n    /* \"#utility.yul\":1362:1368   */\n  dup3\n    /* \"#utility.yul\":1351:1360   */\n  dup6\n    /* \"#utility.yul\":1347:1369   */\n  add\n    /* \"#utility.yul\":1301:1379   */\n  tag_47\n  jump\t// in\ntag_65:\n    /* \"#utility.yul\":1291:1379   */\n  swap2\n  pop\n    /* \"#utility.yul\":1247:1389   */\n  pop\n    /* \"#utility.yul\":1017:1396   */\n  swap3\n  swap2\n  pop\n  pop\n  jump\t// out\n    /* \"#utility.yul\":1402:1582   */\ntag_8:\n    /* \"#utility.yul\":1450:1527   */\n  0x4e487b7100000000000000000000000000000000000000000000000000000000\n    /* \"#utility.yul\":1447:1448   */\n  0x00\n    /* \"#utility.yul\":1440:1528   */\n  mstore\n    /* \"#utility.yul\":1547:1551   */\n  0x21\n    /* \"#utility.yul\":1544:1545   */\n  0x04\n    /* \"#utility.yul\":1537:1552   */\n  mstore\n    /* \"#utility.yul\":1571:1575   */\n  0x24\n    /* \"#utility.yul\":1568:1569   */\n  0x00\n    /* \"#utility.yul\":1561:1576   */\n  revert\n    /* \"Basic - 1/contracts/MTK.sol\":174:4142  contract MtkContracts {... */\ntag_39:\n  dataSize(sub_0)\n  dup1\n  dataOffset(sub_0)\n  0x00\n  codecopy\n  0x00\n  return\nstop\n\nsub_0: assembly {\n        /* \"Basic - 1/contracts/MTK.sol\":174:4142  contract MtkContracts {... */\n      mstore(0x40, 0x80)\n      callvalue\n      dup1\n      iszero\n      tag_1\n      jumpi\n      revert(0x00, 0x00)\n    tag_1:\n      pop\n      jumpi(tag_2, lt(calldatasize, 0x04))\n      shr(0xe0, calldataload(0x00))\n      dup1\n      0x2e1a7d4d\n      gt\n      tag_10\n      jumpi\n      dup1\n      0x2e1a7d4d\n      eq\n      tag_6\n      jumpi\n      dup1\n      0x4931fa75\n      eq\n      tag_7\n      jumpi\n      dup1\n      0x72f702f3\n      eq\n      tag_8\n      jumpi\n      dup1\n      0xb5d5b5fa\n      eq\n      tag_9\n      jumpi\n      jump(tag_2)\n    tag_10:\n      dup1\n      0x0ae355d3\n      eq\n      tag_3\n      jumpi\n      dup1\n      0x10087fb1\n      eq\n      tag_4\n      jumpi\n      dup1\n      0x1f1accb2\n      eq\n      tag_5\n      jumpi\n    tag_2:\n      revert(0x00, 0x00)\n        /* \"Basic - 1/contracts/MTK.sol\":1040:1088  mapping(StakingPeriod=>uint256) public durations */\n    tag_3:\n      tag_11\n      0x04\n      dup1\n      calldatasize\n      sub\n      dup2\n      add\n      swap1\n      tag_12\n      swap2\n      swap1\n      tag_13\n      jump\t// in\n    tag_12:\n      tag_14\n      jump\t// in\n    tag_11:\n      mload(0x40)\n      tag_15\n      swap2\n      swap1\n      tag_16\n      jump\t// in\n    tag_15:\n      mload(0x40)\n      dup1\n      swap2\n      sub\n      swap1\n      return\n        /* \"Basic - 1/contracts/MTK.sol\":1959:2941  function stake(uint256 amount, StakingPeriod period) external {... */\n    tag_4:\n      tag_17\n      0x04\n      dup1\n      calldatasize\n      sub\n      dup2\n      add\n      swap1\n      tag_18\n      swap2\n      swap1\n      tag_19\n      jump\t// in\n    tag_18:\n      tag_20\n      jump\t// in\n    tag_17:\n      stop\n        /* \"Basic - 1/contracts/MTK.sol\":296:340  mapping(StakingPeriod => uint256) public apy */\n    tag_5:\n      tag_21\n      0x04\n      dup1\n      calldatasize\n      sub\n      dup2\n      add\n      swap1\n      tag_22\n      swap2\n      swap1\n      tag_13\n      jump\t// in\n    tag_22:\n      tag_23\n      jump\t// in\n    tag_21:\n      mload(0x40)\n      tag_24\n      swap2\n      swap1\n      tag_16\n      jump\t// in\n    tag_24:\n      mload(0x40)\n      dup1\n      swap2\n      sub\n      swap1\n      return\n        /* \"Basic - 1/contracts/MTK.sol\":3428:4130  function withdraw(uint256 stakeIndex) external {... */\n    tag_6:\n      tag_25\n      0x04\n      dup1\n      calldatasize\n      sub\n      dup2\n      add\n      swap1\n      tag_26\n      swap2\n      swap1\n      tag_27\n      jump\t// in\n    tag_26:\n      tag_28\n      jump\t// in\n    tag_25:\n      stop\n        /* \"Basic - 1/contracts/MTK.sol\":939:984  mapping(StakingPeriod => uint256) public aprs */\n    tag_7:\n      tag_29\n      0x04\n      dup1\n      calldatasize\n      sub\n      dup2\n      add\n      swap1\n      tag_30\n      swap2\n      swap1\n      tag_13\n      jump\t// in\n    tag_30:\n      tag_31\n      jump\t// in\n    tag_29:\n      mload(0x40)\n      tag_32\n      swap2\n      swap1\n      tag_16\n      jump\t// in\n    tag_32:\n      mload(0x40)\n      dup1\n      swap2\n      sub\n      swap1\n      return\n        /* \"Basic - 1/contracts/MTK.sol\":817:844  IERC20 public  stakingToken */\n    tag_8:\n      tag_33\n      tag_34\n      jump\t// in\n    tag_33:\n      mload(0x40)\n      tag_35\n      swap2\n      swap1\n      tag_36\n      jump\t// in\n    tag_35:\n      mload(0x40)\n      dup1\n      swap2\n      sub\n      swap1\n      return\n        /* \"Basic - 1/contracts/MTK.sol\":856:901  mapping(address => Stake[]) public userStakes */\n    tag_9:\n      tag_37\n      0x04\n      dup1\n      calldatasize\n      sub\n      dup2\n      add\n      swap1\n      tag_38\n      swap2\n      swap1\n      tag_39\n      jump\t// in\n    tag_38:\n      tag_40\n      jump\t// in\n    tag_37:\n      mload(0x40)\n      tag_41\n      swap7\n      swap6\n      swap5\n      swap4\n      swap3\n      swap2\n      swap1\n      tag_42\n      jump\t// in\n    tag_41:\n      mload(0x40)\n      dup1\n      swap2\n      sub\n      swap1\n      return\n        /* \"Basic - 1/contracts/MTK.sol\":1040:1088  mapping(StakingPeriod=>uint256) public durations */\n    tag_14:\n      mstore(0x20, 0x04)\n      dup1\n      0x00\n      mstore\n      keccak256(0x00, 0x40)\n      0x00\n      swap2\n      pop\n      swap1\n      pop\n      sload\n      dup2\n      jump\t// out\n        /* \"Basic - 1/contracts/MTK.sol\":1959:2941  function stake(uint256 amount, StakingPeriod period) external {... */\n    tag_20:\n        /* \"Basic - 1/contracts/MTK.sol\":2056:2057  0 */\n      0x00\n        /* \"Basic - 1/contracts/MTK.sol\":2049:2055  amount */\n      dup3\n        /* \"Basic - 1/contracts/MTK.sol\":2049:2057  amount>0 */\n      gt\n        /* \"Basic - 1/contracts/MTK.sol\":2041:2093  require(amount>0,\"amount must be greater than zero\") */\n      tag_44\n      jumpi\n      mload(0x40)\n      0x08c379a000000000000000000000000000000000000000000000000000000000\n      dup2\n      mstore\n      0x04\n      add\n      tag_45\n      swap1\n      tag_46\n      jump\t// in\n    tag_45:\n      mload(0x40)\n      dup1\n      swap2\n      sub\n      swap1\n      revert\n    tag_44:\n        /* \"Basic - 1/contracts/MTK.sol\":2112:2124  stakingToken */\n      0x01\n      0x00\n      swap1\n      sload\n      swap1\n      0x0100\n      exp\n      swap1\n      div\n      0xffffffffffffffffffffffffffffffffffffffff\n      and\n        /* \"Basic - 1/contracts/MTK.sol\":2112:2137  stakingToken.transferFrom */\n      0xffffffffffffffffffffffffffffffffffffffff\n      and\n      0x23b872dd\n        /* \"Basic - 1/contracts/MTK.sol\":2138:2148  msg.sender */\n      caller\n        /* \"Basic - 1/contracts/MTK.sol\":2158:2162  this */\n      address\n        /* \"Basic - 1/contracts/MTK.sol\":2165:2171  amount */\n      dup6\n        /* \"Basic - 1/contracts/MTK.sol\":2112:2172  stakingToken.transferFrom(msg.sender, address(this), amount) */\n      mload(0x40)\n      dup5\n      0xffffffff\n      and\n      0xe0\n      shl\n      dup2\n      mstore\n      0x04\n      add\n      tag_47\n      swap4\n      swap3\n      swap2\n      swap1\n      tag_48\n      jump\t// in\n    tag_47:\n      0x20\n      mload(0x40)\n      dup1\n      dup4\n      sub\n      dup2\n      0x00\n      dup8\n      gas\n      call\n      iszero\n      dup1\n      iszero\n      tag_50\n      jumpi\n      returndatacopy(0x00, 0x00, returndatasize)\n      revert(0x00, returndatasize)\n    tag_50:\n      pop\n      pop\n      pop\n      pop\n      mload(0x40)\n      returndatasize\n      not(0x1f)\n      0x1f\n      dup3\n      add\n      and\n      dup3\n      add\n      dup1\n      0x40\n      mstore\n      pop\n      dup2\n      add\n      swap1\n      tag_51\n      swap2\n      swap1\n      tag_52\n      jump\t// in\n    tag_51:\n        /* \"Basic - 1/contracts/MTK.sol\":2104:2192  require(stakingToken.transferFrom(msg.sender, address(this), amount), \"Transfer failed\") */\n      tag_53\n      jumpi\n      mload(0x40)\n      0x08c379a000000000000000000000000000000000000000000000000000000000\n      dup2\n      mstore\n      0x04\n      add\n      tag_54\n      swap1\n      tag_55\n      jump\t// in\n    tag_54:\n      mload(0x40)\n      dup1\n      swap2\n      sub\n      swap1\n      revert\n    tag_53:\n        /* \"Basic - 1/contracts/MTK.sol\":2205:2221  uint256 duration */\n      0x00\n        /* \"Basic - 1/contracts/MTK.sol\":2222:2242  _getDuration(period) */\n      tag_56\n        /* \"Basic - 1/contracts/MTK.sol\":2235:2241  period */\n      dup3\n        /* \"Basic - 1/contracts/MTK.sol\":2222:2234  _getDuration */\n      tag_57\n        /* \"Basic - 1/contracts/MTK.sol\":2222:2242  _getDuration(period) */\n      jump\t// in\n    tag_56:\n        /* \"Basic - 1/contracts/MTK.sol\":2205:2242  uint256 duration=_getDuration(period) */\n      swap1\n      pop\n        /* \"Basic - 1/contracts/MTK.sol\":2267:2285  uint256 periodDays */\n      0x00\n        /* \"Basic - 1/contracts/MTK.sol\":2286:2295  durations */\n      0x04\n        /* \"Basic - 1/contracts/MTK.sol\":2286:2303  durations[period] */\n      0x00\n        /* \"Basic - 1/contracts/MTK.sol\":2296:2302  period */\n      dup5\n        /* \"Basic - 1/contracts/MTK.sol\":2286:2303  durations[period] */\n      0x03\n      dup2\n      gt\n      iszero\n      tag_58\n      jumpi\n      tag_59\n      tag_60\n      jump\t// in\n    tag_59:\n    tag_58:\n      0x03\n      dup2\n      gt\n      iszero\n      tag_61\n      jumpi\n      tag_62\n      tag_60\n      jump\t// in\n    tag_62:\n    tag_61:\n      dup2\n      mstore\n      0x20\n      add\n      swap1\n      dup2\n      mstore\n      0x20\n      add\n      0x00\n      keccak256\n      sload\n        /* \"Basic - 1/contracts/MTK.sol\":2267:2303  uint256 periodDays=durations[period] */\n      swap1\n      pop\n        /* \"Basic - 1/contracts/MTK.sol\":2314:2326  uint256 rate */\n      0x00\n        /* \"Basic - 1/contracts/MTK.sol\":2356:2359  360 */\n      0x0168\n        /* \"Basic - 1/contracts/MTK.sol\":2350:2355  1**18 */\n      0x01\n        /* \"Basic - 1/contracts/MTK.sol\":2339:2349  periodDays */\n      dup4\n        /* \"Basic - 1/contracts/MTK.sol\":2327:2330  apy */\n      0x00\n        /* \"Basic - 1/contracts/MTK.sol\":2327:2338  apy[period] */\n      0x00\n        /* \"Basic - 1/contracts/MTK.sol\":2331:2337  period */\n      dup9\n        /* \"Basic - 1/contracts/MTK.sol\":2327:2338  apy[period] */\n      0x03\n      dup2\n      gt\n      iszero\n      tag_63\n      jumpi\n      tag_64\n      tag_60\n      jump\t// in\n    tag_64:\n    tag_63:\n      0x03\n      dup2\n      gt\n      iszero\n      tag_65\n      jumpi\n      tag_66\n      tag_60\n      jump\t// in\n    tag_66:\n    tag_65:\n      dup2\n      mstore\n      0x20\n      add\n      swap1\n      dup2\n      mstore\n      0x20\n      add\n      0x00\n      keccak256\n      sload\n        /* \"Basic - 1/contracts/MTK.sol\":2327:2349  apy[period]*periodDays */\n      tag_67\n      swap2\n      swap1\n      tag_68\n      jump\t// in\n    tag_67:\n        /* \"Basic - 1/contracts/MTK.sol\":2327:2355  apy[period]*periodDays*1**18 */\n      tag_69\n      swap2\n      swap1\n      tag_68\n      jump\t// in\n    tag_69:\n        /* \"Basic - 1/contracts/MTK.sol\":2327:2359  apy[period]*periodDays*1**18/360 */\n      tag_70\n      swap2\n      swap1\n      tag_71\n      jump\t// in\n    tag_70:\n        /* \"Basic - 1/contracts/MTK.sol\":2314:2359  uint256 rate=apy[period]*periodDays*1**18/360 */\n      swap1\n      pop\n        /* \"Basic - 1/contracts/MTK.sol\":2370:2383  uint256 start */\n      0x00\n        /* \"Basic - 1/contracts/MTK.sol\":2386:2401  block.timestamp */\n      timestamp\n        /* \"Basic - 1/contracts/MTK.sol\":2370:2401  uint256 start = block.timestamp */\n      swap1\n      pop\n        /* \"Basic - 1/contracts/MTK.sol\":2432:2443  uint256 end */\n      0x00\n        /* \"Basic - 1/contracts/MTK.sol\":2454:2462  duration */\n      dup5\n        /* \"Basic - 1/contracts/MTK.sol\":2446:2451  start */\n      dup3\n        /* \"Basic - 1/contracts/MTK.sol\":2446:2462  start + duration */\n      tag_72\n      swap2\n      swap1\n      tag_73\n      jump\t// in\n    tag_72:\n        /* \"Basic - 1/contracts/MTK.sol\":2432:2462  uint256 end = start + duration */\n      swap1\n      pop\n        /* \"Basic - 1/contracts/MTK.sol\":2497:2518  Stake memory newStake */\n      0x00\n        /* \"Basic - 1/contracts/MTK.sol\":2521:2804  Stake({... */\n      mload(0x40)\n      dup1\n      0xc0\n      add\n      0x40\n      mstore\n      dup1\n        /* \"Basic - 1/contracts/MTK.sol\":2554:2564  userStakes */\n      0x02\n        /* \"Basic - 1/contracts/MTK.sol\":2554:2576  userStakes[msg.sender] */\n      0x00\n        /* \"Basic - 1/contracts/MTK.sol\":2565:2575  msg.sender */\n      caller\n        /* \"Basic - 1/contracts/MTK.sol\":2554:2576  userStakes[msg.sender] */\n      0xffffffffffffffffffffffffffffffffffffffff\n      and\n      0xffffffffffffffffffffffffffffffffffffffff\n      and\n      dup2\n      mstore\n      0x20\n      add\n      swap1\n      dup2\n      mstore\n      0x20\n      add\n      0x00\n      keccak256\n        /* \"Basic - 1/contracts/MTK.sol\":2554:2583  userStakes[msg.sender].length */\n      dup1\n      sload\n      swap1\n      pop\n        /* \"Basic - 1/contracts/MTK.sol\":2521:2804  Stake({... */\n      dup2\n      mstore\n      0x20\n      add\n        /* \"Basic - 1/contracts/MTK.sol\":2606:2612  amount */\n      dup10\n        /* \"Basic - 1/contracts/MTK.sol\":2521:2804  Stake({... */\n      dup2\n      mstore\n      0x20\n      add\n        /* \"Basic - 1/contracts/MTK.sol\":2638:2643  start */\n      dup5\n        /* \"Basic - 1/contracts/MTK.sol\":2521:2804  Stake({... */\n      dup2\n      mstore\n      0x20\n      add\n        /* \"Basic - 1/contracts/MTK.sol\":2667:2670  end */\n      dup4\n        /* \"Basic - 1/contracts/MTK.sol\":2521:2804  Stake({... */\n      dup2\n      mstore\n      0x20\n      add\n        /* \"Basic - 1/contracts/MTK.sol\":2697:2701  rate */\n      dup6\n        /* \"Basic - 1/contracts/MTK.sol\":2521:2804  Stake({... */\n      dup2\n      mstore\n      0x20\n      add\n        /* \"Basic - 1/contracts/MTK.sol\":2763:2767  true */\n      0x01\n        /* \"Basic - 1/contracts/MTK.sol\":2521:2804  Stake({... */\n      iszero\n      iszero\n      dup2\n      mstore\n      pop\n        /* \"Basic - 1/contracts/MTK.sol\":2497:2804  Stake memory newStake = Stake({... */\n      swap1\n      pop\n        /* \"Basic - 1/contracts/MTK.sol\":2817:2827  userStakes */\n      0x02\n        /* \"Basic - 1/contracts/MTK.sol\":2817:2839  userStakes[msg.sender] */\n      0x00\n        /* \"Basic - 1/contracts/MTK.sol\":2828:2838  msg.sender */\n      caller\n        /* \"Basic - 1/contracts/MTK.sol\":2817:2839  userStakes[msg.sender] */\n      0xffffffffffffffffffffffffffffffffffffffff\n      and\n      0xffffffffffffffffffffffffffffffffffffffff\n      and\n      dup2\n      mstore\n      0x20\n      add\n      swap1\n      dup2\n      mstore\n      0x20\n      add\n      0x00\n      keccak256\n        /* \"Basic - 1/contracts/MTK.sol\":2845:2853  newStake */\n      dup2\n        /* \"Basic - 1/contracts/MTK.sol\":2817:2854  userStakes[msg.sender].push(newStake) */\n      swap1\n      dup1\n      0x01\n      dup2\n      sload\n      add\n      dup1\n      dup3\n      sstore\n      dup1\n      swap2\n      pop\n      pop\n      0x01\n      swap1\n      sub\n      swap1\n      0x00\n      mstore\n      keccak256(0x00, 0x20)\n      swap1\n      0x06\n      mul\n      add\n      0x00\n      swap1\n      swap2\n      swap1\n      swap2\n      swap1\n      swap2\n      pop\n      0x00\n      dup3\n      add\n      mload\n      dup2\n      0x00\n      add\n      sstore\n      0x20\n      dup3\n      add\n      mload\n      dup2\n      0x01\n      add\n      sstore\n      0x40\n      dup3\n      add\n      mload\n      dup2\n      0x02\n      add\n      sstore\n      0x60\n      dup3\n      add\n      mload\n      dup2\n      0x03\n      add\n      sstore\n      0x80\n      dup3\n      add\n      mload\n      dup2\n      0x04\n      add\n      sstore\n      0xa0\n      dup3\n      add\n      mload\n      dup2\n      0x05\n      add\n      exp(0x0100, 0x00)\n      dup2\n      sload\n      dup2\n      0xff\n      mul\n      not\n      and\n      swap1\n      dup4\n      iszero\n      iszero\n      mul\n      or\n      swap1\n      sstore\n      pop\n      pop\n      pop\n        /* \"Basic - 1/contracts/MTK.sol\":2901:2911  msg.sender */\n      caller\n        /* \"Basic - 1/contracts/MTK.sol\":2894:2933  Staked(msg.sender, amount, period, end) */\n      0xffffffffffffffffffffffffffffffffffffffff\n      and\n      0xbde7f0ba1630d25515c7ab99ba47d5640b7ffb4c673b2a5464ae679195589298\n        /* \"Basic - 1/contracts/MTK.sol\":2913:2919  amount */\n      dup10\n        /* \"Basic - 1/contracts/MTK.sol\":2921:2927  period */\n      dup10\n        /* \"Basic - 1/contracts/MTK.sol\":2929:2932  end */\n      dup6\n        /* \"Basic - 1/contracts/MTK.sol\":2894:2933  Staked(msg.sender, amount, period, end) */\n      mload(0x40)\n      tag_75\n      swap4\n      swap3\n      swap2\n      swap1\n      tag_76\n      jump\t// in\n    tag_75:\n      mload(0x40)\n      dup1\n      swap2\n      sub\n      swap1\n      log2\n        /* \"Basic - 1/contracts/MTK.sol\":2021:2941  {... */\n      pop\n      pop\n      pop\n      pop\n      pop\n      pop\n        /* \"Basic - 1/contracts/MTK.sol\":1959:2941  function stake(uint256 amount, StakingPeriod period) external {... */\n      pop\n      pop\n      jump\t// out\n        /* \"Basic - 1/contracts/MTK.sol\":296:340  mapping(StakingPeriod => uint256) public apy */\n    tag_23:\n      mstore(0x20, 0x00)\n      dup1\n      0x00\n      mstore\n      keccak256(0x00, 0x40)\n      0x00\n      swap2\n      pop\n      swap1\n      pop\n      sload\n      dup2\n      jump\t// out\n        /* \"Basic - 1/contracts/MTK.sol\":3428:4130  function withdraw(uint256 stakeIndex) external {... */\n    tag_28:\n        /* \"Basic - 1/contracts/MTK.sol\":3505:3515  userStakes */\n      0x02\n        /* \"Basic - 1/contracts/MTK.sol\":3505:3527  userStakes[msg.sender] */\n      0x00\n        /* \"Basic - 1/contracts/MTK.sol\":3516:3526  msg.sender */\n      caller\n        /* \"Basic - 1/contracts/MTK.sol\":3505:3527  userStakes[msg.sender] */\n      0xffffffffffffffffffffffffffffffffffffffff\n      and\n      0xffffffffffffffffffffffffffffffffffffffff\n      and\n      dup2\n      mstore\n      0x20\n      add\n      swap1\n      dup2\n      mstore\n      0x20\n      add\n      0x00\n      keccak256\n        /* \"Basic - 1/contracts/MTK.sol\":3505:3534  userStakes[msg.sender].length */\n      dup1\n      sload\n      swap1\n      pop\n        /* \"Basic - 1/contracts/MTK.sol\":3494:3504  stakeIndex */\n      dup2\n        /* \"Basic - 1/contracts/MTK.sol\":3494:3534  stakeIndex<userStakes[msg.sender].length */\n      lt\n        /* \"Basic - 1/contracts/MTK.sol\":3486:3557  require(stakeIndex<userStakes[msg.sender].length,\"Invalid stake index\") */\n      tag_78\n      jumpi\n      mload(0x40)\n      0x08c379a000000000000000000000000000000000000000000000000000000000\n      dup2\n      mstore\n      0x04\n      add\n      tag_79\n      swap1\n      tag_80\n      jump\t// in\n    tag_79:\n      mload(0x40)\n      dup1\n      swap2\n      sub\n      swap1\n      revert\n    tag_78:\n        /* \"Basic - 1/contracts/MTK.sol\":3568:3585  Stake storage stk */\n      0x00\n        /* \"Basic - 1/contracts/MTK.sol\":3588:3598  userStakes */\n      0x02\n        /* \"Basic - 1/contracts/MTK.sol\":3588:3610  userStakes[msg.sender] */\n      0x00\n        /* \"Basic - 1/contracts/MTK.sol\":3599:3609  msg.sender */\n      caller\n        /* \"Basic - 1/contracts/MTK.sol\":3588:3610  userStakes[msg.sender] */\n      0xffffffffffffffffffffffffffffffffffffffff\n      and\n      0xffffffffffffffffffffffffffffffffffffffff\n      and\n      dup2\n      mstore\n      0x20\n      add\n      swap1\n      dup2\n      mstore\n      0x20\n      add\n      0x00\n      keccak256\n        /* \"Basic - 1/contracts/MTK.sol\":3611:3621  stakeIndex */\n      dup3\n        /* \"Basic - 1/contracts/MTK.sol\":3588:3622  userStakes[msg.sender][stakeIndex] */\n      dup2\n      sload\n      dup2\n      lt\n      tag_81\n      jumpi\n      tag_82\n      tag_83\n      jump\t// in\n    tag_82:\n    tag_81:\n      swap1\n      0x00\n      mstore\n      keccak256(0x00, 0x20)\n      swap1\n      0x06\n      mul\n      add\n        /* \"Basic - 1/contracts/MTK.sol\":3568:3622  Stake storage stk = userStakes[msg.sender][stakeIndex] */\n      swap1\n      pop\n        /* \"Basic - 1/contracts/MTK.sol\":3641:3644  stk */\n      dup1\n        /* \"Basic - 1/contracts/MTK.sol\":3641:3653  stk.isActive */\n      0x05\n      add\n      0x00\n      swap1\n      sload\n      swap1\n      0x0100\n      exp\n      swap1\n      div\n      0xff\n      and\n        /* \"Basic - 1/contracts/MTK.sol\":3633:3675  require(stk.isActive, \"stk is not active\") */\n      tag_85\n      jumpi\n      mload(0x40)\n      0x08c379a000000000000000000000000000000000000000000000000000000000\n      dup2\n      mstore\n      0x04\n      add\n      tag_86\n      swap1\n      tag_87\n      jump\t// in\n    tag_86:\n      mload(0x40)\n      dup1\n      swap2\n      sub\n      swap1\n      revert\n    tag_85:\n        /* \"Basic - 1/contracts/MTK.sol\":3746:3749  stk */\n      dup1\n        /* \"Basic - 1/contracts/MTK.sol\":3746:3757  stk.endTime */\n      0x03\n      add\n      sload\n        /* \"Basic - 1/contracts/MTK.sol\":3727:3742  block.timestamp */\n      timestamp\n        /* \"Basic - 1/contracts/MTK.sol\":3727:3757  block.timestamp >= stk.endTime */\n      lt\n      iszero\n        /* \"Basic - 1/contracts/MTK.sol\":3719:3788  require(block.timestamp >= stk.endTime, \"Staking period is not over\") */\n      tag_88\n      jumpi\n      mload(0x40)\n      0x08c379a000000000000000000000000000000000000000000000000000000000\n      dup2\n      mstore\n      0x04\n      add\n      tag_89\n      swap1\n      tag_90\n      jump\t// in\n    tag_89:\n      mload(0x40)\n      dup1\n      swap2\n      sub\n      swap1\n      revert\n    tag_88:\n        /* \"Basic - 1/contracts/MTK.sol\":3812:3817  false */\n      0x00\n        /* \"Basic - 1/contracts/MTK.sol\":3799:3802  stk */\n      dup2\n        /* \"Basic - 1/contracts/MTK.sol\":3799:3811  stk.isActive */\n      0x05\n      add\n      0x00\n        /* \"Basic - 1/contracts/MTK.sol\":3799:3817  stk.isActive=false */\n      0x0100\n      exp\n      dup2\n      sload\n      dup2\n      0xff\n      mul\n      not\n      and\n      swap1\n      dup4\n      iszero\n      iszero\n      mul\n      or\n      swap1\n      sstore\n      pop\n        /* \"Basic - 1/contracts/MTK.sol\":3838:3852  uint256 reward */\n      0x00\n        /* \"Basic - 1/contracts/MTK.sol\":3890:3896  10**18 */\n      0x0de0b6b3a7640000\n        /* \"Basic - 1/contracts/MTK.sol\":3886:3889  100 */\n      0x64\n        /* \"Basic - 1/contracts/MTK.sol\":3868:3871  stk */\n      dup4\n        /* \"Basic - 1/contracts/MTK.sol\":3868:3882  stk.rewardRate */\n      0x04\n      add\n      sload\n        /* \"Basic - 1/contracts/MTK.sol\":3855:3858  stk */\n      dup5\n        /* \"Basic - 1/contracts/MTK.sol\":3855:3865  stk.amount */\n      0x01\n      add\n      sload\n        /* \"Basic - 1/contracts/MTK.sol\":3855:3882  stk.amount * stk.rewardRate */\n      tag_91\n      swap2\n      swap1\n      tag_68\n      jump\t// in\n    tag_91:\n        /* \"Basic - 1/contracts/MTK.sol\":3855:3889  stk.amount * stk.rewardRate  / 100 */\n      tag_92\n      swap2\n      swap1\n      tag_71\n      jump\t// in\n    tag_92:\n        /* \"Basic - 1/contracts/MTK.sol\":3855:3896  stk.amount * stk.rewardRate  / 100/10**18 */\n      tag_93\n      swap2\n      swap1\n      tag_71\n      jump\t// in\n    tag_93:\n        /* \"Basic - 1/contracts/MTK.sol\":3838:3896  uint256 reward = stk.amount * stk.rewardRate  / 100/10**18 */\n      swap1\n      pop\n        /* \"Basic - 1/contracts/MTK.sol\":3907:3926  uint256 totalAmount */\n      0x00\n        /* \"Basic - 1/contracts/MTK.sol\":3942:3948  reward */\n      dup2\n        /* \"Basic - 1/contracts/MTK.sol\":3929:3932  stk */\n      dup4\n        /* \"Basic - 1/contracts/MTK.sol\":3929:3939  stk.amount */\n      0x01\n      add\n      sload\n        /* \"Basic - 1/contracts/MTK.sol\":3929:3948  stk.amount + reward */\n      tag_94\n      swap2\n      swap1\n      tag_73\n      jump\t// in\n    tag_94:\n        /* \"Basic - 1/contracts/MTK.sol\":3907:3948  uint256 totalAmount = stk.amount + reward */\n      swap1\n      pop\n        /* \"Basic - 1/contracts/MTK.sol\":4014:4026  stakingToken */\n      0x01\n      0x00\n      swap1\n      sload\n      swap1\n      0x0100\n      exp\n      swap1\n      div\n      0xffffffffffffffffffffffffffffffffffffffff\n      and\n        /* \"Basic - 1/contracts/MTK.sol\":4014:4035  stakingToken.transfer */\n      0xffffffffffffffffffffffffffffffffffffffff\n      and\n      0xa9059cbb\n        /* \"Basic - 1/contracts/MTK.sol\":4036:4046  msg.sender */\n      caller\n        /* \"Basic - 1/contracts/MTK.sol\":4048:4059  totalAmount */\n      dup4\n        /* \"Basic - 1/contracts/MTK.sol\":4014:4060  stakingToken.transfer(msg.sender, totalAmount) */\n      mload(0x40)\n      dup4\n      0xffffffff\n      and\n      0xe0\n      shl\n      dup2\n      mstore\n      0x04\n      add\n      tag_95\n      swap3\n      swap2\n      swap1\n      tag_96\n      jump\t// in\n    tag_95:\n      0x20\n      mload(0x40)\n      dup1\n      dup4\n      sub\n      dup2\n      0x00\n      dup8\n      gas\n      call\n      iszero\n      dup1\n      iszero\n      tag_98\n      jumpi\n      returndatacopy(0x00, 0x00, returndatasize)\n      revert(0x00, returndatasize)\n    tag_98:\n      pop\n      pop\n      pop\n      pop\n      mload(0x40)\n      returndatasize\n      not(0x1f)\n      0x1f\n      dup3\n      add\n      and\n      dup3\n      add\n      dup1\n      0x40\n      mstore\n      pop\n      dup2\n      add\n      swap1\n      tag_99\n      swap2\n      swap1\n      tag_52\n      jump\t// in\n    tag_99:\n      pop\n        /* \"Basic - 1/contracts/MTK.sol\":4086:4096  msg.sender */\n      caller\n        /* \"Basic - 1/contracts/MTK.sol\":4076:4122  Withdrawn(msg.sender, totalAmount, stakeIndex) */\n      0xffffffffffffffffffffffffffffffffffffffff\n      and\n      0x92ccf450a286a957af52509bc1c9939d1a6a481783e142e41e2499f0bb66ebc6\n        /* \"Basic - 1/contracts/MTK.sol\":4098:4109  totalAmount */\n      dup3\n        /* \"Basic - 1/contracts/MTK.sol\":4111:4121  stakeIndex */\n      dup7\n        /* \"Basic - 1/contracts/MTK.sol\":4076:4122  Withdrawn(msg.sender, totalAmount, stakeIndex) */\n      mload(0x40)\n      tag_100\n      swap3\n      swap2\n      swap1\n      tag_101\n      jump\t// in\n    tag_100:\n      mload(0x40)\n      dup1\n      swap2\n      sub\n      swap1\n      log2\n        /* \"Basic - 1/contracts/MTK.sol\":3475:4130  {... */\n      pop\n      pop\n      pop\n        /* \"Basic - 1/contracts/MTK.sol\":3428:4130  function withdraw(uint256 stakeIndex) external {... */\n      pop\n      jump\t// out\n        /* \"Basic - 1/contracts/MTK.sol\":939:984  mapping(StakingPeriod => uint256) public aprs */\n    tag_31:\n      mstore(0x20, 0x03)\n      dup1\n      0x00\n      mstore\n      keccak256(0x00, 0x40)\n      0x00\n      swap2\n      pop\n      swap1\n      pop\n      sload\n      dup2\n      jump\t// out\n        /* \"Basic - 1/contracts/MTK.sol\":817:844  IERC20 public  stakingToken */\n    tag_34:\n      0x01\n      0x00\n      swap1\n      sload\n      swap1\n      0x0100\n      exp\n      swap1\n      div\n      0xffffffffffffffffffffffffffffffffffffffff\n      and\n      dup2\n      jump\t// out\n        /* \"Basic - 1/contracts/MTK.sol\":856:901  mapping(address => Stake[]) public userStakes */\n    tag_40:\n      mstore(0x20, 0x02)\n      dup2\n      0x00\n      mstore\n      keccak256(0x00, 0x40)\n      dup2\n      dup2\n      sload\n      dup2\n      lt\n      tag_102\n      jumpi\n      0x00\n      dup1\n      revert\n    tag_102:\n      swap1\n      0x00\n      mstore\n      keccak256(0x00, 0x20)\n      swap1\n      0x06\n      mul\n      add\n      0x00\n      swap2\n      pop\n      swap2\n      pop\n      pop\n      dup1\n      0x00\n      add\n      sload\n      swap1\n      dup1\n      0x01\n      add\n      sload\n      swap1\n      dup1\n      0x02\n      add\n      sload\n      swap1\n      dup1\n      0x03\n      add\n      sload\n      swap1\n      dup1\n      0x04\n      add\n      sload\n      swap1\n      dup1\n      0x05\n      add\n      0x00\n      swap1\n      sload\n      swap1\n      0x0100\n      exp\n      swap1\n      div\n      0xff\n      and\n      swap1\n      pop\n      dup7\n      jump\t// out\n        /* \"Basic - 1/contracts/MTK.sol\":2997:3398  function _getDuration(StakingPeriod period) internal pure returns (uint256) {... */\n    tag_57:\n        /* \"Basic - 1/contracts/MTK.sol\":3064:3071  uint256 */\n      0x00\n        /* \"Basic - 1/contracts/MTK.sol\":3095:3119  StakingPeriod.ThirtyDays */\n      0x00\n        /* \"Basic - 1/contracts/MTK.sol\":3087:3119  period==StakingPeriod.ThirtyDays */\n      0x03\n      dup2\n      gt\n      iszero\n      tag_105\n      jumpi\n      tag_106\n      tag_60\n      jump\t// in\n    tag_106:\n    tag_105:\n        /* \"Basic - 1/contracts/MTK.sol\":3087:3093  period */\n      dup3\n        /* \"Basic - 1/contracts/MTK.sol\":3087:3119  period==StakingPeriod.ThirtyDays */\n      0x03\n      dup2\n      gt\n      iszero\n      tag_107\n      jumpi\n      tag_108\n      tag_60\n      jump\t// in\n    tag_108:\n    tag_107:\n      sub\n        /* \"Basic - 1/contracts/MTK.sol\":3084:3391  if(period==StakingPeriod.ThirtyDays){... */\n      tag_109\n      jumpi\n        /* \"Basic - 1/contracts/MTK.sol\":3143:3152  1 minutes */\n      0x3c\n        /* \"Basic - 1/contracts/MTK.sol\":3135:3152  return  1 minutes */\n      swap1\n      pop\n      jump(tag_104)\n        /* \"Basic - 1/contracts/MTK.sol\":3084:3391  if(period==StakingPeriod.ThirtyDays){... */\n    tag_109:\n        /* \"Basic - 1/contracts/MTK.sol\":3180:3204  StakingPeriod.NinetyDays */\n      0x01\n        /* \"Basic - 1/contracts/MTK.sol\":3172:3204  period==StakingPeriod.NinetyDays */\n      0x03\n      dup2\n      gt\n      iszero\n      tag_111\n      jumpi\n      tag_112\n      tag_60\n      jump\t// in\n    tag_112:\n    tag_111:\n        /* \"Basic - 1/contracts/MTK.sol\":3172:3178  period */\n      dup3\n        /* \"Basic - 1/contracts/MTK.sol\":3172:3204  period==StakingPeriod.NinetyDays */\n      0x03\n      dup2\n      gt\n      iszero\n      tag_113\n      jumpi\n      tag_114\n      tag_60\n      jump\t// in\n    tag_114:\n    tag_113:\n      sub\n        /* \"Basic - 1/contracts/MTK.sol\":3169:3391  if(period==StakingPeriod.NinetyDays){... */\n      tag_115\n      jumpi\n        /* \"Basic - 1/contracts/MTK.sol\":3228:3237  3 minutes */\n      0xb4\n        /* \"Basic - 1/contracts/MTK.sol\":3220:3237  return  3 minutes */\n      swap1\n      pop\n      jump(tag_104)\n        /* \"Basic - 1/contracts/MTK.sol\":3169:3391  if(period==StakingPeriod.NinetyDays){... */\n    tag_115:\n        /* \"Basic - 1/contracts/MTK.sol\":3265:3296  StakingPeriod.HundredEightyDays */\n      0x02\n        /* \"Basic - 1/contracts/MTK.sol\":3257:3296  period==StakingPeriod.HundredEightyDays */\n      0x03\n      dup2\n      gt\n      iszero\n      tag_117\n      jumpi\n      tag_118\n      tag_60\n      jump\t// in\n    tag_118:\n    tag_117:\n        /* \"Basic - 1/contracts/MTK.sol\":3257:3263  period */\n      dup3\n        /* \"Basic - 1/contracts/MTK.sol\":3257:3296  period==StakingPeriod.HundredEightyDays */\n      0x03\n      dup2\n      gt\n      iszero\n      tag_119\n      jumpi\n      tag_120\n      tag_60\n      jump\t// in\n    tag_120:\n    tag_119:\n      sub\n        /* \"Basic - 1/contracts/MTK.sol\":3254:3391  if(period==StakingPeriod.HundredEightyDays){... */\n      tag_121\n      jumpi\n        /* \"Basic - 1/contracts/MTK.sol\":3320:3329  5 minutes */\n      0x012c\n        /* \"Basic - 1/contracts/MTK.sol\":3312:3329  return  5 minutes */\n      swap1\n      pop\n      jump(tag_104)\n        /* \"Basic - 1/contracts/MTK.sol\":3254:3391  if(period==StakingPeriod.HundredEightyDays){... */\n    tag_121:\n        /* \"Basic - 1/contracts/MTK.sol\":3369:3379  10 minutes */\n      0x0258\n        /* \"Basic - 1/contracts/MTK.sol\":3361:3379  return  10 minutes */\n      swap1\n      pop\n        /* \"Basic - 1/contracts/MTK.sol\":2997:3398  function _getDuration(StakingPeriod period) internal pure returns (uint256) {... */\n    tag_104:\n      swap2\n      swap1\n      pop\n      jump\t// out\n        /* \"#utility.yul\":88:205   */\n    tag_124:\n        /* \"#utility.yul\":197:198   */\n      0x00\n        /* \"#utility.yul\":194:195   */\n      0x00\n        /* \"#utility.yul\":187:199   */\n      revert\n        /* \"#utility.yul\":334:450   */\n    tag_126:\n        /* \"#utility.yul\":424:425   */\n      0x04\n        /* \"#utility.yul\":417:422   */\n      dup2\n        /* \"#utility.yul\":414:426   */\n      lt\n        /* \"#utility.yul\":404:444   */\n      tag_168\n      jumpi\n        /* \"#utility.yul\":440:441   */\n      0x00\n        /* \"#utility.yul\":437:438   */\n      0x00\n        /* \"#utility.yul\":430:442   */\n      revert\n        /* \"#utility.yul\":404:444   */\n    tag_168:\n        /* \"#utility.yul\":334:450   */\n      pop\n      jump\t// out\n        /* \"#utility.yul\":456:629   */\n    tag_127:\n        /* \"#utility.yul\":519:524   */\n      0x00\n        /* \"#utility.yul\":557:563   */\n      dup2\n        /* \"#utility.yul\":544:564   */\n      calldataload\n        /* \"#utility.yul\":535:564   */\n      swap1\n      pop\n        /* \"#utility.yul\":573:623   */\n      tag_170\n        /* \"#utility.yul\":617:622   */\n      dup2\n        /* \"#utility.yul\":573:623   */\n      tag_126\n      jump\t// in\n    tag_170:\n        /* \"#utility.yul\":456:629   */\n      swap3\n      swap2\n      pop\n      pop\n      jump\t// out\n        /* \"#utility.yul\":635:998   */\n    tag_13:\n        /* \"#utility.yul\":711:717   */\n      0x00\n        /* \"#utility.yul\":760:762   */\n      0x20\n        /* \"#utility.yul\":748:757   */\n      dup3\n        /* \"#utility.yul\":739:746   */\n      dup5\n        /* \"#utility.yul\":735:758   */\n      sub\n        /* \"#utility.yul\":731:763   */\n      slt\n        /* \"#utility.yul\":728:847   */\n      iszero\n      tag_172\n      jumpi\n        /* \"#utility.yul\":766:845   */\n      tag_173\n      tag_124\n      jump\t// in\n    tag_173:\n        /* \"#utility.yul\":728:847   */\n    tag_172:\n        /* \"#utility.yul\":886:887   */\n      0x00\n        /* \"#utility.yul\":911:981   */\n      tag_174\n        /* \"#utility.yul\":973:980   */\n      dup5\n        /* \"#utility.yul\":964:970   */\n      dup3\n        /* \"#utility.yul\":953:962   */\n      dup6\n        /* \"#utility.yul\":949:971   */\n      add\n        /* \"#utility.yul\":911:981   */\n      tag_127\n      jump\t// in\n    tag_174:\n        /* \"#utility.yul\":901:981   */\n      swap2\n      pop\n        /* \"#utility.yul\":857:991   */\n      pop\n        /* \"#utility.yul\":635:998   */\n      swap3\n      swap2\n      pop\n      pop\n      jump\t// out\n        /* \"#utility.yul\":1004:1081   */\n    tag_128:\n        /* \"#utility.yul\":1041:1048   */\n      0x00\n        /* \"#utility.yul\":1070:1075   */\n      dup2\n        /* \"#utility.yul\":1059:1075   */\n      swap1\n      pop\n        /* \"#utility.yul\":1004:1081   */\n      swap2\n      swap1\n      pop\n      jump\t// out\n        /* \"#utility.yul\":1087:1205   */\n    tag_129:\n        /* \"#utility.yul\":1174:1198   */\n      tag_177\n        /* \"#utility.yul\":1192:1197   */\n      dup2\n        /* \"#utility.yul\":1174:1198   */\n      tag_128\n      jump\t// in\n    tag_177:\n        /* \"#utility.yul\":1169:1172   */\n      dup3\n        /* \"#utility.yul\":1162:1199   */\n      mstore\n        /* \"#utility.yul\":1087:1205   */\n      pop\n      pop\n      jump\t// out\n        /* \"#utility.yul\":1211:1433   */\n    tag_16:\n        /* \"#utility.yul\":1304:1308   */\n      0x00\n        /* \"#utility.yul\":1342:1344   */\n      0x20\n        /* \"#utility.yul\":1331:1340   */\n      dup3\n        /* \"#utility.yul\":1327:1345   */\n      add\n        /* \"#utility.yul\":1319:1345   */\n      swap1\n      pop\n        /* \"#utility.yul\":1355:1426   */\n      tag_179\n        /* \"#utility.yul\":1423:1424   */\n      0x00\n        /* \"#utility.yul\":1412:1421   */\n      dup4\n        /* \"#utility.yul\":1408:1425   */\n      add\n        /* \"#utility.yul\":1399:1405   */\n      dup5\n        /* \"#utility.yul\":1355:1426   */\n      tag_129\n      jump\t// in\n    tag_179:\n        /* \"#utility.yul\":1211:1433   */\n      swap3\n      swap2\n      pop\n      pop\n      jump\t// out\n        /* \"#utility.yul\":1439:1561   */\n    tag_130:\n        /* \"#utility.yul\":1512:1536   */\n      tag_181\n        /* \"#utility.yul\":1530:1535   */\n      dup2\n        /* \"#utility.yul\":1512:1536   */\n      tag_128\n      jump\t// in\n    tag_181:\n        /* \"#utility.yul\":1505:1510   */\n      dup2\n        /* \"#utility.yul\":1502:1537   */\n      eq\n        /* \"#utility.yul\":1492:1555   */\n      tag_182\n      jumpi\n        /* \"#utility.yul\":1551:1552   */\n      0x00\n        /* \"#utility.yul\":1548:1549   */\n      0x00\n        /* \"#utility.yul\":1541:1553   */\n      revert\n        /* \"#utility.yul\":1492:1555   */\n    tag_182:\n        /* \"#utility.yul\":1439:1561   */\n      pop\n      jump\t// out\n        /* \"#utility.yul\":1567:1706   */\n    tag_131:\n        /* \"#utility.yul\":1613:1618   */\n      0x00\n        /* \"#utility.yul\":1651:1657   */\n      dup2\n        /* \"#utility.yul\":1638:1658   */\n      calldataload\n        /* \"#utility.yul\":1629:1658   */\n      swap1\n      pop\n        /* \"#utility.yul\":1667:1700   */\n      tag_184\n        /* \"#utility.yul\":1694:1699   */\n      dup2\n        /* \"#utility.yul\":1667:1700   */\n      tag_130\n      jump\t// in\n    tag_184:\n        /* \"#utility.yul\":1567:1706   */\n      swap3\n      swap2\n      pop\n      pop\n      jump\t// out\n        /* \"#utility.yul\":1712:2220   */\n    tag_19:\n        /* \"#utility.yul\":1797:1803   */\n      0x00\n        /* \"#utility.yul\":1805:1811   */\n      0x00\n        /* \"#utility.yul\":1854:1856   */\n      0x40\n        /* \"#utility.yul\":1842:1851   */\n      dup4\n        /* \"#utility.yul\":1833:1840   */\n      dup6\n        /* \"#utility.yul\":1829:1852   */\n      sub\n        /* \"#utility.yul\":1825:1857   */\n      slt\n        /* \"#utility.yul\":1822:1941   */\n      iszero\n      tag_186\n      jumpi\n        /* \"#utility.yul\":1860:1939   */\n      tag_187\n      tag_124\n      jump\t// in\n    tag_187:\n        /* \"#utility.yul\":1822:1941   */\n    tag_186:\n        /* \"#utility.yul\":1980:1981   */\n      0x00\n        /* \"#utility.yul\":2005:2058   */\n      tag_188\n        /* \"#utility.yul\":2050:2057   */\n      dup6\n        /* \"#utility.yul\":2041:2047   */\n      dup3\n        /* \"#utility.yul\":2030:2039   */\n      dup7\n        /* \"#utility.yul\":2026:2048   */\n      add\n        /* \"#utility.yul\":2005:2058   */\n      tag_131\n      jump\t// in\n    tag_188:\n        /* \"#utility.yul\":1995:2058   */\n      swap3\n      pop\n        /* \"#utility.yul\":1951:2068   */\n      pop\n        /* \"#utility.yul\":2107:2109   */\n      0x20\n        /* \"#utility.yul\":2133:2203   */\n      tag_189\n        /* \"#utility.yul\":2195:2202   */\n      dup6\n        /* \"#utility.yul\":2186:2192   */\n      dup3\n        /* \"#utility.yul\":2175:2184   */\n      dup7\n        /* \"#utility.yul\":2171:2193   */\n      add\n        /* \"#utility.yul\":2133:2203   */\n      tag_127\n      jump\t// in\n    tag_189:\n        /* \"#utility.yul\":2123:2203   */\n      swap2\n      pop\n        /* \"#utility.yul\":2078:2213   */\n      pop\n        /* \"#utility.yul\":1712:2220   */\n      swap3\n      pop\n      swap3\n      swap1\n      pop\n      jump\t// out\n        /* \"#utility.yul\":2226:2555   */\n    tag_27:\n        /* \"#utility.yul\":2285:2291   */\n      0x00\n        /* \"#utility.yul\":2334:2336   */\n      0x20\n        /* \"#utility.yul\":2322:2331   */\n      dup3\n        /* \"#utility.yul\":2313:2320   */\n      dup5\n        /* \"#utility.yul\":2309:2332   */\n      sub\n        /* \"#utility.yul\":2305:2337   */\n      slt\n        /* \"#utility.yul\":2302:2421   */\n      iszero\n      tag_191\n      jumpi\n        /* \"#utility.yul\":2340:2419   */\n      tag_192\n      tag_124\n      jump\t// in\n    tag_192:\n        /* \"#utility.yul\":2302:2421   */\n    tag_191:\n        /* \"#utility.yul\":2460:2461   */\n      0x00\n        /* \"#utility.yul\":2485:2538   */\n      tag_193\n        /* \"#utility.yul\":2530:2537   */\n      dup5\n        /* \"#utility.yul\":2521:2527   */\n      dup3\n        /* \"#utility.yul\":2510:2519   */\n      dup6\n        /* \"#utility.yul\":2506:2528   */\n      add\n        /* \"#utility.yul\":2485:2538   */\n      tag_131\n      jump\t// in\n    tag_193:\n        /* \"#utility.yul\":2475:2538   */\n      swap2\n      pop\n        /* \"#utility.yul\":2431:2548   */\n      pop\n        /* \"#utility.yul\":2226:2555   */\n      swap3\n      swap2\n      pop\n      pop\n      jump\t// out\n        /* \"#utility.yul\":2561:2687   */\n    tag_132:\n        /* \"#utility.yul\":2598:2605   */\n      0x00\n        /* \"#utility.yul\":2638:2680   */\n      0xffffffffffffffffffffffffffffffffffffffff\n        /* \"#utility.yul\":2631:2636   */\n      dup3\n        /* \"#utility.yul\":2627:2681   */\n      and\n        /* \"#utility.yul\":2616:2681   */\n      swap1\n      pop\n        /* \"#utility.yul\":2561:2687   */\n      swap2\n      swap1\n      pop\n      jump\t// out\n        /* \"#utility.yul\":2693:2753   */\n    tag_133:\n        /* \"#utility.yul\":2721:2724   */\n      0x00\n        /* \"#utility.yul\":2742:2747   */\n      dup2\n        /* \"#utility.yul\":2735:2747   */\n      swap1\n      pop\n        /* \"#utility.yul\":2693:2753   */\n      swap2\n      swap1\n      pop\n      jump\t// out\n        /* \"#utility.yul\":2759:2901   */\n    tag_134:\n        /* \"#utility.yul\":2809:2818   */\n      0x00\n        /* \"#utility.yul\":2842:2895   */\n      tag_197\n        /* \"#utility.yul\":2860:2894   */\n      tag_198\n        /* \"#utility.yul\":2869:2893   */\n      tag_199\n        /* \"#utility.yul\":2887:2892   */\n      dup5\n        /* \"#utility.yul\":2869:2893   */\n      tag_132\n      jump\t// in\n    tag_199:\n        /* \"#utility.yul\":2860:2894   */\n      tag_133\n      jump\t// in\n    tag_198:\n        /* \"#utility.yul\":2842:2895   */\n      tag_132\n      jump\t// in\n    tag_197:\n        /* \"#utility.yul\":2829:2895   */\n      swap1\n      pop\n        /* \"#utility.yul\":2759:2901   */\n      swap2\n      swap1\n      pop\n      jump\t// out\n        /* \"#utility.yul\":2907:3033   */\n    tag_135:\n        /* \"#utility.yul\":2957:2966   */\n      0x00\n        /* \"#utility.yul\":2990:3027   */\n      tag_201\n        /* \"#utility.yul\":3021:3026   */\n      dup3\n        /* \"#utility.yul\":2990:3027   */\n      tag_134\n      jump\t// in\n    tag_201:\n        /* \"#utility.yul\":2977:3027   */\n      swap1\n      pop\n        /* \"#utility.yul\":2907:3033   */\n      swap2\n      swap1\n      pop\n      jump\t// out\n        /* \"#utility.yul\":3039:3179   */\n    tag_136:\n        /* \"#utility.yul\":3103:3112   */\n      0x00\n        /* \"#utility.yul\":3136:3173   */\n      tag_203\n        /* \"#utility.yul\":3167:3172   */\n      dup3\n        /* \"#utility.yul\":3136:3173   */\n      tag_135\n      jump\t// in\n    tag_203:\n        /* \"#utility.yul\":3123:3173   */\n      swap1\n      pop\n        /* \"#utility.yul\":3039:3179   */\n      swap2\n      swap1\n      pop\n      jump\t// out\n        /* \"#utility.yul\":3185:3344   */\n    tag_137:\n        /* \"#utility.yul\":3286:3337   */\n      tag_205\n        /* \"#utility.yul\":3331:3336   */\n      dup2\n        /* \"#utility.yul\":3286:3337   */\n      tag_136\n      jump\t// in\n    tag_205:\n        /* \"#utility.yul\":3281:3284   */\n      dup3\n        /* \"#utility.yul\":3274:3338   */\n      mstore\n        /* \"#utility.yul\":3185:3344   */\n      pop\n      pop\n      jump\t// out\n        /* \"#utility.yul\":3350:3600   */\n    tag_36:\n        /* \"#utility.yul\":3457:3461   */\n      0x00\n        /* \"#utility.yul\":3495:3497   */\n      0x20\n        /* \"#utility.yul\":3484:3493   */\n      dup3\n        /* \"#utility.yul\":3480:3498   */\n      add\n        /* \"#utility.yul\":3472:3498   */\n      swap1\n      pop\n        /* \"#utility.yul\":3508:3593   */\n      tag_207\n        /* \"#utility.yul\":3590:3591   */\n      0x00\n        /* \"#utility.yul\":3579:3588   */\n      dup4\n        /* \"#utility.yul\":3575:3592   */\n      add\n        /* \"#utility.yul\":3566:3572   */\n      dup5\n        /* \"#utility.yul\":3508:3593   */\n      tag_137\n      jump\t// in\n    tag_207:\n        /* \"#utility.yul\":3350:3600   */\n      swap3\n      swap2\n      pop\n      pop\n      jump\t// out\n        /* \"#utility.yul\":3606:3702   */\n    tag_138:\n        /* \"#utility.yul\":3643:3650   */\n      0x00\n        /* \"#utility.yul\":3672:3696   */\n      tag_209\n        /* \"#utility.yul\":3690:3695   */\n      dup3\n        /* \"#utility.yul\":3672:3696   */\n      tag_132\n      jump\t// in\n    tag_209:\n        /* \"#utility.yul\":3661:3696   */\n      swap1\n      pop\n        /* \"#utility.yul\":3606:3702   */\n      swap2\n      swap1\n      pop\n      jump\t// out\n        /* \"#utility.yul\":3708:3830   */\n    tag_139:\n        /* \"#utility.yul\":3781:3805   */\n      tag_211\n        /* \"#utility.yul\":3799:3804   */\n      dup2\n        /* \"#utility.yul\":3781:3805   */\n      tag_138\n      jump\t// in\n    tag_211:\n        /* \"#utility.yul\":3774:3779   */\n      dup2\n        /* \"#utility.yul\":3771:3806   */\n      eq\n        /* \"#utility.yul\":3761:3824   */\n      tag_212\n      jumpi\n        /* \"#utility.yul\":3820:3821   */\n      0x00\n        /* \"#utility.yul\":3817:3818   */\n      0x00\n        /* \"#utility.yul\":3810:3822   */\n      revert\n        /* \"#utility.yul\":3761:3824   */\n    tag_212:\n        /* \"#utility.yul\":3708:3830   */\n      pop\n      jump\t// out\n        /* \"#utility.yul\":3836:3975   */\n    tag_140:\n        /* \"#utility.yul\":3882:3887   */\n      0x00\n        /* \"#utility.yul\":3920:3926   */\n      dup2\n        /* \"#utility.yul\":3907:3927   */\n      calldataload\n        /* \"#utility.yul\":3898:3927   */\n      swap1\n      pop\n        /* \"#utility.yul\":3936:3969   */\n      tag_214\n        /* \"#utility.yul\":3963:3968   */\n      dup2\n        /* \"#utility.yul\":3936:3969   */\n      tag_139\n      jump\t// in\n    tag_214:\n        /* \"#utility.yul\":3836:3975   */\n      swap3\n      swap2\n      pop\n      pop\n      jump\t// out\n        /* \"#utility.yul\":3981:4455   */\n    tag_39:\n        /* \"#utility.yul\":4049:4055   */\n      0x00\n        /* \"#utility.yul\":4057:4063   */\n      0x00\n        /* \"#utility.yul\":4106:4108   */\n      0x40\n        /* \"#utility.yul\":4094:4103   */\n      dup4\n        /* \"#utility.yul\":4085:4092   */\n      dup6\n        /* \"#utility.yul\":4081:4104   */\n      sub\n        /* \"#utility.yul\":4077:4109   */\n      slt\n        /* \"#utility.yul\":4074:4193   */\n      iszero\n      tag_216\n      jumpi\n        /* \"#utility.yul\":4112:4191   */\n      tag_217\n      tag_124\n      jump\t// in\n    tag_217:\n        /* \"#utility.yul\":4074:4193   */\n    tag_216:\n        /* \"#utility.yul\":4232:4233   */\n      0x00\n        /* \"#utility.yul\":4257:4310   */\n      tag_218\n        /* \"#utility.yul\":4302:4309   */\n      dup6\n        /* \"#utility.yul\":4293:4299   */\n      dup3\n        /* \"#utility.yul\":4282:4291   */\n      dup7\n        /* \"#utility.yul\":4278:4300   */\n      add\n        /* \"#utility.yul\":4257:4310   */\n      tag_140\n      jump\t// in\n    tag_218:\n        /* \"#utility.yul\":4247:4310   */\n      swap3\n      pop\n        /* \"#utility.yul\":4203:4320   */\n      pop\n        /* \"#utility.yul\":4359:4361   */\n      0x20\n        /* \"#utility.yul\":4385:4438   */\n      tag_219\n        /* \"#utility.yul\":4430:4437   */\n      dup6\n        /* \"#utility.yul\":4421:4427   */\n      dup3\n        /* \"#utility.yul\":4410:4419   */\n      dup7\n        /* \"#utility.yul\":4406:4428   */\n      add\n        /* \"#utility.yul\":4385:4438   */\n      tag_131\n      jump\t// in\n    tag_219:\n        /* \"#utility.yul\":4375:4438   */\n      swap2\n      pop\n        /* \"#utility.yul\":4330:4448   */\n      pop\n        /* \"#utility.yul\":3981:4455   */\n      swap3\n      pop\n      swap3\n      swap1\n      pop\n      jump\t// out\n        /* \"#utility.yul\":4461:4551   */\n    tag_141:\n        /* \"#utility.yul\":4495:4502   */\n      0x00\n        /* \"#utility.yul\":4538:4543   */\n      dup2\n        /* \"#utility.yul\":4531:4544   */\n      iszero\n        /* \"#utility.yul\":4524:4545   */\n      iszero\n        /* \"#utility.yul\":4513:4545   */\n      swap1\n      pop\n        /* \"#utility.yul\":4461:4551   */\n      swap2\n      swap1\n      pop\n      jump\t// out\n        /* \"#utility.yul\":4557:4666   */\n    tag_142:\n        /* \"#utility.yul\":4638:4659   */\n      tag_222\n        /* \"#utility.yul\":4653:4658   */\n      dup2\n        /* \"#utility.yul\":4638:4659   */\n      tag_141\n      jump\t// in\n    tag_222:\n        /* \"#utility.yul\":4633:4636   */\n      dup3\n        /* \"#utility.yul\":4626:4660   */\n      mstore\n        /* \"#utility.yul\":4557:4666   */\n      pop\n      pop\n      jump\t// out\n        /* \"#utility.yul\":4672:5435   */\n    tag_42:\n        /* \"#utility.yul\":4899:4903   */\n      0x00\n        /* \"#utility.yul\":4937:4940   */\n      0xc0\n        /* \"#utility.yul\":4926:4935   */\n      dup3\n        /* \"#utility.yul\":4922:4941   */\n      add\n        /* \"#utility.yul\":4914:4941   */\n      swap1\n      pop\n        /* \"#utility.yul\":4951:5022   */\n      tag_224\n        /* \"#utility.yul\":5019:5020   */\n      0x00\n        /* \"#utility.yul\":5008:5017   */\n      dup4\n        /* \"#utility.yul\":5004:5021   */\n      add\n        /* \"#utility.yul\":4995:5001   */\n      dup10\n        /* \"#utility.yul\":4951:5022   */\n      tag_129\n      jump\t// in\n    tag_224:\n        /* \"#utility.yul\":5032:5104   */\n      tag_225\n        /* \"#utility.yul\":5100:5102   */\n      0x20\n        /* \"#utility.yul\":5089:5098   */\n      dup4\n        /* \"#utility.yul\":5085:5103   */\n      add\n        /* \"#utility.yul\":5076:5082   */\n      dup9\n        /* \"#utility.yul\":5032:5104   */\n      tag_129\n      jump\t// in\n    tag_225:\n        /* \"#utility.yul\":5114:5186   */\n      tag_226\n        /* \"#utility.yul\":5182:5184   */\n      0x40\n        /* \"#utility.yul\":5171:5180   */\n      dup4\n        /* \"#utility.yul\":5167:5185   */\n      add\n        /* \"#utility.yul\":5158:5164   */\n      dup8\n        /* \"#utility.yul\":5114:5186   */\n      tag_129\n      jump\t// in\n    tag_226:\n        /* \"#utility.yul\":5196:5268   */\n      tag_227\n        /* \"#utility.yul\":5264:5266   */\n      0x60\n        /* \"#utility.yul\":5253:5262   */\n      dup4\n        /* \"#utility.yul\":5249:5267   */\n      add\n        /* \"#utility.yul\":5240:5246   */\n      dup7\n        /* \"#utility.yul\":5196:5268   */\n      tag_129\n      jump\t// in\n    tag_227:\n        /* \"#utility.yul\":5278:5351   */\n      tag_228\n        /* \"#utility.yul\":5346:5349   */\n      0x80\n        /* \"#utility.yul\":5335:5344   */\n      dup4\n        /* \"#utility.yul\":5331:5350   */\n      add\n        /* \"#utility.yul\":5322:5328   */\n      dup6\n        /* \"#utility.yul\":5278:5351   */\n      tag_129\n      jump\t// in\n    tag_228:\n        /* \"#utility.yul\":5361:5428   */\n      tag_229\n        /* \"#utility.yul\":5423:5426   */\n      0xa0\n        /* \"#utility.yul\":5412:5421   */\n      dup4\n        /* \"#utility.yul\":5408:5427   */\n      add\n        /* \"#utility.yul\":5399:5405   */\n      dup5\n        /* \"#utility.yul\":5361:5428   */\n      tag_142\n      jump\t// in\n    tag_229:\n        /* \"#utility.yul\":4672:5435   */\n      swap8\n      swap7\n      pop\n      pop\n      pop\n      pop\n      pop\n      pop\n      pop\n      jump\t// out\n        /* \"#utility.yul\":5441:5610   */\n    tag_143:\n        /* \"#utility.yul\":5525:5536   */\n      0x00\n        /* \"#utility.yul\":5559:5565   */\n      dup3\n        /* \"#utility.yul\":5554:5557   */\n      dup3\n        /* \"#utility.yul\":5547:5566   */\n      mstore\n        /* \"#utility.yul\":5599:5603   */\n      0x20\n        /* \"#utility.yul\":5594:5597   */\n      dup3\n        /* \"#utility.yul\":5590:5604   */\n      add\n        /* \"#utility.yul\":5575:5604   */\n      swap1\n      pop\n        /* \"#utility.yul\":5441:5610   */\n      swap3\n      swap2\n      pop\n      pop\n      jump\t// out\n        /* \"#utility.yul\":5616:5798   */\n    tag_144:\n        /* \"#utility.yul\":5756:5790   */\n      0x616d6f756e74206d7573742062652067726561746572207468616e207a65726f\n        /* \"#utility.yul\":5752:5753   */\n      0x00\n        /* \"#utility.yul\":5744:5750   */\n      dup3\n        /* \"#utility.yul\":5740:5754   */\n      add\n        /* \"#utility.yul\":5733:5791   */\n      mstore\n        /* \"#utility.yul\":5616:5798   */\n      pop\n      jump\t// out\n        /* \"#utility.yul\":5804:6170   */\n    tag_145:\n        /* \"#utility.yul\":5946:5949   */\n      0x00\n        /* \"#utility.yul\":5967:6034   */\n      tag_233\n        /* \"#utility.yul\":6031:6033   */\n      0x20\n        /* \"#utility.yul\":6026:6029   */\n      dup4\n        /* \"#utility.yul\":5967:6034   */\n      tag_143\n      jump\t// in\n    tag_233:\n        /* \"#utility.yul\":5960:6034   */\n      swap2\n      pop\n        /* \"#utility.yul\":6043:6136   */\n      tag_234\n        /* \"#utility.yul\":6132:6135   */\n      dup3\n        /* \"#utility.yul\":6043:6136   */\n      tag_144\n      jump\t// in\n    tag_234:\n        /* \"#utility.yul\":6161:6163   */\n      0x20\n        /* \"#utility.yul\":6156:6159   */\n      dup3\n        /* \"#utility.yul\":6152:6164   */\n      add\n        /* \"#utility.yul\":6145:6164   */\n      swap1\n      pop\n        /* \"#utility.yul\":5804:6170   */\n      swap2\n      swap1\n      pop\n      jump\t// out\n        /* \"#utility.yul\":6176:6595   */\n    tag_46:\n        /* \"#utility.yul\":6342:6346   */\n      0x00\n        /* \"#utility.yul\":6380:6382   */\n      0x20\n        /* \"#utility.yul\":6369:6378   */\n      dup3\n        /* \"#utility.yul\":6365:6383   */\n      add\n        /* \"#utility.yul\":6357:6383   */\n      swap1\n      pop\n        /* \"#utility.yul\":6429:6438   */\n      dup2\n        /* \"#utility.yul\":6423:6427   */\n      dup2\n        /* \"#utility.yul\":6419:6439   */\n      sub\n        /* \"#utility.yul\":6415:6416   */\n      0x00\n        /* \"#utility.yul\":6404:6413   */\n      dup4\n        /* \"#utility.yul\":6400:6417   */\n      add\n        /* \"#utility.yul\":6393:6440   */\n      mstore\n        /* \"#utility.yul\":6457:6588   */\n      tag_236\n        /* \"#utility.yul\":6583:6587   */\n      dup2\n        /* \"#utility.yul\":6457:6588   */\n      tag_145\n      jump\t// in\n    tag_236:\n        /* \"#utility.yul\":6449:6588   */\n      swap1\n      pop\n        /* \"#utility.yul\":6176:6595   */\n      swap2\n      swap1\n      pop\n      jump\t// out\n        /* \"#utility.yul\":6601:6719   */\n    tag_146:\n        /* \"#utility.yul\":6688:6712   */\n      tag_238\n        /* \"#utility.yul\":6706:6711   */\n      dup2\n        /* \"#utility.yul\":6688:6712   */\n      tag_138\n      jump\t// in\n    tag_238:\n        /* \"#utility.yul\":6683:6686   */\n      dup3\n        /* \"#utility.yul\":6676:6713   */\n      mstore\n        /* \"#utility.yul\":6601:6719   */\n      pop\n      pop\n      jump\t// out\n        /* \"#utility.yul\":6725:7167   */\n    tag_48:\n        /* \"#utility.yul\":6874:6878   */\n      0x00\n        /* \"#utility.yul\":6912:6914   */\n      0x60\n        /* \"#utility.yul\":6901:6910   */\n      dup3\n        /* \"#utility.yul\":6897:6915   */\n      add\n        /* \"#utility.yul\":6889:6915   */\n      swap1\n      pop\n        /* \"#utility.yul\":6925:6996   */\n      tag_240\n        /* \"#utility.yul\":6993:6994   */\n      0x00\n        /* \"#utility.yul\":6982:6991   */\n      dup4\n        /* \"#utility.yul\":6978:6995   */\n      add\n        /* \"#utility.yul\":6969:6975   */\n      dup7\n        /* \"#utility.yul\":6925:6996   */\n      tag_146\n      jump\t// in\n    tag_240:\n        /* \"#utility.yul\":7006:7078   */\n      tag_241\n        /* \"#utility.yul\":7074:7076   */\n      0x20\n        /* \"#utility.yul\":7063:7072   */\n      dup4\n        /* \"#utility.yul\":7059:7077   */\n      add\n        /* \"#utility.yul\":7050:7056   */\n      dup6\n        /* \"#utility.yul\":7006:7078   */\n      tag_146\n      jump\t// in\n    tag_241:\n        /* \"#utility.yul\":7088:7160   */\n      tag_242\n        /* \"#utility.yul\":7156:7158   */\n      0x40\n        /* \"#utility.yul\":7145:7154   */\n      dup4\n        /* \"#utility.yul\":7141:7159   */\n      add\n        /* \"#utility.yul\":7132:7138   */\n      dup5\n        /* \"#utility.yul\":7088:7160   */\n      tag_129\n      jump\t// in\n    tag_242:\n        /* \"#utility.yul\":6725:7167   */\n      swap5\n      swap4\n      pop\n      pop\n      pop\n      pop\n      jump\t// out\n        /* \"#utility.yul\":7173:7289   */\n    tag_147:\n        /* \"#utility.yul\":7243:7264   */\n      tag_244\n        /* \"#utility.yul\":7258:7263   */\n      dup2\n        /* \"#utility.yul\":7243:7264   */\n      tag_141\n      jump\t// in\n    tag_244:\n        /* \"#utility.yul\":7236:7241   */\n      dup2\n        /* \"#utility.yul\":7233:7265   */\n      eq\n        /* \"#utility.yul\":7223:7283   */\n      tag_245\n      jumpi\n        /* \"#utility.yul\":7279:7280   */\n      0x00\n        /* \"#utility.yul\":7276:7277   */\n      0x00\n        /* \"#utility.yul\":7269:7281   */\n      revert\n        /* \"#utility.yul\":7223:7283   */\n    tag_245:\n        /* \"#utility.yul\":7173:7289   */\n      pop\n      jump\t// out\n        /* \"#utility.yul\":7295:7432   */\n    tag_148:\n        /* \"#utility.yul\":7349:7354   */\n      0x00\n        /* \"#utility.yul\":7380:7386   */\n      dup2\n        /* \"#utility.yul\":7374:7387   */\n      mload\n        /* \"#utility.yul\":7365:7387   */\n      swap1\n      pop\n        /* \"#utility.yul\":7396:7426   */\n      tag_247\n        /* \"#utility.yul\":7420:7425   */\n      dup2\n        /* \"#utility.yul\":7396:7426   */\n      tag_147\n      jump\t// in\n    tag_247:\n        /* \"#utility.yul\":7295:7432   */\n      swap3\n      swap2\n      pop\n      pop\n      jump\t// out\n        /* \"#utility.yul\":7438:7783   */\n    tag_52:\n        /* \"#utility.yul\":7505:7511   */\n      0x00\n        /* \"#utility.yul\":7554:7556   */\n      0x20\n        /* \"#utility.yul\":7542:7551   */\n      dup3\n        /* \"#utility.yul\":7533:7540   */\n      dup5\n        /* \"#utility.yul\":7529:7552   */\n      sub\n        /* \"#utility.yul\":7525:7557   */\n      slt\n        /* \"#utility.yul\":7522:7641   */\n      iszero\n      tag_249\n      jumpi\n        /* \"#utility.yul\":7560:7639   */\n      tag_250\n      tag_124\n      jump\t// in\n    tag_250:\n        /* \"#utility.yul\":7522:7641   */\n    tag_249:\n        /* \"#utility.yul\":7680:7681   */\n      0x00\n        /* \"#utility.yul\":7705:7766   */\n      tag_251\n        /* \"#utility.yul\":7758:7765   */\n      dup5\n        /* \"#utility.yul\":7749:7755   */\n      dup3\n        /* \"#utility.yul\":7738:7747   */\n      dup6\n        /* \"#utility.yul\":7734:7756   */\n      add\n        /* \"#utility.yul\":7705:7766   */\n      tag_148\n      jump\t// in\n    tag_251:\n        /* \"#utility.yul\":7695:7766   */\n      swap2\n      pop\n        /* \"#utility.yul\":7651:7776   */\n      pop\n        /* \"#utility.yul\":7438:7783   */\n      swap3\n      swap2\n      pop\n      pop\n      jump\t// out\n        /* \"#utility.yul\":7789:7954   */\n    tag_149:\n        /* \"#utility.yul\":7929:7946   */\n      0x5472616e73666572206661696c65640000000000000000000000000000000000\n        /* \"#utility.yul\":7925:7926   */\n      0x00\n        /* \"#utility.yul\":7917:7923   */\n      dup3\n        /* \"#utility.yul\":7913:7927   */\n      add\n        /* \"#utility.yul\":7906:7947   */\n      mstore\n        /* \"#utility.yul\":7789:7954   */\n      pop\n      jump\t// out\n        /* \"#utility.yul\":7960:8326   */\n    tag_150:\n        /* \"#utility.yul\":8102:8105   */\n      0x00\n        /* \"#utility.yul\":8123:8190   */\n      tag_254\n        /* \"#utility.yul\":8187:8189   */\n      0x0f\n        /* \"#utility.yul\":8182:8185   */\n      dup4\n        /* \"#utility.yul\":8123:8190   */\n      tag_143\n      jump\t// in\n    tag_254:\n        /* \"#utility.yul\":8116:8190   */\n      swap2\n      pop\n        /* \"#utility.yul\":8199:8292   */\n      tag_255\n        /* \"#utility.yul\":8288:8291   */\n      dup3\n        /* \"#utility.yul\":8199:8292   */\n      tag_149\n      jump\t// in\n    tag_255:\n        /* \"#utility.yul\":8317:8319   */\n      0x20\n        /* \"#utility.yul\":8312:8315   */\n      dup3\n        /* \"#utility.yul\":8308:8320   */\n      add\n        /* \"#utility.yul\":8301:8320   */\n      swap1\n      pop\n        /* \"#utility.yul\":7960:8326   */\n      swap2\n      swap1\n      pop\n      jump\t// out\n        /* \"#utility.yul\":8332:8751   */\n    tag_55:\n        /* \"#utility.yul\":8498:8502   */\n      0x00\n        /* \"#utility.yul\":8536:8538   */\n      0x20\n        /* \"#utility.yul\":8525:8534   */\n      dup3\n        /* \"#utility.yul\":8521:8539   */\n      add\n        /* \"#utility.yul\":8513:8539   */\n      swap1\n      pop\n        /* \"#utility.yul\":8585:8594   */\n      dup2\n        /* \"#utility.yul\":8579:8583   */\n      dup2\n        /* \"#utility.yul\":8575:8595   */\n      sub\n        /* \"#utility.yul\":8571:8572   */\n      0x00\n        /* \"#utility.yul\":8560:8569   */\n      dup4\n        /* \"#utility.yul\":8556:8573   */\n      add\n        /* \"#utility.yul\":8549:8596   */\n      mstore\n        /* \"#utility.yul\":8613:8744   */\n      tag_257\n        /* \"#utility.yul\":8739:8743   */\n      dup2\n        /* \"#utility.yul\":8613:8744   */\n      tag_150\n      jump\t// in\n    tag_257:\n        /* \"#utility.yul\":8605:8744   */\n      swap1\n      pop\n        /* \"#utility.yul\":8332:8751   */\n      swap2\n      swap1\n      pop\n      jump\t// out\n        /* \"#utility.yul\":8757:8937   */\n    tag_60:\n        /* \"#utility.yul\":8805:8882   */\n      0x4e487b7100000000000000000000000000000000000000000000000000000000\n        /* \"#utility.yul\":8802:8803   */\n      0x00\n        /* \"#utility.yul\":8795:8883   */\n      mstore\n        /* \"#utility.yul\":8902:8906   */\n      0x21\n        /* \"#utility.yul\":8899:8900   */\n      0x04\n        /* \"#utility.yul\":8892:8907   */\n      mstore\n        /* \"#utility.yul\":8926:8930   */\n      0x24\n        /* \"#utility.yul\":8923:8924   */\n      0x00\n        /* \"#utility.yul\":8916:8931   */\n      revert\n        /* \"#utility.yul\":8943:9123   */\n    tag_151:\n        /* \"#utility.yul\":8991:9068   */\n      0x4e487b7100000000000000000000000000000000000000000000000000000000\n        /* \"#utility.yul\":8988:8989   */\n      0x00\n        /* \"#utility.yul\":8981:9069   */\n      mstore\n        /* \"#utility.yul\":9088:9092   */\n      0x11\n        /* \"#utility.yul\":9085:9086   */\n      0x04\n        /* \"#utility.yul\":9078:9093   */\n      mstore\n        /* \"#utility.yul\":9112:9116   */\n      0x24\n        /* \"#utility.yul\":9109:9110   */\n      0x00\n        /* \"#utility.yul\":9102:9117   */\n      revert\n        /* \"#utility.yul\":9129:9539   */\n    tag_68:\n        /* \"#utility.yul\":9169:9176   */\n      0x00\n        /* \"#utility.yul\":9192:9212   */\n      tag_261\n        /* \"#utility.yul\":9210:9211   */\n      dup3\n        /* \"#utility.yul\":9192:9212   */\n      tag_128\n      jump\t// in\n    tag_261:\n        /* \"#utility.yul\":9187:9212   */\n      swap2\n      pop\n        /* \"#utility.yul\":9226:9246   */\n      tag_262\n        /* \"#utility.yul\":9244:9245   */\n      dup4\n        /* \"#utility.yul\":9226:9246   */\n      tag_128\n      jump\t// in\n    tag_262:\n        /* \"#utility.yul\":9221:9246   */\n      swap3\n      pop\n        /* \"#utility.yul\":9281:9282   */\n      dup3\n        /* \"#utility.yul\":9278:9279   */\n      dup3\n        /* \"#utility.yul\":9274:9283   */\n      mul\n        /* \"#utility.yul\":9303:9333   */\n      tag_263\n        /* \"#utility.yul\":9321:9332   */\n      dup2\n        /* \"#utility.yul\":9303:9333   */\n      tag_128\n      jump\t// in\n    tag_263:\n        /* \"#utility.yul\":9292:9333   */\n      swap2\n      pop\n        /* \"#utility.yul\":9482:9483   */\n      dup3\n        /* \"#utility.yul\":9473:9480   */\n      dup3\n        /* \"#utility.yul\":9469:9484   */\n      div\n        /* \"#utility.yul\":9466:9467   */\n      dup5\n        /* \"#utility.yul\":9463:9485   */\n      eq\n        /* \"#utility.yul\":9443:9444   */\n      dup4\n        /* \"#utility.yul\":9436:9445   */\n      iszero\n        /* \"#utility.yul\":9416:9499   */\n      or\n        /* \"#utility.yul\":9393:9532   */\n      tag_264\n      jumpi\n        /* \"#utility.yul\":9512:9530   */\n      tag_265\n      tag_151\n      jump\t// in\n    tag_265:\n        /* \"#utility.yul\":9393:9532   */\n    tag_264:\n        /* \"#utility.yul\":9177:9539   */\n      pop\n        /* \"#utility.yul\":9129:9539   */\n      swap3\n      swap2\n      pop\n      pop\n      jump\t// out\n        /* \"#utility.yul\":9545:9725   */\n    tag_152:\n        /* \"#utility.yul\":9593:9670   */\n      0x4e487b7100000000000000000000000000000000000000000000000000000000\n        /* \"#utility.yul\":9590:9591   */\n      0x00\n        /* \"#utility.yul\":9583:9671   */\n      mstore\n        /* \"#utility.yul\":9690:9694   */\n      0x12\n        /* \"#utility.yul\":9687:9688   */\n      0x04\n        /* \"#utility.yul\":9680:9695   */\n      mstore\n        /* \"#utility.yul\":9714:9718   */\n      0x24\n        /* \"#utility.yul\":9711:9712   */\n      0x00\n        /* \"#utility.yul\":9704:9719   */\n      revert\n        /* \"#utility.yul\":9731:9916   */\n    tag_71:\n        /* \"#utility.yul\":9771:9772   */\n      0x00\n        /* \"#utility.yul\":9788:9808   */\n      tag_268\n        /* \"#utility.yul\":9806:9807   */\n      dup3\n        /* \"#utility.yul\":9788:9808   */\n      tag_128\n      jump\t// in\n    tag_268:\n        /* \"#utility.yul\":9783:9808   */\n      swap2\n      pop\n        /* \"#utility.yul\":9822:9842   */\n      tag_269\n        /* \"#utility.yul\":9840:9841   */\n      dup4\n        /* \"#utility.yul\":9822:9842   */\n      tag_128\n      jump\t// in\n    tag_269:\n        /* \"#utility.yul\":9817:9842   */\n      swap3\n      pop\n        /* \"#utility.yul\":9861:9862   */\n      dup3\n        /* \"#utility.yul\":9851:9886   */\n      tag_270\n      jumpi\n        /* \"#utility.yul\":9866:9884   */\n      tag_271\n      tag_152\n      jump\t// in\n    tag_271:\n        /* \"#utility.yul\":9851:9886   */\n    tag_270:\n        /* \"#utility.yul\":9908:9909   */\n      dup3\n        /* \"#utility.yul\":9905:9906   */\n      dup3\n        /* \"#utility.yul\":9901:9910   */\n      div\n        /* \"#utility.yul\":9896:9910   */\n      swap1\n      pop\n        /* \"#utility.yul\":9731:9916   */\n      swap3\n      swap2\n      pop\n      pop\n      jump\t// out\n        /* \"#utility.yul\":9922:10113   */\n    tag_73:\n        /* \"#utility.yul\":9962:9965   */\n      0x00\n        /* \"#utility.yul\":9981:10001   */\n      tag_273\n        /* \"#utility.yul\":9999:10000   */\n      dup3\n        /* \"#utility.yul\":9981:10001   */\n      tag_128\n      jump\t// in\n    tag_273:\n        /* \"#utility.yul\":9976:10001   */\n      swap2\n      pop\n        /* \"#utility.yul\":10015:10035   */\n      tag_274\n        /* \"#utility.yul\":10033:10034   */\n      dup4\n        /* \"#utility.yul\":10015:10035   */\n      tag_128\n      jump\t// in\n    tag_274:\n        /* \"#utility.yul\":10010:10035   */\n      swap3\n      pop\n        /* \"#utility.yul\":10058:10059   */\n      dup3\n        /* \"#utility.yul\":10055:10056   */\n      dup3\n        /* \"#utility.yul\":10051:10060   */\n      add\n        /* \"#utility.yul\":10044:10060   */\n      swap1\n      pop\n        /* \"#utility.yul\":10079:10082   */\n      dup1\n        /* \"#utility.yul\":10076:10077   */\n      dup3\n        /* \"#utility.yul\":10073:10083   */\n      gt\n        /* \"#utility.yul\":10070:10106   */\n      iszero\n      tag_275\n      jumpi\n        /* \"#utility.yul\":10086:10104   */\n      tag_276\n      tag_151\n      jump\t// in\n    tag_276:\n        /* \"#utility.yul\":10070:10106   */\n    tag_275:\n        /* \"#utility.yul\":9922:10113   */\n      swap3\n      swap2\n      pop\n      pop\n      jump\t// out\n        /* \"#utility.yul\":10119:10241   */\n    tag_153:\n        /* \"#utility.yul\":10209:10210   */\n      0x04\n        /* \"#utility.yul\":10202:10207   */\n      dup2\n        /* \"#utility.yul\":10199:10211   */\n      lt\n        /* \"#utility.yul\":10189:10235   */\n      tag_278\n      jumpi\n        /* \"#utility.yul\":10215:10233   */\n      tag_279\n      tag_60\n      jump\t// in\n    tag_279:\n        /* \"#utility.yul\":10189:10235   */\n    tag_278:\n        /* \"#utility.yul\":10119:10241   */\n      pop\n      jump\t// out\n        /* \"#utility.yul\":10247:10392   */\n    tag_154:\n        /* \"#utility.yul\":10301:10308   */\n      0x00\n        /* \"#utility.yul\":10330:10335   */\n      dup2\n        /* \"#utility.yul\":10319:10335   */\n      swap1\n      pop\n        /* \"#utility.yul\":10336:10386   */\n      tag_281\n        /* \"#utility.yul\":10380:10385   */\n      dup3\n        /* \"#utility.yul\":10336:10386   */\n      tag_153\n      jump\t// in\n    tag_281:\n        /* \"#utility.yul\":10247:10392   */\n      swap2\n      swap1\n      pop\n      jump\t// out\n        /* \"#utility.yul\":10398:10543   */\n    tag_155:\n        /* \"#utility.yul\":10463:10472   */\n      0x00\n        /* \"#utility.yul\":10496:10537   */\n      tag_283\n        /* \"#utility.yul\":10531:10536   */\n      dup3\n        /* \"#utility.yul\":10496:10537   */\n      tag_154\n      jump\t// in\n    tag_283:\n        /* \"#utility.yul\":10483:10537   */\n      swap1\n      pop\n        /* \"#utility.yul\":10398:10543   */\n      swap2\n      swap1\n      pop\n      jump\t// out\n        /* \"#utility.yul\":10549:10710   */\n    tag_156:\n        /* \"#utility.yul\":10651:10703   */\n      tag_285\n        /* \"#utility.yul\":10697:10702   */\n      dup2\n        /* \"#utility.yul\":10651:10703   */\n      tag_155\n      jump\t// in\n    tag_285:\n        /* \"#utility.yul\":10646:10649   */\n      dup3\n        /* \"#utility.yul\":10639:10704   */\n      mstore\n        /* \"#utility.yul\":10549:10710   */\n      pop\n      pop\n      jump\t// out\n        /* \"#utility.yul\":10716:11188   */\n    tag_76:\n        /* \"#utility.yul\":10880:10884   */\n      0x00\n        /* \"#utility.yul\":10918:10920   */\n      0x60\n        /* \"#utility.yul\":10907:10916   */\n      dup3\n        /* \"#utility.yul\":10903:10921   */\n      add\n        /* \"#utility.yul\":10895:10921   */\n      swap1\n      pop\n        /* \"#utility.yul\":10931:11002   */\n      tag_287\n        /* \"#utility.yul\":10999:11000   */\n      0x00\n        /* \"#utility.yul\":10988:10997   */\n      dup4\n        /* \"#utility.yul\":10984:11001   */\n      add\n        /* \"#utility.yul\":10975:10981   */\n      dup7\n        /* \"#utility.yul\":10931:11002   */\n      tag_129\n      jump\t// in\n    tag_287:\n        /* \"#utility.yul\":11012:11099   */\n      tag_288\n        /* \"#utility.yul\":11095:11097   */\n      0x20\n        /* \"#utility.yul\":11084:11093   */\n      dup4\n        /* \"#utility.yul\":11080:11098   */\n      add\n        /* \"#utility.yul\":11071:11077   */\n      dup6\n        /* \"#utility.yul\":11012:11099   */\n      tag_156\n      jump\t// in\n    tag_288:\n        /* \"#utility.yul\":11109:11181   */\n      tag_289\n        /* \"#utility.yul\":11177:11179   */\n      0x40\n        /* \"#utility.yul\":11166:11175   */\n      dup4\n        /* \"#utility.yul\":11162:11180   */\n      add\n        /* \"#utility.yul\":11153:11159   */\n      dup5\n        /* \"#utility.yul\":11109:11181   */\n      tag_129\n      jump\t// in\n    tag_289:\n        /* \"#utility.yul\":10716:11188   */\n      swap5\n      swap4\n      pop\n      pop\n      pop\n      pop\n      jump\t// out\n        /* \"#utility.yul\":11194:11363   */\n    tag_157:\n        /* \"#utility.yul\":11334:11355   */\n      0x496e76616c6964207374616b6520696e64657800000000000000000000000000\n        /* \"#utility.yul\":11330:11331   */\n      0x00\n        /* \"#utility.yul\":11322:11328   */\n      dup3\n        /* \"#utility.yul\":11318:11332   */\n      add\n        /* \"#utility.yul\":11311:11356   */\n      mstore\n        /* \"#utility.yul\":11194:11363   */\n      pop\n      jump\t// out\n        /* \"#utility.yul\":11369:11735   */\n    tag_158:\n        /* \"#utility.yul\":11511:11514   */\n      0x00\n        /* \"#utility.yul\":11532:11599   */\n      tag_292\n        /* \"#utility.yul\":11596:11598   */\n      0x13\n        /* \"#utility.yul\":11591:11594   */\n      dup4\n        /* \"#utility.yul\":11532:11599   */\n      tag_143\n      jump\t// in\n    tag_292:\n        /* \"#utility.yul\":11525:11599   */\n      swap2\n      pop\n        /* \"#utility.yul\":11608:11701   */\n      tag_293\n        /* \"#utility.yul\":11697:11700   */\n      dup3\n        /* \"#utility.yul\":11608:11701   */\n      tag_157\n      jump\t// in\n    tag_293:\n        /* \"#utility.yul\":11726:11728   */\n      0x20\n        /* \"#utility.yul\":11721:11724   */\n      dup3\n        /* \"#utility.yul\":11717:11729   */\n      add\n        /* \"#utility.yul\":11710:11729   */\n      swap1\n      pop\n        /* \"#utility.yul\":11369:11735   */\n      swap2\n      swap1\n      pop\n      jump\t// out\n        /* \"#utility.yul\":11741:12160   */\n    tag_80:\n        /* \"#utility.yul\":11907:11911   */\n      0x00\n        /* \"#utility.yul\":11945:11947   */\n      0x20\n        /* \"#utility.yul\":11934:11943   */\n      dup3\n        /* \"#utility.yul\":11930:11948   */\n      add\n        /* \"#utility.yul\":11922:11948   */\n      swap1\n      pop\n        /* \"#utility.yul\":11994:12003   */\n      dup2\n        /* \"#utility.yul\":11988:11992   */\n      dup2\n        /* \"#utility.yul\":11984:12004   */\n      sub\n        /* \"#utility.yul\":11980:11981   */\n      0x00\n        /* \"#utility.yul\":11969:11978   */\n      dup4\n        /* \"#utility.yul\":11965:11982   */\n      add\n        /* \"#utility.yul\":11958:12005   */\n      mstore\n        /* \"#utility.yul\":12022:12153   */\n      tag_295\n        /* \"#utility.yul\":12148:12152   */\n      dup2\n        /* \"#utility.yul\":12022:12153   */\n      tag_158\n      jump\t// in\n    tag_295:\n        /* \"#utility.yul\":12014:12153   */\n      swap1\n      pop\n        /* \"#utility.yul\":11741:12160   */\n      swap2\n      swap1\n      pop\n      jump\t// out\n        /* \"#utility.yul\":12166:12346   */\n    tag_83:\n        /* \"#utility.yul\":12214:12291   */\n      0x4e487b7100000000000000000000000000000000000000000000000000000000\n        /* \"#utility.yul\":12211:12212   */\n      0x00\n        /* \"#utility.yul\":12204:12292   */\n      mstore\n        /* \"#utility.yul\":12311:12315   */\n      0x32\n        /* \"#utility.yul\":12308:12309   */\n      0x04\n        /* \"#utility.yul\":12301:12316   */\n      mstore\n        /* \"#utility.yul\":12335:12339   */\n      0x24\n        /* \"#utility.yul\":12332:12333   */\n      0x00\n        /* \"#utility.yul\":12325:12340   */\n      revert\n        /* \"#utility.yul\":12352:12519   */\n    tag_159:\n        /* \"#utility.yul\":12492:12511   */\n      0x73746b206973206e6f7420616374697665000000000000000000000000000000\n        /* \"#utility.yul\":12488:12489   */\n      0x00\n        /* \"#utility.yul\":12480:12486   */\n      dup3\n        /* \"#utility.yul\":12476:12490   */\n      add\n        /* \"#utility.yul\":12469:12512   */\n      mstore\n        /* \"#utility.yul\":12352:12519   */\n      pop\n      jump\t// out\n        /* \"#utility.yul\":12525:12891   */\n    tag_160:\n        /* \"#utility.yul\":12667:12670   */\n      0x00\n        /* \"#utility.yul\":12688:12755   */\n      tag_299\n        /* \"#utility.yul\":12752:12754   */\n      0x11\n        /* \"#utility.yul\":12747:12750   */\n      dup4\n        /* \"#utility.yul\":12688:12755   */\n      tag_143\n      jump\t// in\n    tag_299:\n        /* \"#utility.yul\":12681:12755   */\n      swap2\n      pop\n        /* \"#utility.yul\":12764:12857   */\n      tag_300\n        /* \"#utility.yul\":12853:12856   */\n      dup3\n        /* \"#utility.yul\":12764:12857   */\n      tag_159\n      jump\t// in\n    tag_300:\n        /* \"#utility.yul\":12882:12884   */\n      0x20\n        /* \"#utility.yul\":12877:12880   */\n      dup3\n        /* \"#utility.yul\":12873:12885   */\n      add\n        /* \"#utility.yul\":12866:12885   */\n      swap1\n      pop\n        /* \"#utility.yul\":12525:12891   */\n      swap2\n      swap1\n      pop\n      jump\t// out\n        /* \"#utility.yul\":12897:13316   */\n    tag_87:\n        /* \"#utility.yul\":13063:13067   */\n      0x00\n        /* \"#utility.yul\":13101:13103   */\n      0x20\n        /* \"#utility.yul\":13090:13099   */\n      dup3\n        /* \"#utility.yul\":13086:13104   */\n      add\n        /* \"#utility.yul\":13078:13104   */\n      swap1\n      pop\n        /* \"#utility.yul\":13150:13159   */\n      dup2\n        /* \"#utility.yul\":13144:13148   */\n      dup2\n        /* \"#utility.yul\":13140:13160   */\n      sub\n        /* \"#utility.yul\":13136:13137   */\n      0x00\n        /* \"#utility.yul\":13125:13134   */\n      dup4\n        /* \"#utility.yul\":13121:13138   */\n      add\n        /* \"#utility.yul\":13114:13161   */\n      mstore\n        /* \"#utility.yul\":13178:13309   */\n      tag_302\n        /* \"#utility.yul\":13304:13308   */\n      dup2\n        /* \"#utility.yul\":13178:13309   */\n      tag_160\n      jump\t// in\n    tag_302:\n        /* \"#utility.yul\":13170:13309   */\n      swap1\n      pop\n        /* \"#utility.yul\":12897:13316   */\n      swap2\n      swap1\n      pop\n      jump\t// out\n        /* \"#utility.yul\":13322:13498   */\n    tag_161:\n        /* \"#utility.yul\":13462:13490   */\n      0x5374616b696e6720706572696f64206973206e6f74206f766572000000000000\n        /* \"#utility.yul\":13458:13459   */\n      0x00\n        /* \"#utility.yul\":13450:13456   */\n      dup3\n        /* \"#utility.yul\":13446:13460   */\n      add\n        /* \"#utility.yul\":13439:13491   */\n      mstore\n        /* \"#utility.yul\":13322:13498   */\n      pop\n      jump\t// out\n        /* \"#utility.yul\":13504:13870   */\n    tag_162:\n        /* \"#utility.yul\":13646:13649   */\n      0x00\n        /* \"#utility.yul\":13667:13734   */\n      tag_305\n        /* \"#utility.yul\":13731:13733   */\n      0x1a\n        /* \"#utility.yul\":13726:13729   */\n      dup4\n        /* \"#utility.yul\":13667:13734   */\n      tag_143\n      jump\t// in\n    tag_305:\n        /* \"#utility.yul\":13660:13734   */\n      swap2\n      pop\n        /* \"#utility.yul\":13743:13836   */\n      tag_306\n        /* \"#utility.yul\":13832:13835   */\n      dup3\n        /* \"#utility.yul\":13743:13836   */\n      tag_161\n      jump\t// in\n    tag_306:\n        /* \"#utility.yul\":13861:13863   */\n      0x20\n        /* \"#utility.yul\":13856:13859   */\n      dup3\n        /* \"#utility.yul\":13852:13864   */\n      add\n        /* \"#utility.yul\":13845:13864   */\n      swap1\n      pop\n        /* \"#utility.yul\":13504:13870   */\n      swap2\n      swap1\n      pop\n      jump\t// out\n        /* \"#utility.yul\":13876:14295   */\n    tag_90:\n        /* \"#utility.yul\":14042:14046   */\n      0x00\n        /* \"#utility.yul\":14080:14082   */\n      0x20\n        /* \"#utility.yul\":14069:14078   */\n      dup3\n        /* \"#utility.yul\":14065:14083   */\n      add\n        /* \"#utility.yul\":14057:14083   */\n      swap1\n      pop\n        /* \"#utility.yul\":14129:14138   */\n      dup2\n        /* \"#utility.yul\":14123:14127   */\n      dup2\n        /* \"#utility.yul\":14119:14139   */\n      sub\n        /* \"#utility.yul\":14115:14116   */\n      0x00\n        /* \"#utility.yul\":14104:14113   */\n      dup4\n        /* \"#utility.yul\":14100:14117   */\n      add\n        /* \"#utility.yul\":14093:14140   */\n      mstore\n        /* \"#utility.yul\":14157:14288   */\n      tag_308\n        /* \"#utility.yul\":14283:14287   */\n      dup2\n        /* \"#utility.yul\":14157:14288   */\n      tag_162\n      jump\t// in\n    tag_308:\n        /* \"#utility.yul\":14149:14288   */\n      swap1\n      pop\n        /* \"#utility.yul\":13876:14295   */\n      swap2\n      swap1\n      pop\n      jump\t// out\n        /* \"#utility.yul\":14301:14633   */\n    tag_96:\n        /* \"#utility.yul\":14422:14426   */\n      0x00\n        /* \"#utility.yul\":14460:14462   */\n      0x40\n        /* \"#utility.yul\":14449:14458   */\n      dup3\n        /* \"#utility.yul\":14445:14463   */\n      add\n        /* \"#utility.yul\":14437:14463   */\n      swap1\n      pop\n        /* \"#utility.yul\":14473:14544   */\n      tag_310\n        /* \"#utility.yul\":14541:14542   */\n      0x00\n        /* \"#utility.yul\":14530:14539   */\n      dup4\n        /* \"#utility.yul\":14526:14543   */\n      add\n        /* \"#utility.yul\":14517:14523   */\n      dup6\n        /* \"#utility.yul\":14473:14544   */\n      tag_146\n      jump\t// in\n    tag_310:\n        /* \"#utility.yul\":14554:14626   */\n      tag_311\n        /* \"#utility.yul\":14622:14624   */\n      0x20\n        /* \"#utility.yul\":14611:14620   */\n      dup4\n        /* \"#utility.yul\":14607:14625   */\n      add\n        /* \"#utility.yul\":14598:14604   */\n      dup5\n        /* \"#utility.yul\":14554:14626   */\n      tag_129\n      jump\t// in\n    tag_311:\n        /* \"#utility.yul\":14301:14633   */\n      swap4\n      swap3\n      pop\n      pop\n      pop\n      jump\t// out\n        /* \"#utility.yul\":14639:14971   */\n    tag_101:\n        /* \"#utility.yul\":14760:14764   */\n      0x00\n        /* \"#utility.yul\":14798:14800   */\n      0x40\n        /* \"#utility.yul\":14787:14796   */\n      dup3\n        /* \"#utility.yul\":14783:14801   */\n      add\n        /* \"#utility.yul\":14775:14801   */\n      swap1\n      pop\n        /* \"#utility.yul\":14811:14882   */\n      tag_313\n        /* \"#utility.yul\":14879:14880   */\n      0x00\n        /* \"#utility.yul\":14868:14877   */\n      dup4\n        /* \"#utility.yul\":14864:14881   */\n      add\n        /* \"#utility.yul\":14855:14861   */\n      dup6\n        /* \"#utility.yul\":14811:14882   */\n      tag_129\n      jump\t// in\n    tag_313:\n        /* \"#utility.yul\":14892:14964   */\n      tag_314\n        /* \"#utility.yul\":14960:14962   */\n      0x20\n        /* \"#utility.yul\":14949:14958   */\n      dup4\n        /* \"#utility.yul\":14945:14963   */\n      add\n        /* \"#utility.yul\":14936:14942   */\n      dup5\n        /* \"#utility.yul\":14892:14964   */\n      tag_129\n      jump\t// in\n    tag_314:\n        /* \"#utility.yul\":14639:14971   */\n      swap4\n      swap3\n      pop\n      pop\n      pop\n      jump\t// out\n\n    auxdata: 0xa26469706673582212205d14b7c33087a95e8c5375275840b1677c9f6df2d92e100f6fe407a18426e51764736f6c634300081e0033\n}\n",
				"bytecode": {
					"linkReferences": {},
					"object": "608060405234801561000f575f5ffd5b506040516113fa3803806113fa833981810160405281019061003191906102c7565b8060015f6101000a81548173ffffffffffffffffffffffffffffffffffffffff021916908373ffffffffffffffffffffffffffffffffffffffff16021790555062278d0060045f5f600381111561008b5761008a6102f2565b5b600381111561009d5761009c6102f2565b5b81526020019081526020015f20819055506276a70060045f600160038111156100c9576100c86102f2565b5b60038111156100db576100da6102f2565b5b81526020019081526020015f208190555062ed4e0060045f60026003811115610107576101066102f2565b5b6003811115610119576101186102f2565b5b81526020019081526020015f20819055506301e1338060045f600380811115610145576101446102f2565b5b6003811115610157576101566102f2565b5b81526020019081526020015f2081905550600a5f5f5f600381111561017f5761017e6102f2565b5b6003811115610191576101906102f2565b5b81526020019081526020015f2081905550600f5f5f600160038111156101ba576101b96102f2565b5b60038111156101cc576101cb6102f2565b5b81526020019081526020015f208190555060125f5f600260038111156101f5576101f46102f2565b5b6003811115610207576102066102f2565b5b81526020019081526020015f208190555060145f5f60038081111561022f5761022e6102f2565b5b6003811115610241576102406102f2565b5b81526020019081526020015f20819055505061031f565b5f5ffd5b5f73ffffffffffffffffffffffffffffffffffffffff82169050919050565b5f6102858261025c565b9050919050565b5f6102968261027b565b9050919050565b6102a68161028c565b81146102b0575f5ffd5b50565b5f815190506102c18161029d565b92915050565b5f602082840312156102dc576102db610258565b5b5f6102e9848285016102b3565b91505092915050565b7f4e487b71000000000000000000000000000000000000000000000000000000005f52602160045260245ffd5b6110ce8061032c5f395ff3fe608060405234801561000f575f5ffd5b506004361061007b575f3560e01c80632e1a7d4d116100595780632e1a7d4d146100fb5780634931fa751461011757806372f702f314610147578063b5d5b5fa146101655761007b565b80630ae355d31461007f57806310087fb1146100af5780631f1accb2146100cb575b5f5ffd5b61009960048036038101906100949190610952565b61019a565b6040516100a69190610995565b60405180910390f35b6100c960048036038101906100c491906109d8565b6101af565b005b6100e560048036038101906100e09190610952565b610506565b6040516100f29190610995565b60405180910390f35b61011560048036038101906101109190610a16565b61051a565b005b610131600480360381019061012c9190610952565b6107e8565b60405161013e9190610995565b60405180910390f35b61014f6107fd565b60405161015c9190610abb565b60405180910390f35b61017f600480360381019061017a9190610b0f565b610822565b60405161019196959493929190610b67565b60405180910390f35b6004602052805f5260405f205f915090505481565b5f82116101f1576040517f08c379a00000000000000000000000000000000000000000000000000000000081526004016101e890610c20565b60405180910390fd5b60015f9054906101000a900473ffffffffffffffffffffffffffffffffffffffff1673ffffffffffffffffffffffffffffffffffffffff166323b872dd3330856040518463ffffffff1660e01b815260040161024f93929190610c4d565b6020604051808303815f875af115801561026b573d5f5f3e3d5ffd5b505050506040513d601f19601f8201168201806040525081019061028f9190610cac565b6102ce576040517f08c379a00000000000000000000000000000000000000000000000000000000081526004016102c590610d21565b60405180910390fd5b5f6102d882610880565b90505f60045f8460038111156102f1576102f0610d3f565b5b600381111561030357610302610d3f565b5b81526020019081526020015f205490505f6101686001835f5f88600381111561032f5761032e610d3f565b5b600381111561034157610340610d3f565b5b81526020019081526020015f20546103599190610d99565b6103639190610d99565b61036d9190610e07565b90505f4290505f84826103809190610e37565b90505f6040518060c0016040528060025f3373ffffffffffffffffffffffffffffffffffffffff1673ffffffffffffffffffffffffffffffffffffffff1681526020019081526020015f2080549050815260200189815260200184815260200183815260200185815260200160011515815250905060025f3373ffffffffffffffffffffffffffffffffffffffff1673ffffffffffffffffffffffffffffffffffffffff1681526020019081526020015f2081908060018154018082558091505060019003905f5260205f2090600602015f909190919091505f820151815f01556020820151816001015560408201518160020155606082015181600301556080820151816004015560a0820151816005015f6101000a81548160ff02191690831515021790555050503373ffffffffffffffffffffffffffffffffffffffff167fbde7f0ba1630d25515c7ab99ba47d5640b7ffb4c673b2a5464ae6791955892988989856040516104f493929190610eb0565b60405180910390a25050505050505050565b5f602052805f5260405f205f915090505481565b60025f3373ffffffffffffffffffffffffffffffffffffffff1673ffffffffffffffffffffffffffffffffffffffff1681526020019081526020015f2080549050811061059c576040517f08c379a000000000000000000000000000000000000000000000000000000000815260040161059390610f2f565b60405180910390fd5b5f60025f3373ffffffffffffffffffffffffffffffffffffffff1673ffffffffffffffffffffffffffffffffffffffff1681526020019081526020015f2082815481106105ec576105eb610f4d565b5b905f5260205f2090600602019050806005015f9054906101000a900460ff1661064a576040517f08c379a000000000000000000000000000000000000000000000000000000000815260040161064190610fc4565b60405180910390fd5b8060030154421015610691576040517f08c379a00000000000000000000000000000000000000000000000000000000081526004016106889061102c565b60405180910390fd5b5f816005015f6101000a81548160ff0219169083151502179055505f670de0b6b3a76400006064836004015484600101546106cc9190610d99565b6106d69190610e07565b6106e09190610e07565b90505f8183600101546106f39190610e37565b905060015f9054906101000a900473ffffffffffffffffffffffffffffffffffffffff1673ffffffffffffffffffffffffffffffffffffffff1663a9059cbb33836040518363ffffffff1660e01b815260040161075192919061104a565b6020604051808303815f875af115801561076d573d5f5f3e3d5ffd5b505050506040513d601f19601f820116820180604052508101906107919190610cac565b503373ffffffffffffffffffffffffffffffffffffffff167f92ccf450a286a957af52509bc1c9939d1a6a481783e142e41e2499f0bb66ebc682866040516107da929190611071565b60405180910390a250505050565b6003602052805f5260405f205f915090505481565b60015f9054906101000a900473ffffffffffffffffffffffffffffffffffffffff1681565b6002602052815f5260405f20818154811061083b575f80fd5b905f5260205f2090600602015f9150915050805f015490806001015490806002015490806003015490806004015490806005015f9054906101000a900460ff16905086565b5f5f600381111561089457610893610d3f565b5b8260038111156108a7576108a6610d3f565b5b036108b557603c9050610926565b600160038111156108c9576108c8610d3f565b5b8260038111156108dc576108db610d3f565b5b036108ea5760b49050610926565b600260038111156108fe576108fd610d3f565b5b82600381111561091157610910610d3f565b5b036109205761012c9050610926565b61025890505b919050565b5f5ffd5b6004811061093b575f5ffd5b50565b5f8135905061094c8161092f565b92915050565b5f602082840312156109675761096661092b565b5b5f6109748482850161093e565b91505092915050565b5f819050919050565b61098f8161097d565b82525050565b5f6020820190506109a85f830184610986565b92915050565b6109b78161097d565b81146109c1575f5ffd5b50565b5f813590506109d2816109ae565b92915050565b5f5f604083850312156109ee576109ed61092b565b5b5f6109fb858286016109c4565b9250506020610a0c8582860161093e565b9150509250929050565b5f60208284031215610a2b57610a2a61092b565b5b5f610a38848285016109c4565b91505092915050565b5f73ffffffffffffffffffffffffffffffffffffffff82169050919050565b5f819050919050565b5f610a83610a7e610a7984610a41565b610a60565b610a41565b9050919050565b5f610a9482610a69565b9050919050565b5f610aa582610a8a565b9050919050565b610ab581610a9b565b82525050565b5f602082019050610ace5f830184610aac565b92915050565b5f610ade82610a41565b9050919050565b610aee81610ad4565b8114610af8575f5ffd5b50565b5f81359050610b0981610ae5565b92915050565b5f5f60408385031215610b2557610b2461092b565b5b5f610b3285828601610afb565b9250506020610b43858286016109c4565b9150509250929050565b5f8115159050919050565b610b6181610b4d565b82525050565b5f60c082019050610b7a5f830189610986565b610b876020830188610986565b610b946040830187610986565b610ba16060830186610986565b610bae6080830185610986565b610bbb60a0830184610b58565b979650505050505050565b5f82825260208201905092915050565b7f616d6f756e74206d7573742062652067726561746572207468616e207a65726f5f82015250565b5f610c0a602083610bc6565b9150610c1582610bd6565b602082019050919050565b5f6020820190508181035f830152610c3781610bfe565b9050919050565b610c4781610ad4565b82525050565b5f606082019050610c605f830186610c3e565b610c6d6020830185610c3e565b610c7a6040830184610986565b949350505050565b610c8b81610b4d565b8114610c95575f5ffd5b50565b5f81519050610ca681610c82565b92915050565b5f60208284031215610cc157610cc061092b565b5b5f610cce84828501610c98565b91505092915050565b7f5472616e73666572206661696c656400000000000000000000000000000000005f82015250565b5f610d0b600f83610bc6565b9150610d1682610cd7565b602082019050919050565b5f6020820190508181035f830152610d3881610cff565b9050919050565b7f4e487b71000000000000000000000000000000000000000000000000000000005f52602160045260245ffd5b7f4e487b71000000000000000000000000000000000000000000000000000000005f52601160045260245ffd5b5f610da38261097d565b9150610dae8361097d565b9250828202610dbc8161097d565b91508282048414831517610dd357610dd2610d6c565b5b5092915050565b7f4e487b71000000000000000000000000000000000000000000000000000000005f52601260045260245ffd5b5f610e118261097d565b9150610e1c8361097d565b925082610e2c57610e2b610dda565b5b828204905092915050565b5f610e418261097d565b9150610e4c8361097d565b9250828201905080821115610e6457610e63610d6c565b5b92915050565b60048110610e7b57610e7a610d3f565b5b50565b5f819050610e8b82610e6a565b919050565b5f610e9a82610e7e565b9050919050565b610eaa81610e90565b82525050565b5f606082019050610ec35f830186610986565b610ed06020830185610ea1565b610edd6040830184610986565b949350505050565b7f496e76616c6964207374616b6520696e646578000000000000000000000000005f82015250565b5f610f19601383610bc6565b9150610f2482610ee5565b602082019050919050565b5f6020820190508181035f830152610f4681610f0d565b9050919050565b7f4e487b71000000000000000000000000000000000000000000000000000000005f52603260045260245ffd5b7f73746b206973206e6f74206163746976650000000000000000000000000000005f82015250565b5f610fae601183610bc6565b9150610fb982610f7a565b602082019050919050565b5f6020820190508181035f830152610fdb81610fa2565b9050919050565b7f5374616b696e6720706572696f64206973206e6f74206f7665720000000000005f82015250565b5f611016601a83610bc6565b915061102182610fe2565b602082019050919050565b5f6020820190508181035f8301526110438161100a565b9050919050565b5f60408201905061105d5f830185610c3e565b61106a6020830184610986565b9392505050565b5f6040820190506110845f830185610986565b6110916020830184610986565b939250505056fea26469706673582212205d14b7c33087a95e8c5375275840b1677c9f6df2d92e100f6fe407a18426e51764736f6c634300081e0033",
					"opcodes": "PUSH1 0x80 PUSH1 0x40 MSTORE CALLVALUE DUP1 ISZERO PUSH2 0xF JUMPI PUSH0 PUSH0 REVERT JUMPDEST POP PUSH1 0x40 MLOAD PUSH2 0x13FA CODESIZE SUB DUP1 PUSH2 0x13FA DUP4 CODECOPY DUP2 DUP2 ADD PUSH1 0x40 MSTORE DUP2 ADD SWAP1 PUSH2 0x31 SWAP2 SWAP1 PUSH2 0x2C7 JUMP JUMPDEST DUP1 PUSH1 0x1 PUSH0 PUSH2 0x100 EXP DUP2 SLOAD DUP2 PUSH20 0xFFFFFFFFFFFFFFFFFFFFFFFFFFFFFFFFFFFFFFFF MUL NOT AND SWAP1 DUP4 PUSH20 0xFFFFFFFFFFFFFFFFFFFFFFFFFFFFFFFFFFFFFFFF AND MUL OR SWAP1 SSTORE POP PUSH3 0x278D00 PUSH1 0x4 PUSH0 PUSH0 PUSH1 0x3 DUP2 GT ISZERO PUSH2 0x8B JUMPI PUSH2 0x8A PUSH2 0x2F2 JUMP JUMPDEST JUMPDEST PUSH1 0x3 DUP2 GT ISZERO PUSH2 0x9D JUMPI PUSH2 0x9C PUSH2 0x2F2 JUMP JUMPDEST JUMPDEST DUP2 MSTORE PUSH1 0x20 ADD SWAP1 DUP2 MSTORE PUSH1 0x20 ADD PUSH0 KECCAK256 DUP2 SWAP1 SSTORE POP PUSH3 0x76A700 PUSH1 0x4 PUSH0 PUSH1 0x1 PUSH1 0x3 DUP2 GT ISZERO PUSH2 0xC9 JUMPI PUSH2 0xC8 PUSH2 0x2F2 JUMP JUMPDEST JUMPDEST PUSH1 0x3 DUP2 GT ISZERO PUSH2 0xDB JUMPI PUSH2 0xDA PUSH2 0x2F2 JUMP JUMPDEST JUMPDEST DUP2 MSTORE PUSH1 0x20 ADD SWAP1 DUP2 MSTORE PUSH1 0x20 ADD PUSH0 KECCAK256 DUP2 SWAP1 SSTORE POP PUSH3 0xED4E00 PUSH1 0x4 PUSH0 PUSH1 0x2 PUSH1 0x3 DUP2 GT ISZERO PUSH2 0x107 JUMPI PUSH2 0x106 PUSH2 0x2F2 JUMP JUMPDEST JUMPDEST PUSH1 0x3 DUP2 GT ISZERO PUSH2 0x119 JUMPI PUSH2 0x118 PUSH2 0x2F2 JUMP JUMPDEST JUMPDEST DUP2 MSTORE PUSH1 0x20 ADD SWAP1 DUP2 MSTORE PUSH1 0x20 ADD PUSH0 KECCAK256 DUP2 SWAP1 SSTORE POP PUSH4 0x1E13380 PUSH1 0x4 PUSH0 PUSH1 0x3 DUP1 DUP2 GT ISZERO PUSH2 0x145 JUMPI PUSH2 0x144 PUSH2 0x2F2 JUMP JUMPDEST JUMPDEST PUSH1 0x3 DUP2 GT ISZERO PUSH2 0x157 JUMPI PUSH2 0x156 PUSH2 0x2F2 JUMP JUMPDEST JUMPDEST DUP2 MSTORE PUSH1 0x20 ADD SWAP1 DUP2 MSTORE PUSH1 0x20 ADD PUSH0 KECCAK256 DUP2 SWAP1 SSTORE POP PUSH1 0xA PUSH0 PUSH0 PUSH0 PUSH1 0x3 DUP2 GT ISZERO PUSH2 0x17F JUMPI PUSH2 0x17E PUSH2 0x2F2 JUMP JUMPDEST JUMPDEST PUSH1 0x3 DUP2 GT ISZERO PUSH2 0x191 JUMPI PUSH2 0x190 PUSH2 0x2F2 JUMP JUMPDEST JUMPDEST DUP2 MSTORE PUSH1 0x20 ADD SWAP1 DUP2 MSTORE PUSH1 0x20 ADD PUSH0 KECCAK256 DUP2 SWAP1 SSTORE POP PUSH1 0xF PUSH0 PUSH0 PUSH1 0x1 PUSH1 0x3 DUP2 GT ISZERO PUSH2 0x1BA JUMPI PUSH2 0x1B9 PUSH2 0x2F2 JUMP JUMPDEST JUMPDEST PUSH1 0x3 DUP2 GT ISZERO PUSH2 0x1CC JUMPI PUSH2 0x1CB PUSH2 0x2F2 JUMP JUMPDEST JUMPDEST DUP2 MSTORE PUSH1 0x20 ADD SWAP1 DUP2 MSTORE PUSH1 0x20 ADD PUSH0 KECCAK256 DUP2 SWAP1 SSTORE POP PUSH1 0x12 PUSH0 PUSH0 PUSH1 0x2 PUSH1 0x3 DUP2 GT ISZERO PUSH2 0x1F5 JUMPI PUSH2 0x1F4 PUSH2 0x2F2 JUMP JUMPDEST JUMPDEST PUSH1 0x3 DUP2 GT ISZERO PUSH2 0x207 JUMPI PUSH2 0x206 PUSH2 0x2F2 JUMP JUMPDEST JUMPDEST DUP2 MSTORE PUSH1 0x20 ADD SWAP1 DUP2 MSTORE PUSH1 0x20 ADD PUSH0 KECCAK256 DUP2 SWAP1 SSTORE POP PUSH1 0x14 PUSH0 PUSH0 PUSH1 0x3 DUP1 DUP2 GT ISZERO PUSH2 0x22F JUMPI PUSH2 0x22E PUSH2 0x2F2 JUMP JUMPDEST JUMPDEST PUSH1 0x3 DUP2 GT ISZERO PUSH2 0x241 JUMPI PUSH2 0x240 PUSH2 0x2F2 JUMP JUMPDEST JUMPDEST DUP2 MSTORE PUSH1 0x20 ADD SWAP1 DUP2 MSTORE PUSH1 0x20 ADD PUSH0 KECCAK256 DUP2 SWAP1 SSTORE POP POP PUSH2 0x31F JUMP JUMPDEST PUSH0 PUSH0 REVERT JUMPDEST PUSH0 PUSH20 0xFFFFFFFFFFFFFFFFFFFFFFFFFFFFFFFFFFFFFFFF DUP3 AND SWAP1 POP SWAP2 SWAP1 POP JUMP JUMPDEST PUSH0 PUSH2 0x285 DUP3 PUSH2 0x25C JUMP JUMPDEST SWAP1 POP SWAP2 SWAP1 POP JUMP JUMPDEST PUSH0 PUSH2 0x296 DUP3 PUSH2 0x27B JUMP JUMPDEST SWAP1 POP SWAP2 SWAP1 POP JUMP JUMPDEST PUSH2 0x2A6 DUP2 PUSH2 0x28C JUMP JUMPDEST DUP2 EQ PUSH2 0x2B0 JUMPI PUSH0 PUSH0 REVERT JUMPDEST POP JUMP JUMPDEST PUSH0 DUP2 MLOAD SWAP1 POP PUSH2 0x2C1 DUP2 PUSH2 0x29D JUMP JUMPDEST SWAP3 SWAP2 POP POP JUMP JUMPDEST PUSH0 PUSH1 0x20 DUP3 DUP5 SUB SLT ISZERO PUSH2 0x2DC JUMPI PUSH2 0x2DB PUSH2 0x258 JUMP JUMPDEST JUMPDEST PUSH0 PUSH2 0x2E9 DUP5 DUP3 DUP6 ADD PUSH2 0x2B3 JUMP JUMPDEST SWAP2 POP POP SWAP3 SWAP2 POP POP JUMP JUMPDEST PUSH32 0x4E487B7100000000000000000000000000000000000000000000000000000000 PUSH0 MSTORE PUSH1 0x21 PUSH1 0x4 MSTORE PUSH1 0x24 PUSH0 REVERT JUMPDEST PUSH2 0x10CE DUP1 PUSH2 0x32C PUSH0 CODECOPY PUSH0 RETURN INVALID PUSH1 0x80 PUSH1 0x40 MSTORE CALLVALUE DUP1 ISZERO PUSH2 0xF JUMPI PUSH0 PUSH0 REVERT JUMPDEST POP PUSH1 0x4 CALLDATASIZE LT PUSH2 0x7B JUMPI PUSH0 CALLDATALOAD PUSH1 0xE0 SHR DUP1 PUSH4 0x2E1A7D4D GT PUSH2 0x59 JUMPI DUP1 PUSH4 0x2E1A7D4D EQ PUSH2 0xFB JUMPI DUP1 PUSH4 0x4931FA75 EQ PUSH2 0x117 JUMPI DUP1 PUSH4 0x72F702F3 EQ PUSH2 0x147 JUMPI DUP1 PUSH4 0xB5D5B5FA EQ PUSH2 0x165 JUMPI PUSH2 0x7B JUMP JUMPDEST DUP1 PUSH4 0xAE355D3 EQ PUSH2 0x7F JUMPI DUP1 PUSH4 0x10087FB1 EQ PUSH2 0xAF JUMPI DUP1 PUSH4 0x1F1ACCB2 EQ PUSH2 0xCB JUMPI JUMPDEST PUSH0 PUSH0 REVERT JUMPDEST PUSH2 0x99 PUSH1 0x4 DUP1 CALLDATASIZE SUB DUP2 ADD SWAP1 PUSH2 0x94 SWAP2 SWAP1 PUSH2 0x952 JUMP JUMPDEST PUSH2 0x19A JUMP JUMPDEST PUSH1 0x40 MLOAD PUSH2 0xA6 SWAP2 SWAP1 PUSH2 0x995 JUMP JUMPDEST PUSH1 0x40 MLOAD DUP1 SWAP2 SUB SWAP1 RETURN JUMPDEST PUSH2 0xC9 PUSH1 0x4 DUP1 CALLDATASIZE SUB DUP2 ADD SWAP1 PUSH2 0xC4 SWAP2 SWAP1 PUSH2 0x9D8 JUMP JUMPDEST PUSH2 0x1AF JUMP JUMPDEST STOP JUMPDEST PUSH2 0xE5 PUSH1 0x4 DUP1 CALLDATASIZE SUB DUP2 ADD SWAP1 PUSH2 0xE0 SWAP2 SWAP1 PUSH2 0x952 JUMP JUMPDEST PUSH2 0x506 JUMP JUMPDEST PUSH1 0x40 MLOAD PUSH2 0xF2 SWAP2 SWAP1 PUSH2 0x995 JUMP JUMPDEST PUSH1 0x40 MLOAD DUP1 SWAP2 SUB SWAP1 RETURN JUMPDEST PUSH2 0x115 PUSH1 0x4 DUP1 CALLDATASIZE SUB DUP2 ADD SWAP1 PUSH2 0x110 SWAP2 SWAP1 PUSH2 0xA16 JUMP JUMPDEST PUSH2 0x51A JUMP JUMPDEST STOP JUMPDEST PUSH2 0x131 PUSH1 0x4 DUP1 CALLDATASIZE SUB DUP2 ADD SWAP1 PUSH2 0x12C SWAP2 SWAP1 PUSH2 0x952 JUMP JUMPDEST PUSH2 0x7E8 JUMP JUMPDEST PUSH1 0x40 MLOAD PUSH2 0x13E SWAP2 SWAP1 PUSH2 0x995 JUMP JUMPDEST PUSH1 0x40 MLOAD DUP1 SWAP2 SUB SWAP1 RETURN JUMPDEST PUSH2 0x14F PUSH2 0x7FD JUMP JUMPDEST PUSH1 0x40 MLOAD PUSH2 0x15C SWAP2 SWAP1 PUSH2 0xABB JUMP JUMPDEST PUSH1 0x40 MLOAD DUP1 SWAP2 SUB SWAP1 RETURN JUMPDEST PUSH2 0x17F PUSH1 0x4 DUP1 CALLDATASIZE SUB DUP2 ADD SWAP1 PUSH2 0x17A SWAP2 SWAP1 PUSH2 0xB0F JUMP JUMPDEST PUSH2 0x822 JUMP JUMPDEST PUSH1 0x40 MLOAD PUSH2 0x191 SWAP7 SWAP6 SWAP5 SWAP4 SWAP3 SWAP2 SWAP1 PUSH2 0xB67 JUMP JUMPDEST PUSH1 0x40 MLOAD DUP1 SWAP2 SUB SWAP1 RETURN JUMPDEST PUSH1 0x4 PUSH1 0x20 MSTORE DUP1 PUSH0 MSTORE PUSH1 0x40 PUSH0 KECCAK256 PUSH0 SWAP2 POP SWAP1 POP SLOAD DUP2 JUMP JUMPDEST PUSH0 DUP3 GT PUSH2 0x1F1 JUMPI PUSH1 0x40 MLOAD PUSH32 0x8C379A000000000000000000000000000000000000000000000000000000000 DUP2 MSTORE PUSH1 0x4 ADD PUSH2 0x1E8 SWAP1 PUSH2 0xC20 JUMP JUMPDEST PUSH1 0x40 MLOAD DUP1 SWAP2 SUB SWAP1 REVERT JUMPDEST PUSH1 0x1 PUSH0 SWAP1 SLOAD SWAP1 PUSH2 0x100 EXP SWAP1 DIV PUSH20 0xFFFFFFFFFFFFFFFFFFFFFFFFFFFFFFFFFFFFFFFF AND PUSH20 0xFFFFFFFFFFFFFFFFFFFFFFFFFFFFFFFFFFFFFFFF AND PUSH4 0x23B872DD CALLER ADDRESS DUP6 PUSH1 0x40 MLOAD DUP5 PUSH4 0xFFFFFFFF AND PUSH1 0xE0 SHL DUP2 MSTORE PUSH1 0x4 ADD PUSH2 0x24F SWAP4 SWAP3 SWAP2 SWAP1 PUSH2 0xC4D JUMP JUMPDEST PUSH1 0x20 PUSH1 0x40 MLOAD DUP1 DUP4 SUB DUP2 PUSH0 DUP8 GAS CALL ISZERO DUP1 ISZERO PUSH2 0x26B JUMPI RETURNDATASIZE PUSH0 PUSH0 RETURNDATACOPY RETURNDATASIZE PUSH0 REVERT JUMPDEST POP POP POP POP PUSH1 0x40 MLOAD RETURNDATASIZE PUSH1 0x1F NOT PUSH1 0x1F DUP3 ADD AND DUP3 ADD DUP1 PUSH1 0x40 MSTORE POP DUP2 ADD SWAP1 PUSH2 0x28F SWAP2 SWAP1 PUSH2 0xCAC JUMP JUMPDEST PUSH2 0x2CE JUMPI PUSH1 0x40 MLOAD PUSH32 0x8C379A000000000000000000000000000000000000000000000000000000000 DUP2 MSTORE PUSH1 0x4 ADD PUSH2 0x2C5 SWAP1 PUSH2 0xD21 JUMP JUMPDEST PUSH1 0x40 MLOAD DUP1 SWAP2 SUB SWAP1 REVERT JUMPDEST PUSH0 PUSH2 0x2D8 DUP3 PUSH2 0x880 JUMP JUMPDEST SWAP1 POP PUSH0 PUSH1 0x4 PUSH0 DUP5 PUSH1 0x3 DUP2 GT ISZERO PUSH2 0x2F1 JUMPI PUSH2 0x2F0 PUSH2 0xD3F JUMP JUMPDEST JUMPDEST PUSH1 0x3 DUP2 GT ISZERO PUSH2 0x303 JUMPI PUSH2 0x302 PUSH2 0xD3F JUMP JUMPDEST JUMPDEST DUP2 MSTORE PUSH1 0x20 ADD SWAP1 DUP2 MSTORE PUSH1 0x20 ADD PUSH0 KECCAK256 SLOAD SWAP1 POP PUSH0 PUSH2 0x168 PUSH1 0x1 DUP4 PUSH0 PUSH0 DUP9 PUSH1 0x3 DUP2 GT ISZERO PUSH2 0x32F JUMPI PUSH2 0x32E PUSH2 0xD3F JUMP JUMPDEST JUMPDEST PUSH1 0x3 DUP2 GT ISZERO PUSH2 0x341 JUMPI PUSH2 0x340 PUSH2 0xD3F JUMP JUMPDEST JUMPDEST DUP2 MSTORE PUSH1 0x20 ADD SWAP1 DUP2 MSTORE PUSH1 0x20 ADD PUSH0 KECCAK256 SLOAD PUSH2 0x359 SWAP2 SWAP1 PUSH2 0xD99 JUMP JUMPDEST PUSH2 0x363 SWAP2 SWAP1 PUSH2 0xD99 JUMP JUMPDEST PUSH2 0x36D SWAP2 SWAP1 PUSH2 0xE07 JUMP JUMPDEST SWAP1 POP PUSH0 TIMESTAMP SWAP1 POP PUSH0 DUP5 DUP3 PUSH2 0x380 SWAP2 SWAP1 PUSH2 0xE37 JUMP JUMPDEST SWAP1 POP PUSH0 PUSH1 0x40 MLOAD DUP1 PUSH1 0xC0 ADD PUSH1 0x40 MSTORE DUP1 PUSH1 0x2 PUSH0 CALLER PUSH20 0xFFFFFFFFFFFFFFFFFFFFFFFFFFFFFFFFFFFFFFFF AND PUSH20 0xFFFFFFFFFFFFFFFFFFFFFFFFFFFFFFFFFFFFFFFF AND DUP2 MSTORE PUSH1 0x20 ADD SWAP1 DUP2 MSTORE PUSH1 0x20 ADD PUSH0 KECCAK256 DUP1 SLOAD SWAP1 POP DUP2 MSTORE PUSH1 0x20 ADD DUP10 DUP2 MSTORE PUSH1 0x20 ADD DUP5 DUP2 MSTORE PUSH1 0x20 ADD DUP4 DUP2 MSTORE PUSH1 0x20 ADD DUP6 DUP2 MSTORE PUSH1 0x20 ADD PUSH1 0x1 ISZERO ISZERO DUP2 MSTORE POP SWAP1 POP PUSH1 0x2 PUSH0 CALLER PUSH20 0xFFFFFFFFFFFFFFFFFFFFFFFFFFFFFFFFFFFFFFFF AND PUSH20 0xFFFFFFFFFFFFFFFFFFFFFFFFFFFFFFFFFFFFFFFF AND DUP2 MSTORE PUSH1 0x20 ADD SWAP1 DUP2 MSTORE PUSH1 0x20 ADD PUSH0 KECCAK256 DUP2 SWAP1 DUP1 PUSH1 0x1 DUP2 SLOAD ADD DUP1 DUP3 SSTORE DUP1 SWAP2 POP POP PUSH1 0x1 SWAP1 SUB SWAP1 PUSH0 MSTORE PUSH1 0x20 PUSH0 KECCAK256 SWAP1 PUSH1 0x6 MUL ADD PUSH0 SWAP1 SWAP2 SWAP1 SWAP2 SWAP1 SWAP2 POP PUSH0 DUP3 ADD MLOAD DUP2 PUSH0 ADD SSTORE PUSH1 0x20 DUP3 ADD MLOAD DUP2 PUSH1 0x1 ADD SSTORE PUSH1 0x40 DUP3 ADD MLOAD DUP2 PUSH1 0x2 ADD SSTORE PUSH1 0x60 DUP3 ADD MLOAD DUP2 PUSH1 0x3 ADD SSTORE PUSH1 0x80 DUP3 ADD MLOAD DUP2 PUSH1 0x4 ADD SSTORE PUSH1 0xA0 DUP3 ADD MLOAD DUP2 PUSH1 0x5 ADD PUSH0 PUSH2 0x100 EXP DUP2 SLOAD DUP2 PUSH1 0xFF MUL NOT AND SWAP1 DUP4 ISZERO ISZERO MUL OR SWAP1 SSTORE POP POP POP CALLER PUSH20 0xFFFFFFFFFFFFFFFFFFFFFFFFFFFFFFFFFFFFFFFF AND PUSH32 0xBDE7F0BA1630D25515C7AB99BA47D5640B7FFB4C673B2A5464AE679195589298 DUP10 DUP10 DUP6 PUSH1 0x40 MLOAD PUSH2 0x4F4 SWAP4 SWAP3 SWAP2 SWAP1 PUSH2 0xEB0 JUMP JUMPDEST PUSH1 0x40 MLOAD DUP1 SWAP2 SUB SWAP1 LOG2 POP POP POP POP POP POP POP POP JUMP JUMPDEST PUSH0 PUSH1 0x20 MSTORE DUP1 PUSH0 MSTORE PUSH1 0x40 PUSH0 KECCAK256 PUSH0 SWAP2 POP SWAP1 POP SLOAD DUP2 JUMP JUMPDEST PUSH1 0x2 PUSH0 CALLER PUSH20 0xFFFFFFFFFFFFFFFFFFFFFFFFFFFFFFFFFFFFFFFF AND PUSH20 0xFFFFFFFFFFFFFFFFFFFFFFFFFFFFFFFFFFFFFFFF AND DUP2 MSTORE PUSH1 0x20 ADD SWAP1 DUP2 MSTORE PUSH1 0x20 ADD PUSH0 KECCAK256 DUP1 SLOAD SWAP1 POP DUP2 LT PUSH2 0x59C JUMPI PUSH1 0x40 MLOAD PUSH32 0x8C379A000000000000000000000000000000000000000000000000000000000 DUP2 MSTORE PUSH1 0x4 ADD PUSH2 0x593 SWAP1 PUSH2 0xF2F JUMP JUMPDEST PUSH1 0x40 MLOAD DUP1 SWAP2 SUB SWAP1 REVERT JUMPDEST PUSH0 PUSH1 0x2 PUSH0 CALLER PUSH20 0xFFFFFFFFFFFFFFFFFFFFFFFFFFFFFFFFFFFFFFFF AND PUSH20 0xFFFFFFFFFFFFFFFFFFFFFFFFFFFFFFFFFFFFFFFF AND DUP2 MSTORE PUSH1 0x20 ADD SWAP1 DUP2 MSTORE PUSH1 0x20 ADD PUSH0 KECCAK256 DUP3 DUP2 SLOAD DUP2 LT PUSH2 0x5EC JUMPI PUSH2 0x5EB PUSH2 0xF4D JUMP JUMPDEST JUMPDEST SWAP1 PUSH0 MSTORE PUSH1 0x20 PUSH0 KECCAK256 SWAP1 PUSH1 0x6 MUL ADD SWAP1 POP DUP1 PUSH1 0x5 ADD PUSH0 SWAP1 SLOAD SWAP1 PUSH2 0x100 EXP SWAP1 DIV PUSH1 0xFF AND PUSH2 0x64A JUMPI PUSH1 0x40 MLOAD PUSH32 0x8C379A000000000000000000000000000000000000000000000000000000000 DUP2 MSTORE PUSH1 0x4 ADD PUSH2 0x641 SWAP1 PUSH2 0xFC4 JUMP JUMPDEST PUSH1 0x40 MLOAD DUP1 SWAP2 SUB SWAP1 REVERT JUMPDEST DUP1 PUSH1 0x3 ADD SLOAD TIMESTAMP LT ISZERO PUSH2 0x691 JUMPI PUSH1 0x40 MLOAD PUSH32 0x8C379A000000000000000000000000000000000000000000000000000000000 DUP2 MSTORE PUSH1 0x4 ADD PUSH2 0x688 SWAP1 PUSH2 0x102C JUMP JUMPDEST PUSH1 0x40 MLOAD DUP1 SWAP2 SUB SWAP1 REVERT JUMPDEST PUSH0 DUP2 PUSH1 0x5 ADD PUSH0 PUSH2 0x100 EXP DUP2 SLOAD DUP2 PUSH1 0xFF MUL NOT AND SWAP1 DUP4 ISZERO ISZERO MUL OR SWAP1 SSTORE POP PUSH0 PUSH8 0xDE0B6B3A7640000 PUSH1 0x64 DUP4 PUSH1 0x4 ADD SLOAD DUP5 PUSH1 0x1 ADD SLOAD PUSH2 0x6CC SWAP2 SWAP1 PUSH2 0xD99 JUMP JUMPDEST PUSH2 0x6D6 SWAP2 SWAP1 PUSH2 0xE07 JUMP JUMPDEST PUSH2 0x6E0 SWAP2 SWAP1 PUSH2 0xE07 JUMP JUMPDEST SWAP1 POP PUSH0 DUP2 DUP4 PUSH1 0x1 ADD SLOAD PUSH2 0x6F3 SWAP2 SWAP1 PUSH2 0xE37 JUMP JUMPDEST SWAP1 POP PUSH1 0x1 PUSH0 SWAP1 SLOAD SWAP1 PUSH2 0x100 EXP SWAP1 DIV PUSH20 0xFFFFFFFFFFFFFFFFFFFFFFFFFFFFFFFFFFFFFFFF AND PUSH20 0xFFFFFFFFFFFFFFFFFFFFFFFFFFFFFFFFFFFFFFFF AND PUSH4 0xA9059CBB CALLER DUP4 PUSH1 0x40 MLOAD DUP4 PUSH4 0xFFFFFFFF AND PUSH1 0xE0 SHL DUP2 MSTORE PUSH1 0x4 ADD PUSH2 0x751 SWAP3 SWAP2 SWAP1 PUSH2 0x104A JUMP JUMPDEST PUSH1 0x20 PUSH1 0x40 MLOAD DUP1 DUP4 SUB DUP2 PUSH0 DUP8 GAS CALL ISZERO DUP1 ISZERO PUSH2 0x76D JUMPI RETURNDATASIZE PUSH0 PUSH0 RETURNDATACOPY RETURNDATASIZE PUSH0 REVERT JUMPDEST POP POP POP POP PUSH1 0x40 MLOAD RETURNDATASIZE PUSH1 0x1F NOT PUSH1 0x1F DUP3 ADD AND DUP3 ADD DUP1 PUSH1 0x40 MSTORE POP DUP2 ADD SWAP1 PUSH2 0x791 SWAP2 SWAP1 PUSH2 0xCAC JUMP JUMPDEST POP CALLER PUSH20 0xFFFFFFFFFFFFFFFFFFFFFFFFFFFFFFFFFFFFFFFF AND PUSH32 0x92CCF450A286A957AF52509BC1C9939D1A6A481783E142E41E2499F0BB66EBC6 DUP3 DUP7 PUSH1 0x40 MLOAD PUSH2 0x7DA SWAP3 SWAP2 SWAP1 PUSH2 0x1071 JUMP JUMPDEST PUSH1 0x40 MLOAD DUP1 SWAP2 SUB SWAP1 LOG2 POP POP POP POP JUMP JUMPDEST PUSH1 0x3 PUSH1 0x20 MSTORE DUP1 PUSH0 MSTORE PUSH1 0x40 PUSH0 KECCAK256 PUSH0 SWAP2 POP SWAP1 POP SLOAD DUP2 JUMP JUMPDEST PUSH1 0x1 PUSH0 SWAP1 SLOAD SWAP1 PUSH2 0x100 EXP SWAP1 DIV PUSH20 0xFFFFFFFFFFFFFFFFFFFFFFFFFFFFFFFFFFFFFFFF AND DUP2 JUMP JUMPDEST PUSH1 0x2 PUSH1 0x20 MSTORE DUP2 PUSH0 MSTORE PUSH1 0x40 PUSH0 KECCAK256 DUP2 DUP2 SLOAD DUP2 LT PUSH2 0x83B JUMPI PUSH0 DUP1 REVERT JUMPDEST SWAP1 PUSH0 MSTORE PUSH1 0x20 PUSH0 KECCAK256 SWAP1 PUSH1 0x6 MUL ADD PUSH0 SWAP2 POP SWAP2 POP POP DUP1 PUSH0 ADD SLOAD SWAP1 DUP1 PUSH1 0x1 ADD SLOAD SWAP1 DUP1 PUSH1 0x2 ADD SLOAD SWAP1 DUP1 PUSH1 0x3 ADD SLOAD SWAP1 DUP1 PUSH1 0x4 ADD SLOAD SWAP1 DUP1 PUSH1 0x5 ADD PUSH0 SWAP1 SLOAD SWAP1 PUSH2 0x100 EXP SWAP1 DIV PUSH1 0xFF AND SWAP1 POP DUP7 JUMP JUMPDEST PUSH0 PUSH0 PUSH1 0x3 DUP2 GT ISZERO PUSH2 0x894 JUMPI PUSH2 0x893 PUSH2 0xD3F JUMP JUMPDEST JUMPDEST DUP3 PUSH1 0x3 DUP2 GT ISZERO PUSH2 0x8A7 JUMPI PUSH2 0x8A6 PUSH2 0xD3F JUMP JUMPDEST JUMPDEST SUB PUSH2 0x8B5 JUMPI PUSH1 0x3C SWAP1 POP PUSH2 0x926 JUMP JUMPDEST PUSH1 0x1 PUSH1 0x3 DUP2 GT ISZERO PUSH2 0x8C9 JUMPI PUSH2 0x8C8 PUSH2 0xD3F JUMP JUMPDEST JUMPDEST DUP3 PUSH1 0x3 DUP2 GT ISZERO PUSH2 0x8DC JUMPI PUSH2 0x8DB PUSH2 0xD3F JUMP JUMPDEST JUMPDEST SUB PUSH2 0x8EA JUMPI PUSH1 0xB4 SWAP1 POP PUSH2 0x926 JUMP JUMPDEST PUSH1 0x2 PUSH1 0x3 DUP2 GT ISZERO PUSH2 0x8FE JUMPI PUSH2 0x8FD PUSH2 0xD3F JUMP JUMPDEST JUMPDEST DUP3 PUSH1 0x3 DUP2 GT ISZERO PUSH2 0x911 JUMPI PUSH2 0x910 PUSH2 0xD3F JUMP JUMPDEST JUMPDEST SUB PUSH2 0x920 JUMPI PUSH2 0x12C SWAP1 POP PUSH2 0x926 JUMP JUMPDEST PUSH2 0x258 SWAP1 POP JUMPDEST SWAP2 SWAP1 POP JUMP JUMPDEST PUSH0 PUSH0 REVERT JUMPDEST PUSH1 0x4 DUP2 LT PUSH2 0x93B JUMPI PUSH0 PUSH0 REVERT JUMPDEST POP JUMP JUMPDEST PUSH0 DUP2 CALLDATALOAD SWAP1 POP PUSH2 0x94C DUP2 PUSH2 0x92F JUMP JUMPDEST SWAP3 SWAP2 POP POP JUMP JUMPDEST PUSH0 PUSH1 0x20 DUP3 DUP5 SUB SLT ISZERO PUSH2 0x967 JUMPI PUSH2 0x966 PUSH2 0x92B JUMP JUMPDEST JUMPDEST PUSH0 PUSH2 0x974 DUP5 DUP3 DUP6 ADD PUSH2 0x93E JUMP JUMPDEST SWAP2 POP POP SWAP3 SWAP2 POP POP JUMP JUMPDEST PUSH0 DUP2 SWAP1 POP SWAP2 SWAP1 POP JUMP JUMPDEST PUSH2 0x98F DUP2 PUSH2 0x97D JUMP JUMPDEST DUP3 MSTORE POP POP JUMP JUMPDEST PUSH0 PUSH1 0x20 DUP3 ADD SWAP1 POP PUSH2 0x9A8 PUSH0 DUP4 ADD DUP5 PUSH2 0x986 JUMP JUMPDEST SWAP3 SWAP2 POP POP JUMP JUMPDEST PUSH2 0x9B7 DUP2 PUSH2 0x97D JUMP JUMPDEST DUP2 EQ PUSH2 0x9C1 JUMPI PUSH0 PUSH0 REVERT JUMPDEST POP JUMP JUMPDEST PUSH0 DUP2 CALLDATALOAD SWAP1 POP PUSH2 0x9D2 DUP2 PUSH2 0x9AE JUMP JUMPDEST SWAP3 SWAP2 POP POP JUMP JUMPDEST PUSH0 PUSH0 PUSH1 0x40 DUP4 DUP6 SUB SLT ISZERO PUSH2 0x9EE JUMPI PUSH2 0x9ED PUSH2 0x92B JUMP JUMPDEST JUMPDEST PUSH0 PUSH2 0x9FB DUP6 DUP3 DUP7 ADD PUSH2 0x9C4 JUMP JUMPDEST SWAP3 POP POP PUSH1 0x20 PUSH2 0xA0C DUP6 DUP3 DUP7 ADD PUSH2 0x93E JUMP JUMPDEST SWAP2 POP POP SWAP3 POP SWAP3 SWAP1 POP JUMP JUMPDEST PUSH0 PUSH1 0x20 DUP3 DUP5 SUB SLT ISZERO PUSH2 0xA2B JUMPI PUSH2 0xA2A PUSH2 0x92B JUMP JUMPDEST JUMPDEST PUSH0 PUSH2 0xA38 DUP5 DUP3 DUP6 ADD PUSH2 0x9C4 JUMP JUMPDEST SWAP2 POP POP SWAP3 SWAP2 POP POP JUMP JUMPDEST PUSH0 PUSH20 0xFFFFFFFFFFFFFFFFFFFFFFFFFFFFFFFFFFFFFFFF DUP3 AND SWAP1 POP SWAP2 SWAP1 POP JUMP JUMPDEST PUSH0 DUP2 SWAP1 POP SWAP2 SWAP1 POP JUMP JUMPDEST PUSH0 PUSH2 0xA83 PUSH2 0xA7E PUSH2 0xA79 DUP5 PUSH2 0xA41 JUMP JUMPDEST PUSH2 0xA60 JUMP JUMPDEST PUSH2 0xA41 JUMP JUMPDEST SWAP1 POP SWAP2 SWAP1 POP JUMP JUMPDEST PUSH0 PUSH2 0xA94 DUP3 PUSH2 0xA69 JUMP JUMPDEST SWAP1 POP SWAP2 SWAP1 POP JUMP JUMPDEST PUSH0 PUSH2 0xAA5 DUP3 PUSH2 0xA8A JUMP JUMPDEST SWAP1 POP SWAP2 SWAP1 POP JUMP JUMPDEST PUSH2 0xAB5 DUP2 PUSH2 0xA9B JUMP JUMPDEST DUP3 MSTORE POP POP JUMP JUMPDEST PUSH0 PUSH1 0x20 DUP3 ADD SWAP1 POP PUSH2 0xACE PUSH0 DUP4 ADD DUP5 PUSH2 0xAAC JUMP JUMPDEST SWAP3 SWAP2 POP POP JUMP JUMPDEST PUSH0 PUSH2 0xADE DUP3 PUSH2 0xA41 JUMP JUMPDEST SWAP1 POP SWAP2 SWAP1 POP JUMP JUMPDEST PUSH2 0xAEE DUP2 PUSH2 0xAD4 JUMP JUMPDEST DUP2 EQ PUSH2 0xAF8 JUMPI PUSH0 PUSH0 REVERT JUMPDEST POP JUMP JUMPDEST PUSH0 DUP2 CALLDATALOAD SWAP1 POP PUSH2 0xB09 DUP2 PUSH2 0xAE5 JUMP JUMPDEST SWAP3 SWAP2 POP POP JUMP JUMPDEST PUSH0 PUSH0 PUSH1 0x40 DUP4 DUP6 SUB SLT ISZERO PUSH2 0xB25 JUMPI PUSH2 0xB24 PUSH2 0x92B JUMP JUMPDEST JUMPDEST PUSH0 PUSH2 0xB32 DUP6 DUP3 DUP7 ADD PUSH2 0xAFB JUMP JUMPDEST SWAP3 POP POP PUSH1 0x20 PUSH2 0xB43 DUP6 DUP3 DUP7 ADD PUSH2 0x9C4 JUMP JUMPDEST SWAP2 POP POP SWAP3 POP SWAP3 SWAP1 POP JUMP JUMPDEST PUSH0 DUP2 ISZERO ISZERO SWAP1 POP SWAP2 SWAP1 POP JUMP JUMPDEST PUSH2 0xB61 DUP2 PUSH2 0xB4D JUMP JUMPDEST DUP3 MSTORE POP POP JUMP JUMPDEST PUSH0 PUSH1 0xC0 DUP3 ADD SWAP1 POP PUSH2 0xB7A PUSH0 DUP4 ADD DUP10 PUSH2 0x986 JUMP JUMPDEST PUSH2 0xB87 PUSH1 0x20 DUP4 ADD DUP9 PUSH2 0x986 JUMP JUMPDEST PUSH2 0xB94 PUSH1 0x40 DUP4 ADD DUP8 PUSH2 0x986 JUMP JUMPDEST PUSH2 0xBA1 PUSH1 0x60 DUP4 ADD DUP7 PUSH2 0x986 JUMP JUMPDEST PUSH2 0xBAE PUSH1 0x80 DUP4 ADD DUP6 PUSH2 0x986 JUMP JUMPDEST PUSH2 0xBBB PUSH1 0xA0 DUP4 ADD DUP5 PUSH2 0xB58 JUMP JUMPDEST SWAP8 SWAP7 POP POP POP POP POP POP POP JUMP JUMPDEST PUSH0 DUP3 DUP3 MSTORE PUSH1 0x20 DUP3 ADD SWAP1 POP SWAP3 SWAP2 POP POP JUMP JUMPDEST PUSH32 0x616D6F756E74206D7573742062652067726561746572207468616E207A65726F PUSH0 DUP3 ADD MSTORE POP JUMP JUMPDEST PUSH0 PUSH2 0xC0A PUSH1 0x20 DUP4 PUSH2 0xBC6 JUMP JUMPDEST SWAP2 POP PUSH2 0xC15 DUP3 PUSH2 0xBD6 JUMP JUMPDEST PUSH1 0x20 DUP3 ADD SWAP1 POP SWAP2 SWAP1 POP JUMP JUMPDEST PUSH0 PUSH1 0x20 DUP3 ADD SWAP1 POP DUP2 DUP2 SUB PUSH0 DUP4 ADD MSTORE PUSH2 0xC37 DUP2 PUSH2 0xBFE JUMP JUMPDEST SWAP1 POP SWAP2 SWAP1 POP JUMP JUMPDEST PUSH2 0xC47 DUP2 PUSH2 0xAD4 JUMP JUMPDEST DUP3 MSTORE POP POP JUMP JUMPDEST PUSH0 PUSH1 0x60 DUP3 ADD SWAP1 POP PUSH2 0xC60 PUSH0 DUP4 ADD DUP7 PUSH2 0xC3E JUMP JUMPDEST PUSH2 0xC6D PUSH1 0x20 DUP4 ADD DUP6 PUSH2 0xC3E JUMP JUMPDEST PUSH2 0xC7A PUSH1 0x40 DUP4 ADD DUP5 PUSH2 0x986 JUMP JUMPDEST SWAP5 SWAP4 POP POP POP POP JUMP JUMPDEST PUSH2 0xC8B DUP2 PUSH2 0xB4D JUMP JUMPDEST DUP2 EQ PUSH2 0xC95 JUMPI PUSH0 PUSH0 REVERT JUMPDEST POP JUMP JUMPDEST PUSH0 DUP2 MLOAD SWAP1 POP PUSH2 0xCA6 DUP2 PUSH2 0xC82 JUMP JUMPDEST SWAP3 SWAP2 POP POP JUMP JUMPDEST PUSH0 PUSH1 0x20 DUP3 DUP5 SUB SLT ISZERO PUSH2 0xCC1 JUMPI PUSH2 0xCC0 PUSH2 0x92B JUMP JUMPDEST JUMPDEST PUSH0 PUSH2 0xCCE DUP5 DUP3 DUP6 ADD PUSH2 0xC98 JUMP JUMPDEST SWAP2 POP POP SWAP3 SWAP2 POP POP JUMP JUMPDEST PUSH32 0x5472616E73666572206661696C65640000000000000000000000000000000000 PUSH0 DUP3 ADD MSTORE POP JUMP JUMPDEST PUSH0 PUSH2 0xD0B PUSH1 0xF DUP4 PUSH2 0xBC6 JUMP JUMPDEST SWAP2 POP PUSH2 0xD16 DUP3 PUSH2 0xCD7 JUMP JUMPDEST PUSH1 0x20 DUP3 ADD SWAP1 POP SWAP2 SWAP1 POP JUMP JUMPDEST PUSH0 PUSH1 0x20 DUP3 ADD SWAP1 POP DUP2 DUP2 SUB PUSH0 DUP4 ADD MSTORE PUSH2 0xD38 DUP2 PUSH2 0xCFF JUMP JUMPDEST SWAP1 POP SWAP2 SWAP1 POP JUMP JUMPDEST PUSH32 0x4E487B7100000000000000000000000000000000000000000000000000000000 PUSH0 MSTORE PUSH1 0x21 PUSH1 0x4 MSTORE PUSH1 0x24 PUSH0 REVERT JUMPDEST PUSH32 0x4E487B7100000000000000000000000000000000000000000000000000000000 PUSH0 MSTORE PUSH1 0x11 PUSH1 0x4 MSTORE PUSH1 0x24 PUSH0 REVERT JUMPDEST PUSH0 PUSH2 0xDA3 DUP3 PUSH2 0x97D JUMP JUMPDEST SWAP2 POP PUSH2 0xDAE DUP4 PUSH2 0x97D JUMP JUMPDEST SWAP3 POP DUP3 DUP3 MUL PUSH2 0xDBC DUP2 PUSH2 0x97D JUMP JUMPDEST SWAP2 POP DUP3 DUP3 DIV DUP5 EQ DUP4 ISZERO OR PUSH2 0xDD3 JUMPI PUSH2 0xDD2 PUSH2 0xD6C JUMP JUMPDEST JUMPDEST POP SWAP3 SWAP2 POP POP JUMP JUMPDEST PUSH32 0x4E487B7100000000000000000000000000000000000000000000000000000000 PUSH0 MSTORE PUSH1 0x12 PUSH1 0x4 MSTORE PUSH1 0x24 PUSH0 REVERT JUMPDEST PUSH0 PUSH2 0xE11 DUP3 PUSH2 0x97D JUMP JUMPDEST SWAP2 POP PUSH2 0xE1C DUP4 PUSH2 0x97D JUMP JUMPDEST SWAP3 POP DUP3 PUSH2 0xE2C JUMPI PUSH2 0xE2B PUSH2 0xDDA JUMP JUMPDEST JUMPDEST DUP3 DUP3 DIV SWAP1 POP SWAP3 SWAP2 POP POP JUMP JUMPDEST PUSH0 PUSH2 0xE41 DUP3 PUSH2 0x97D JUMP JUMPDEST SWAP2 POP PUSH2 0xE4C DUP4 PUSH2 0x97D JUMP JUMPDEST SWAP3 POP DUP3 DUP3 ADD SWAP1 POP DUP1 DUP3 GT ISZERO PUSH2 0xE64 JUMPI PUSH2 0xE63 PUSH2 0xD6C JUMP JUMPDEST JUMPDEST SWAP3 SWAP2 POP POP JUMP JUMPDEST PUSH1 0x4 DUP2 LT PUSH2 0xE7B JUMPI PUSH2 0xE7A PUSH2 0xD3F JUMP JUMPDEST JUMPDEST POP JUMP JUMPDEST PUSH0 DUP2 SWAP1 POP PUSH2 0xE8B DUP3 PUSH2 0xE6A JUMP JUMPDEST SWAP2 SWAP1 POP JUMP JUMPDEST PUSH0 PUSH2 0xE9A DUP3 PUSH2 0xE7E JUMP JUMPDEST SWAP1 POP SWAP2 SWAP1 POP JUMP JUMPDEST PUSH2 0xEAA DUP2 PUSH2 0xE90 JUMP JUMPDEST DUP3 MSTORE POP POP JUMP JUMPDEST PUSH0 PUSH1 0x60 DUP3 ADD SWAP1 POP PUSH2 0xEC3 PUSH0 DUP4 ADD DUP7 PUSH2 0x986 JUMP JUMPDEST PUSH2 0xED0 PUSH1 0x20 DUP4 ADD DUP6 PUSH2 0xEA1 JUMP JUMPDEST PUSH2 0xEDD PUSH1 0x40 DUP4 ADD DUP5 PUSH2 0x986 JUMP JUMPDEST SWAP5 SWAP4 POP POP POP POP JUMP JUMPDEST PUSH32 0x496E76616C6964207374616B6520696E64657800000000000000000000000000 PUSH0 DUP3 ADD MSTORE POP JUMP JUMPDEST PUSH0 PUSH2 0xF19 PUSH1 0x13 DUP4 PUSH2 0xBC6 JUMP JUMPDEST SWAP2 POP PUSH2 0xF24 DUP3 PUSH2 0xEE5 JUMP JUMPDEST PUSH1 0x20 DUP3 ADD SWAP1 POP SWAP2 SWAP1 POP JUMP JUMPDEST PUSH0 PUSH1 0x20 DUP3 ADD SWAP1 POP DUP2 DUP2 SUB PUSH0 DUP4 ADD MSTORE PUSH2 0xF46 DUP2 PUSH2 0xF0D JUMP JUMPDEST SWAP1 POP SWAP2 SWAP1 POP JUMP JUMPDEST PUSH32 0x4E487B7100000000000000000000000000000000000000000000000000000000 PUSH0 MSTORE PUSH1 0x32 PUSH1 0x4 MSTORE PUSH1 0x24 PUSH0 REVERT JUMPDEST PUSH32 0x73746B206973206E6F7420616374697665000000000000000000000000000000 PUSH0 DUP3 ADD MSTORE POP JUMP JUMPDEST PUSH0 PUSH2 0xFAE PUSH1 0x11 DUP4 PUSH2 0xBC6 JUMP JUMPDEST SWAP2 POP PUSH2 0xFB9 DUP3 PUSH2 0xF7A JUMP JUMPDEST PUSH1 0x20 DUP3 ADD SWAP1 POP SWAP2 SWAP1 POP JUMP JUMPDEST PUSH0 PUSH1 0x20 DUP3 ADD SWAP1 POP DUP2 DUP2 SUB PUSH0 DUP4 ADD MSTORE PUSH2 0xFDB DUP2 PUSH2 0xFA2 JUMP JUMPDEST SWAP1 POP SWAP2 SWAP1 POP JUMP JUMPDEST PUSH32 0x5374616B696E6720706572696F64206973206E6F74206F766572000000000000 PUSH0 DUP3 ADD MSTORE POP JUMP JUMPDEST PUSH0 PUSH2 0x1016 PUSH1 0x1A DUP4 PUSH2 0xBC6 JUMP JUMPDEST SWAP2 POP PUSH2 0x1021 DUP3 PUSH2 0xFE2 JUMP JUMPDEST PUSH1 0x20 DUP3 ADD SWAP1 POP SWAP2 SWAP1 POP JUMP JUMPDEST PUSH0 PUSH1 0x20 DUP3 ADD SWAP1 POP DUP2 DUP2 SUB PUSH0 DUP4 ADD MSTORE PUSH2 0x1043 DUP2 PUSH2 0x100A JUMP JUMPDEST SWAP1 POP SWAP2 SWAP1 POP JUMP JUMPDEST PUSH0 PUSH1 0x40 DUP3 ADD SWAP1 POP PUSH2 0x105D PUSH0 DUP4 ADD DUP6 PUSH2 0xC3E JUMP JUMPDEST PUSH2 0x106A PUSH1 0x20 DUP4 ADD DUP5 PUSH2 0x986 JUMP JUMPDEST SWAP4 SWAP3 POP POP POP JUMP JUMPDEST PUSH0 PUSH1 0x40 DUP3 ADD SWAP1 POP PUSH2 0x1084 PUSH0 DUP4 ADD DUP6 PUSH2 0x986 JUMP JUMPDEST PUSH2 0x1091 PUSH1 0x20 DUP4 ADD DUP5 PUSH2 0x986 JUMP JUMPDEST SWAP4 SWAP3 POP POP POP JUMP INVALID LOG2 PUSH5 0x6970667358 0x22 SLT KECCAK256 TSTORE EQ 0xB7 0xC3 ADDRESS DUP8 0xA9 MCOPY DUP13 MSTORE8 PUSH22 0x275840B1677C9F6DF2D92E100F6FE407A18426E51764 PUSH20 0x6F6C634300081E00330000000000000000000000 "
				},
				"gasEstimates": {
					"creation": {
						"codeDepositCost": "860400",
						"executionCost": "infinite",
						"totalCost": "infinite"
					},
					"external": {
						"aprs(uint8)": "2734",
						"apy(uint8)": "2756",
						"durations(uint8)": "2713",
						"stake(uint256,uint8)": "infinite",
						"stakingToken()": "infinite",
						"userStakes(address,uint256)": "infinite",
						"withdraw(uint256)": "infinite"
					},
					"internal": {
						"_getDuration(enum MtkContracts.StakingPeriod)": "262"
					}
				},
				"methodIdentifiers": {
					"aprs(uint8)": "4931fa75",
					"apy(uint8)": "1f1accb2",
					"durations(uint8)": "0ae355d3",
					"stake(uint256,uint8)": "10087fb1",
					"stakingToken()": "72f702f3",
					"userStakes(address,uint256)": "b5d5b5fa",
					"withdraw(uint256)": "2e1a7d4d"
				}
			},
			"storageLayout": {
				"storage": [
					{
						"astId": 947,
						"contract": "Basic - 1/contracts/MTK.sol:MtkContracts",
						"label": "apy",
						"offset": 0,
						"slot": "0",
						"type": "t_mapping(t_enum(StakingPeriod)942,t_uint256)"
					},
					{
						"astId": 963,
						"contract": "Basic - 1/contracts/MTK.sol:MtkContracts",
						"label": "stakingToken",
						"offset": 0,
						"slot": "1",
						"type": "t_contract(IERC20)877"
					},
					{
						"astId": 969,
						"contract": "Basic - 1/contracts/MTK.sol:MtkContracts",
						"label": "userStakes",
						"offset": 0,
						"slot": "2",
						"type": "t_mapping(t_address,t_array(t_struct(Stake)960_storage)dyn_storage)"
					},
					{
						"astId": 974,
						"contract": "Basic - 1/contracts/MTK.sol:MtkContracts",
						"label": "aprs",
						"offset": 0,
						"slot": "3",
						"type": "t_mapping(t_enum(StakingPeriod)942,t_uint256)"
					},
					{
						"astId": 979,
						"contract": "Basic - 1/contracts/MTK.sol:MtkContracts",
						"label": "durations",
						"offset": 0,
						"slot": "4",
						"type": "t_mapping(t_enum(StakingPeriod)942,t_uint256)"
					}
				],
				"types": {
					"t_address": {
						"encoding": "inplace",
						"label": "address",
						"numberOfBytes": "20"
					},
					"t_array(t_struct(Stake)960_storage)dyn_storage": {
						"base": "t_struct(Stake)960_storage",
						"encoding": "dynamic_array",
						"label": "struct MtkContracts.Stake[]",
						"numberOfBytes": "32"
					},
					"t_bool": {
						"encoding": "inplace",
						"label": "bool",
						"numberOfBytes": "1"
					},
					"t_contract(IERC20)877": {
						"encoding": "inplace",
						"label": "contract IERC20",
						"numberOfBytes": "20"
					},
					"t_enum(StakingPeriod)942": {
						"encoding": "inplace",
						"label": "enum MtkContracts.StakingPeriod",
						"numberOfBytes": "1"
					},
					"t_mapping(t_address,t_array(t_struct(Stake)960_storage)dyn_storage)": {
						"encoding": "mapping",
						"key": "t_address",
						"label": "mapping(address => struct MtkContracts.Stake[])",
						"numberOfBytes": "32",
						"value": "t_array(t_struct(Stake)960_storage)dyn_storage"
					},
					"t_mapping(t_enum(StakingPeriod)942,t_uint256)": {
						"encoding": "mapping",
						"key": "t_enum(StakingPeriod)942",
						"label": "mapping(enum MtkContracts.StakingPeriod => uint256)",
						"numberOfBytes": "32",
						"value": "t_uint256"
					},
					"t_struct(Stake)960_storage": {
						"encoding": "inplace",
						"label": "struct MtkContracts.Stake",
						"members": [
							{
								"astId": 949,
								"contract": "Basic - 1/contracts/MTK.sol:MtkContracts",
								"label": "stakeIndex",
								"offset": 0,
								"slot": "0",
								"type": "t_uint256"
							},
							{
								"astId": 951,
								"contract": "Basic - 1/contracts/MTK.sol:MtkContracts",
								"label": "amount",
								"offset": 0,
								"slot": "1",
								"type": "t_uint256"
							},
							{
								"astId": 953,
								"contract": "Basic - 1/contracts/MTK.sol:MtkContracts",
								"label": "startTime",
								"offset": 0,
								"slot": "2",
								"type": "t_uint256"
							},
							{
								"astId": 955,
								"contract": "Basic - 1/contracts/MTK.sol:MtkContracts",
								"label": "endTime",
								"offset": 0,
								"slot": "3",
								"type": "t_uint256"
							},
							{
								"astId": 957,
								"contract": "Basic - 1/contracts/MTK.sol:MtkContracts",
								"label": "rewardRate",
								"offset": 0,
								"slot": "4",
								"type": "t_uint256"
							},
							{
								"astId": 959,
								"contract": "Basic - 1/contracts/MTK.sol:MtkContracts",
								"label": "isActive",
								"offset": 0,
								"slot": "5",
								"type": "t_bool"
							}
						],
						"numberOfBytes": "192"
					},
					"t_uint256": {
						"encoding": "inplace",
						"label": "uint256",
						"numberOfBytes": "32"
					}
				}
			},
			"userdoc": {
				"kind": "user",
				"methods": {},
				"version": 1
			}
		}
	}
}