{
	"data": {
		"bytecode": {
			"linkReferences": {},
			"object": "608060405234801561000f575f5ffd5b50604051611364380380611364833981810160405281019061003191906102c7565b8060015f6101000a81548173ffffffffffffffffffffffffffffffffffffffff021916908373ffffffffffffffffffffffffffffffffffffffff16021790555062278d0060045f5f600381111561008b5761008a6102f2565b5b600381111561009d5761009c6102f2565b5b81526020019081526020015f20819055506276a70060045f600160038111156100c9576100c86102f2565b5b60038111156100db576100da6102f2565b5b81526020019081526020015f208190555062ed4e0060045f60026003811115610107576101066102f2565b5b6003811115610119576101186102f2565b5b81526020019081526020015f20819055506301e1338060045f600380811115610145576101446102f2565b5b6003811115610157576101566102f2565b5b81526020019081526020015f2081905550600a5f5f5f600381111561017f5761017e6102f2565b5b6003811115610191576101906102f2565b5b81526020019081526020015f2081905550600f5f5f600160038111156101ba576101b96102f2565b5b60038111156101cc576101cb6102f2565b5b81526020019081526020015f208190555060125f5f600260038111156101f5576101f46102f2565b5b6003811115610207576102066102f2565b5b81526020019081526020015f208190555060145f5f60038081111561022f5761022e6102f2565b5b6003811115610241576102406102f2565b5b81526020019081526020015f20819055505061031f565b5f5ffd5b5f73ffffffffffffffffffffffffffffffffffffffff82169050919050565b5f6102858261025c565b9050919050565b5f6102968261027b565b9050919050565b6102a68161028c565b81146102b0575f5ffd5b50565b5f815190506102c18161029d565b92915050565b5f602082840312156102dc576102db610258565b5b5f6102e9848285016102b3565b91505092915050565b7f4e487b71000000000000000000000000000000000000000000000000000000005f52602160045260245ffd5b6110388061032c5f395ff3fe608060405234801561000f575f5ffd5b506004361061007b575f3560e01c80632e1a7d4d116100595780632e1a7d4d146100fb5780634931fa751461011757806372f702f314610147578063b5d5b5fa146101655761007b565b80630ae355d31461007f57806310087fb1146100af5780631f1accb2146100cb575b5f5ffd5b61009960048036038101906100949190610889565b61019a565b6040516100a691906108cc565b60405180910390f35b6100c960048036038101906100c4919061090f565b6101af565b005b6100e560048036038101906100e09190610889565b6104d5565b6040516100f291906108cc565b60405180910390f35b6101156004803603810190610110919061094d565b6104e9565b005b610131600480360381019061012c9190610889565b6107ca565b60405161013e91906108cc565b60405180910390f35b61014f6107df565b60405161015c91906109f2565b60405180910390f35b61017f600480360381019061017a9190610a46565b610804565b60405161019196959493929190610a9e565b60405180910390f35b6004602052805f5260405f205f915090505481565b5f82116101f1576040517f08c379a00000000000000000000000000000000000000000000000000000000081526004016101e890610b57565b60405180910390fd5b60015f9054906101000a900473ffffffffffffffffffffffffffffffffffffffff1673ffffffffffffffffffffffffffffffffffffffff166323b872dd3330856040518463ffffffff1660e01b815260040161024f93929190610b84565b6020604051808303815f875af115801561026b573d5f5f3e3d5ffd5b505050506040513d601f19601f8201168201806040525081019061028f9190610be3565b6102ce576040517f08c379a00000000000000000000000000000000000000000000000000000000081526004016102c590610c58565b60405180910390fd5b5f60045f8360038111156102e5576102e4610c76565b5b60038111156102f7576102f6610c76565b5b81526020019081526020015f205490505f5f5f84600381111561031d5761031c610c76565b5b600381111561032f5761032e610c76565b5b81526020019081526020015f205490505f4290505f83826103509190610cd0565b90505f6040518060c0016040528060025f3373ffffffffffffffffffffffffffffffffffffffff1673ffffffffffffffffffffffffffffffffffffffff1681526020019081526020015f2080549050815260200188815260200184815260200183815260200185815260200160011515815250905060025f3373ffffffffffffffffffffffffffffffffffffffff1673ffffffffffffffffffffffffffffffffffffffff1681526020019081526020015f2081908060018154018082558091505060019003905f5260205f2090600602015f909190919091505f820151815f01556020820151816001015560408201518160020155606082015181600301556080820151816004015560a0820151816005015f6101000a81548160ff02191690831515021790555050503373ffffffffffffffffffffffffffffffffffffffff167fbde7f0ba1630d25515c7ab99ba47d5640b7ffb4c673b2a5464ae6791955892988888866040516104c493929190610d49565b60405180910390a250505050505050565b5f602052805f5260405f205f915090505481565b60025f3373ffffffffffffffffffffffffffffffffffffffff1673ffffffffffffffffffffffffffffffffffffffff1681526020019081526020015f2080549050811061056b576040517f08c379a000000000000000000000000000000000000000000000000000000000815260040161056290610dc8565b60405180910390fd5b5f60025f3373ffffffffffffffffffffffffffffffffffffffff1673ffffffffffffffffffffffffffffffffffffffff1681526020019081526020015f2082815481106105bb576105ba610de6565b5b905f5260205f2090600602019050806005015f9054906101000a900460ff16610619576040517f08c379a000000000000000000000000000000000000000000000000000000000815260040161061090610e5d565b60405180910390fd5b8060030154421015610660576040517f08c379a000000000000000000000000000000000000000000000000000000000815260040161065790610ec5565b60405180910390fd5b5f816005015f6101000a81548160ff0219169083151502179055505f816002015482600301546106909190610ee3565b90505f63bbf81e0082846004015485600101546106ad9190610f16565b6106b79190610f16565b6106c19190610f84565b90505f8184600101546106d49190610cd0565b905060015f9054906101000a900473ffffffffffffffffffffffffffffffffffffffff1673ffffffffffffffffffffffffffffffffffffffff1663a9059cbb33836040518363ffffffff1660e01b8152600401610732929190610fb4565b6020604051808303815f875af115801561074e573d5f5f3e3d5ffd5b505050506040513d601f19601f820116820180604052508101906107729190610be3565b503373ffffffffffffffffffffffffffffffffffffffff167f92ccf450a286a957af52509bc1c9939d1a6a481783e142e41e2499f0bb66ebc682876040516107bb929190610fdb565b60405180910390a25050505050565b6003602052805f5260405f205f915090505481565b60015f9054906101000a900473ffffffffffffffffffffffffffffffffffffffff1681565b6002602052815f5260405f20818154811061081d575f80fd5b905f5260205f2090600602015f9150915050805f015490806001015490806002015490806003015490806004015490806005015f9054906101000a900460ff16905086565b5f5ffd5b60048110610872575f5ffd5b50565b5f8135905061088381610866565b92915050565b5f6020828403121561089e5761089d610862565b5b5f6108ab84828501610875565b91505092915050565b5f819050919050565b6108c6816108b4565b82525050565b5f6020820190506108df5f8301846108bd565b92915050565b6108ee816108b4565b81146108f8575f5ffd5b50565b5f81359050610909816108e5565b92915050565b5f5f6040838503121561092557610924610862565b5b5f610932858286016108fb565b925050602061094385828601610875565b9150509250929050565b5f6020828403121561096257610961610862565b5b5f61096f848285016108fb565b91505092915050565b5f73ffffffffffffffffffffffffffffffffffffffff82169050919050565b5f819050919050565b5f6109ba6109b56109b084610978565b610997565b610978565b9050919050565b5f6109cb826109a0565b9050919050565b5f6109dc826109c1565b9050919050565b6109ec816109d2565b82525050565b5f602082019050610a055f8301846109e3565b92915050565b5f610a1582610978565b9050919050565b610a2581610a0b565b8114610a2f575f5ffd5b50565b5f81359050610a4081610a1c565b92915050565b5f5f60408385031215610a5c57610a5b610862565b5b5f610a6985828601610a32565b9250506020610a7a858286016108fb565b9150509250929050565b5f8115159050919050565b610a9881610a84565b82525050565b5f60c082019050610ab15f8301896108bd565b610abe60208301886108bd565b610acb60408301876108bd565b610ad860608301866108bd565b610ae560808301856108bd565b610af260a0830184610a8f565b979650505050505050565b5f82825260208201905092915050565b7f616d6f756e74206d7573742062652067726561746572207468616e207a65726f5f82015250565b5f610b41602083610afd565b9150610b4c82610b0d565b602082019050919050565b5f6020820190508181035f830152610b6e81610b35565b9050919050565b610b7e81610a0b565b82525050565b5f606082019050610b975f830186610b75565b610ba46020830185610b75565b610bb160408301846108bd565b949350505050565b610bc281610a84565b8114610bcc575f5ffd5b50565b5f81519050610bdd81610bb9565b92915050565b5f60208284031215610bf857610bf7610862565b5b5f610c0584828501610bcf565b91505092915050565b7f5472616e73666572206661696c656400000000000000000000000000000000005f82015250565b5f610c42600f83610afd565b9150610c4d82610c0e565b602082019050919050565b5f6020820190508181035f830152610c6f81610c36565b9050919050565b7f4e487b71000000000000000000000000000000000000000000000000000000005f52602160045260245ffd5b7f4e487b71000000000000000000000000000000000000000000000000000000005f52601160045260245ffd5b5f610cda826108b4565b9150610ce5836108b4565b9250828201905080821115610cfd57610cfc610ca3565b5b92915050565b60048110610d1457610d13610c76565b5b50565b5f819050610d2482610d03565b919050565b5f610d3382610d17565b9050919050565b610d4381610d29565b82525050565b5f606082019050610d5c5f8301866108bd565b610d696020830185610d3a565b610d7660408301846108bd565b949350505050565b7f496e76616c6964207374616b6520696e646578000000000000000000000000005f82015250565b5f610db2601383610afd565b9150610dbd82610d7e565b602082019050919050565b5f6020820190508181035f830152610ddf81610da6565b9050919050565b7f4e487b71000000000000000000000000000000000000000000000000000000005f52603260045260245ffd5b7f73746b206973206e6f74206163746976650000000000000000000000000000005f82015250565b5f610e47601183610afd565b9150610e5282610e13565b602082019050919050565b5f6020820190508181035f830152610e7481610e3b565b9050919050565b7f5374616b696e6720706572696f64206973206e6f74206f7665720000000000005f82015250565b5f610eaf601a83610afd565b9150610eba82610e7b565b602082019050919050565b5f6020820190508181035f830152610edc81610ea3565b9050919050565b5f610eed826108b4565b9150610ef8836108b4565b9250828203905081811115610f1057610f0f610ca3565b5b92915050565b5f610f20826108b4565b9150610f2b836108b4565b9250828202610f39816108b4565b91508282048414831517610f5057610f4f610ca3565b5b5092915050565b7f4e487b71000000000000000000000000000000000000000000000000000000005f52601260045260245ffd5b5f610f8e826108b4565b9150610f99836108b4565b925082610fa957610fa8610f57565b5b828204905092915050565b5f604082019050610fc75f830185610b75565b610fd460208301846108bd565b9392505050565b5f604082019050610fee5f8301856108bd565b610ffb60208301846108bd565b939250505056fea2646970667358221220f580b03a15441c412c091722101986083589484d6ae46d77c9f15d74bd14a15664736f6c634300081e0033",
			"opcodes": "PUSH1 0x80 PUSH1 0x40 MSTORE CALLVALUE DUP1 ISZERO PUSH2 0xF JUMPI PUSH0 PUSH0 REVERT JUMPDEST POP PUSH1 0x40 MLOAD PUSH2 0x1364 CODESIZE SUB DUP1 PUSH2 0x1364 DUP4 CODECOPY DUP2 DUP2 ADD PUSH1 0x40 MSTORE DUP2 ADD SWAP1 PUSH2 0x31 SWAP2 SWAP1 PUSH2 0x2C7 JUMP JUMPDEST DUP1 PUSH1 0x1 PUSH0 PUSH2 0x100 EXP DUP2 SLOAD DUP2 PUSH20 0xFFFFFFFFFFFFFFFFFFFFFFFFFFFFFFFFFFFFFFFF MUL NOT AND SWAP1 DUP4 PUSH20 0xFFFFFFFFFFFFFFFFFFFFFFFFFFFFFFFFFFFFFFFF AND MUL OR SWAP1 SSTORE POP PUSH3 0x278D00 PUSH1 0x4 PUSH0 PUSH0 PUSH1 0x3 DUP2 GT ISZERO PUSH2 0x8B JUMPI PUSH2 0x8A PUSH2 0x2F2 JUMP JUMPDEST JUMPDEST PUSH1 0x3 DUP2 GT ISZERO PUSH2 0x9D JUMPI PUSH2 0x9C PUSH2 0x2F2 JUMP JUMPDEST JUMPDEST DUP2 MSTORE PUSH1 0x20 ADD SWAP1 DUP2 MSTORE PUSH1 0x20 ADD PUSH0 KECCAK256 DUP2 SWAP1 SSTORE POP PUSH3 0x76A700 PUSH1 0x4 PUSH0 PUSH1 0x1 PUSH1 0x3 DUP2 GT ISZERO PUSH2 0xC9 JUMPI PUSH2 0xC8 PUSH2 0x2F2 JUMP JUMPDEST JUMPDEST PUSH1 0x3 DUP2 GT ISZERO PUSH2 0xDB JUMPI PUSH2 0xDA PUSH2 0x2F2 JUMP JUMPDEST JUMPDEST DUP2 MSTORE PUSH1 0x20 ADD SWAP1 DUP2 MSTORE PUSH1 0x20 ADD PUSH0 KECCAK256 DUP2 SWAP1 SSTORE POP PUSH3 0xED4E00 PUSH1 0x4 PUSH0 PUSH1 0x2 PUSH1 0x3 DUP2 GT ISZERO PUSH2 0x107 JUMPI PUSH2 0x106 PUSH2 0x2F2 JUMP JUMPDEST JUMPDEST PUSH1 0x3 DUP2 GT ISZERO PUSH2 0x119 JUMPI PUSH2 0x118 PUSH2 0x2F2 JUMP JUMPDEST JUMPDEST DUP2 MSTORE PUSH1 0x20 ADD SWAP1 DUP2 MSTORE PUSH1 0x20 ADD PUSH0 KECCAK256 DUP2 SWAP1 SSTORE POP PUSH4 0x1E13380 PUSH1 0x4 PUSH0 PUSH1 0x3 DUP1 DUP2 GT ISZERO PUSH2 0x145 JUMPI PUSH2 0x144 PUSH2 0x2F2 JUMP JUMPDEST JUMPDEST PUSH1 0x3 DUP2 GT ISZERO PUSH2 0x157 JUMPI PUSH2 0x156 PUSH2 0x2F2 JUMP JUMPDEST JUMPDEST DUP2 MSTORE PUSH1 0x20 ADD SWAP1 DUP2 MSTORE PUSH1 0x20 ADD PUSH0 KECCAK256 DUP2 SWAP1 SSTORE POP PUSH1 0xA PUSH0 PUSH0 PUSH0 PUSH1 0x3 DUP2 GT ISZERO PUSH2 0x17F JUMPI PUSH2 0x17E PUSH2 0x2F2 JUMP JUMPDEST JUMPDEST PUSH1 0x3 DUP2 GT ISZERO PUSH2 0x191 JUMPI PUSH2 0x190 PUSH2 0x2F2 JUMP JUMPDEST JUMPDEST DUP2 MSTORE PUSH1 0x20 ADD SWAP1 DUP2 MSTORE PUSH1 0x20 ADD PUSH0 KECCAK256 DUP2 SWAP1 SSTORE POP PUSH1 0xF PUSH0 PUSH0 PUSH1 0x1 PUSH1 0x3 DUP2 GT ISZERO PUSH2 0x1BA JUMPI PUSH2 0x1B9 PUSH2 0x2F2 JUMP JUMPDEST JUMPDEST PUSH1 0x3 DUP2 GT ISZERO PUSH2 0x1CC JUMPI PUSH2 0x1CB PUSH2 0x2F2 JUMP JUMPDEST JUMPDEST DUP2 MSTORE PUSH1 0x20 ADD SWAP1 DUP2 MSTORE PUSH1 0x20 ADD PUSH0 KECCAK256 DUP2 SWAP1 SSTORE POP PUSH1 0x12 PUSH0 PUSH0 PUSH1 0x2 PUSH1 0x3 DUP2 GT ISZERO PUSH2 0x1F5 JUMPI PUSH2 0x1F4 PUSH2 0x2F2 JUMP JUMPDEST JUMPDEST PUSH1 0x3 DUP2 GT ISZERO PUSH2 0x207 JUMPI PUSH2 0x206 PUSH2 0x2F2 JUMP JUMPDEST JUMPDEST DUP2 MSTORE PUSH1 0x20 ADD SWAP1 DUP2 MSTORE PUSH1 0x20 ADD PUSH0 KECCAK256 DUP2 SWAP1 SSTORE POP PUSH1 0x14 PUSH0 PUSH0 PUSH1 0x3 DUP1 DUP2 GT ISZERO PUSH2 0x22F JUMPI PUSH2 0x22E PUSH2 0x2F2 JUMP JUMPDEST JUMPDEST PUSH1 0x3 DUP2 GT ISZERO PUSH2 0x241 JUMPI PUSH2 0x240 PUSH2 0x2F2 JUMP JUMPDEST JUMPDEST DUP2 MSTORE PUSH1 0x20 ADD SWAP1 DUP2 MSTORE PUSH1 0x20 ADD PUSH0 KECCAK256 DUP2 SWAP1 SSTORE POP POP PUSH2 0x31F JUMP JUMPDEST PUSH0 PUSH0 REVERT JUMPDEST PUSH0 PUSH20 0xFFFFFFFFFFFFFFFFFFFFFFFFFFFFFFFFFFFFFFFF DUP3 AND SWAP1 POP SWAP2 SWAP1 POP JUMP JUMPDEST PUSH0 PUSH2 0x285 DUP3 PUSH2 0x25C JUMP JUMPDEST SWAP1 POP SWAP2 SWAP1 POP JUMP JUMPDEST PUSH0 PUSH2 0x296 DUP3 PUSH2 0x27B JUMP JUMPDEST SWAP1 POP SWAP2 SWAP1 POP JUMP JUMPDEST PUSH2 0x2A6 DUP2 PUSH2 0x28C JUMP JUMPDEST DUP2 EQ PUSH2 0x2B0 JUMPI PUSH0 PUSH0 REVERT JUMPDEST POP JUMP JUMPDEST PUSH0 DUP2 MLOAD SWAP1 POP PUSH2 0x2C1 DUP2 PUSH2 0x29D JUMP JUMPDEST SWAP3 SWAP2 POP POP JUMP JUMPDEST PUSH0 PUSH1 0x20 DUP3 DUP5 SUB SLT ISZERO PUSH2 0x2DC JUMPI PUSH2 0x2DB PUSH2 0x258 JUMP JUMPDEST JUMPDEST PUSH0 PUSH2 0x2E9 DUP5 DUP3 DUP6 ADD PUSH2 0x2B3 JUMP JUMPDEST SWAP2 POP POP SWAP3 SWAP2 POP POP JUMP JUMPDEST PUSH32 0x4E487B7100000000000000000000000000000000000000000000000000000000 PUSH0 MSTORE PUSH1 0x21 PUSH1 0x4 MSTORE PUSH1 0x24 PUSH0 REVERT JUMPDEST PUSH2 0x1038 DUP1 PUSH2 0x32C PUSH0 CODECOPY PUSH0 RETURN INVALID PUSH1 0x80 PUSH1 0x40 MSTORE CALLVALUE DUP1 ISZERO PUSH2 0xF JUMPI PUSH0 PUSH0 REVERT JUMPDEST POP PUSH1 0x4 CALLDATASIZE LT PUSH2 0x7B JUMPI PUSH0 CALLDATALOAD PUSH1 0xE0 SHR DUP1 PUSH4 0x2E1A7D4D GT PUSH2 0x59 JUMPI DUP1 PUSH4 0x2E1A7D4D EQ PUSH2 0xFB JUMPI DUP1 PUSH4 0x4931FA75 EQ PUSH2 0x117 JUMPI DUP1 PUSH4 0x72F702F3 EQ PUSH2 0x147 JUMPI DUP1 PUSH4 0xB5D5B5FA EQ PUSH2 0x165 JUMPI PUSH2 0x7B JUMP JUMPDEST DUP1 PUSH4 0xAE355D3 EQ PUSH2 0x7F JUMPI DUP1 PUSH4 0x10087FB1 EQ PUSH2 0xAF JUMPI DUP1 PUSH4 0x1F1ACCB2 EQ PUSH2 0xCB JUMPI JUMPDEST PUSH0 PUSH0 REVERT JUMPDEST PUSH2 0x99 PUSH1 0x4 DUP1 CALLDATASIZE SUB DUP2 ADD SWAP1 PUSH2 0x94 SWAP2 SWAP1 PUSH2 0x889 JUMP JUMPDEST PUSH2 0x19A JUMP JUMPDEST PUSH1 0x40 MLOAD PUSH2 0xA6 SWAP2 SWAP1 PUSH2 0x8CC JUMP JUMPDEST PUSH1 0x40 MLOAD DUP1 SWAP2 SUB SWAP1 RETURN JUMPDEST PUSH2 0xC9 PUSH1 0x4 DUP1 CALLDATASIZE SUB DUP2 ADD SWAP1 PUSH2 0xC4 SWAP2 SWAP1 PUSH2 0x90F JUMP JUMPDEST PUSH2 0x1AF JUMP JUMPDEST STOP JUMPDEST PUSH2 0xE5 PUSH1 0x4 DUP1 CALLDATASIZE SUB DUP2 ADD SWAP1 PUSH2 0xE0 SWAP2 SWAP1 PUSH2 0x889 JUMP JUMPDEST PUSH2 0x4D5 JUMP JUMPDEST PUSH1 0x40 MLOAD PUSH2 0xF2 SWAP2 SWAP1 PUSH2 0x8CC JUMP JUMPDEST PUSH1 0x40 MLOAD DUP1 SWAP2 SUB SWAP1 RETURN JUMPDEST PUSH2 0x115 PUSH1 0x4 DUP1 CALLDATASIZE SUB DUP2 ADD SWAP1 PUSH2 0x110 SWAP2 SWAP1 PUSH2 0x94D JUMP JUMPDEST PUSH2 0x4E9 JUMP JUMPDEST STOP JUMPDEST PUSH2 0x131 PUSH1 0x4 DUP1 CALLDATASIZE SUB DUP2 ADD SWAP1 PUSH2 0x12C SWAP2 SWAP1 PUSH2 0x889 JUMP JUMPDEST PUSH2 0x7CA JUMP JUMPDEST PUSH1 0x40 MLOAD PUSH2 0x13E SWAP2 SWAP1 PUSH2 0x8CC JUMP JUMPDEST PUSH1 0x40 MLOAD DUP1 SWAP2 SUB SWAP1 RETURN JUMPDEST PUSH2 0x14F PUSH2 0x7DF JUMP JUMPDEST PUSH1 0x40 MLOAD PUSH2 0x15C SWAP2 SWAP1 PUSH2 0x9F2 JUMP JUMPDEST PUSH1 0x40 MLOAD DUP1 SWAP2 SUB SWAP1 RETURN JUMPDEST PUSH2 0x17F PUSH1 0x4 DUP1 CALLDATASIZE SUB DUP2 ADD SWAP1 PUSH2 0x17A SWAP2 SWAP1 PUSH2 0xA46 JUMP JUMPDEST PUSH2 0x804 JUMP JUMPDEST PUSH1 0x40 MLOAD PUSH2 0x191 SWAP7 SWAP6 SWAP5 SWAP4 SWAP3 SWAP2 SWAP1 PUSH2 0xA9E JUMP JUMPDEST PUSH1 0x40 MLOAD DUP1 SWAP2 SUB SWAP1 RETURN JUMPDEST PUSH1 0x4 PUSH1 0x20 MSTORE DUP1 PUSH0 MSTORE PUSH1 0x40 PUSH0 KECCAK256 PUSH0 SWAP2 POP SWAP1 POP SLOAD DUP2 JUMP JUMPDEST PUSH0 DUP3 GT PUSH2 0x1F1 JUMPI PUSH1 0x40 MLOAD PUSH32 0x8C379A000000000000000000000000000000000000000000000000000000000 DUP2 MSTORE PUSH1 0x4 ADD PUSH2 0x1E8 SWAP1 PUSH2 0xB57 JUMP JUMPDEST PUSH1 0x40 MLOAD DUP1 SWAP2 SUB SWAP1 REVERT JUMPDEST PUSH1 0x1 PUSH0 SWAP1 SLOAD SWAP1 PUSH2 0x100 EXP SWAP1 DIV PUSH20 0xFFFFFFFFFFFFFFFFFFFFFFFFFFFFFFFFFFFFFFFF AND PUSH20 0xFFFFFFFFFFFFFFFFFFFFFFFFFFFFFFFFFFFFFFFF AND PUSH4 0x23B872DD CALLER ADDRESS DUP6 PUSH1 0x40 MLOAD DUP5 PUSH4 0xFFFFFFFF AND PUSH1 0xE0 SHL DUP2 MSTORE PUSH1 0x4 ADD PUSH2 0x24F SWAP4 SWAP3 SWAP2 SWAP1 PUSH2 0xB84 JUMP JUMPDEST PUSH1 0x20 PUSH1 0x40 MLOAD DUP1 DUP4 SUB DUP2 PUSH0 DUP8 GAS CALL ISZERO DUP1 ISZERO PUSH2 0x26B JUMPI RETURNDATASIZE PUSH0 PUSH0 RETURNDATACOPY RETURNDATASIZE PUSH0 REVERT JUMPDEST POP POP POP POP PUSH1 0x40 MLOAD RETURNDATASIZE PUSH1 0x1F NOT PUSH1 0x1F DUP3 ADD AND DUP3 ADD DUP1 PUSH1 0x40 MSTORE POP DUP2 ADD SWAP1 PUSH2 0x28F SWAP2 SWAP1 PUSH2 0xBE3 JUMP JUMPDEST PUSH2 0x2CE JUMPI PUSH1 0x40 MLOAD PUSH32 0x8C379A000000000000000000000000000000000000000000000000000000000 DUP2 MSTORE PUSH1 0x4 ADD PUSH2 0x2C5 SWAP1 PUSH2 0xC58 JUMP JUMPDEST PUSH1 0x40 MLOAD DUP1 SWAP2 SUB SWAP1 REVERT JUMPDEST PUSH0 PUSH1 0x4 PUSH0 DUP4 PUSH1 0x3 DUP2 GT ISZERO PUSH2 0x2E5 JUMPI PUSH2 0x2E4 PUSH2 0xC76 JUMP JUMPDEST JUMPDEST PUSH1 0x3 DUP2 GT ISZERO PUSH2 0x2F7 JUMPI PUSH2 0x2F6 PUSH2 0xC76 JUMP JUMPDEST JUMPDEST DUP2 MSTORE PUSH1 0x20 ADD SWAP1 DUP2 MSTORE PUSH1 0x20 ADD PUSH0 KECCAK256 SLOAD SWAP1 POP PUSH0 PUSH0 PUSH0 DUP5 PUSH1 0x3 DUP2 GT ISZERO PUSH2 0x31D JUMPI PUSH2 0x31C PUSH2 0xC76 JUMP JUMPDEST JUMPDEST PUSH1 0x3 DUP2 GT ISZERO PUSH2 0x32F JUMPI PUSH2 0x32E PUSH2 0xC76 JUMP JUMPDEST JUMPDEST DUP2 MSTORE PUSH1 0x20 ADD SWAP1 DUP2 MSTORE PUSH1 0x20 ADD PUSH0 KECCAK256 SLOAD SWAP1 POP PUSH0 TIMESTAMP SWAP1 POP PUSH0 DUP4 DUP3 PUSH2 0x350 SWAP2 SWAP1 PUSH2 0xCD0 JUMP JUMPDEST SWAP1 POP PUSH0 PUSH1 0x40 MLOAD DUP1 PUSH1 0xC0 ADD PUSH1 0x40 MSTORE DUP1 PUSH1 0x2 PUSH0 CALLER PUSH20 0xFFFFFFFFFFFFFFFFFFFFFFFFFFFFFFFFFFFFFFFF AND PUSH20 0xFFFFFFFFFFFFFFFFFFFFFFFFFFFFFFFFFFFFFFFF AND DUP2 MSTORE PUSH1 0x20 ADD SWAP1 DUP2 MSTORE PUSH1 0x20 ADD PUSH0 KECCAK256 DUP1 SLOAD SWAP1 POP DUP2 MSTORE PUSH1 0x20 ADD DUP9 DUP2 MSTORE PUSH1 0x20 ADD DUP5 DUP2 MSTORE PUSH1 0x20 ADD DUP4 DUP2 MSTORE PUSH1 0x20 ADD DUP6 DUP2 MSTORE PUSH1 0x20 ADD PUSH1 0x1 ISZERO ISZERO DUP2 MSTORE POP SWAP1 POP PUSH1 0x2 PUSH0 CALLER PUSH20 0xFFFFFFFFFFFFFFFFFFFFFFFFFFFFFFFFFFFFFFFF AND PUSH20 0xFFFFFFFFFFFFFFFFFFFFFFFFFFFFFFFFFFFFFFFF AND DUP2 MSTORE PUSH1 0x20 ADD SWAP1 DUP2 MSTORE PUSH1 0x20 ADD PUSH0 KECCAK256 DUP2 SWAP1 DUP1 PUSH1 0x1 DUP2 SLOAD ADD DUP1 DUP3 SSTORE DUP1 SWAP2 POP POP PUSH1 0x1 SWAP1 SUB SWAP1 PUSH0 MSTORE PUSH1 0x20 PUSH0 KECCAK256 SWAP1 PUSH1 0x6 MUL ADD PUSH0 SWAP1 SWAP2 SWAP1 SWAP2 SWAP1 SWAP2 POP PUSH0 DUP3 ADD MLOAD DUP2 PUSH0 ADD SSTORE PUSH1 0x20 DUP3 ADD MLOAD DUP2 PUSH1 0x1 ADD SSTORE PUSH1 0x40 DUP3 ADD MLOAD DUP2 PUSH1 0x2 ADD SSTORE PUSH1 0x60 DUP3 ADD MLOAD DUP2 PUSH1 0x3 ADD SSTORE PUSH1 0x80 DUP3 ADD MLOAD DUP2 PUSH1 0x4 ADD SSTORE PUSH1 0xA0 DUP3 ADD MLOAD DUP2 PUSH1 0x5 ADD PUSH0 PUSH2 0x100 EXP DUP2 SLOAD DUP2 PUSH1 0xFF MUL NOT AND SWAP1 DUP4 ISZERO ISZERO MUL OR SWAP1 SSTORE POP POP POP CALLER PUSH20 0xFFFFFFFFFFFFFFFFFFFFFFFFFFFFFFFFFFFFFFFF AND PUSH32 0xBDE7F0BA1630D25515C7AB99BA47D5640B7FFB4C673B2A5464AE679195589298 DUP9 DUP9 DUP7 PUSH1 0x40 MLOAD PUSH2 0x4C4 SWAP4 SWAP3 SWAP2 SWAP1 PUSH2 0xD49 JUMP JUMPDEST PUSH1 0x40 MLOAD DUP1 SWAP2 SUB SWAP1 LOG2 POP POP POP POP POP POP POP JUMP JUMPDEST PUSH0 PUSH1 0x20 MSTORE DUP1 PUSH0 MSTORE PUSH1 0x40 PUSH0 KECCAK256 PUSH0 SWAP2 POP SWAP1 POP SLOAD DUP2 JUMP JUMPDEST PUSH1 0x2 PUSH0 CALLER PUSH20 0xFFFFFFFFFFFFFFFFFFFFFFFFFFFFFFFFFFFFFFFF AND PUSH20 0xFFFFFFFFFFFFFFFFFFFFFFFFFFFFFFFFFFFFFFFF AND DUP2 MSTORE PUSH1 0x20 ADD SWAP1 DUP2 MSTORE PUSH1 0x20 ADD PUSH0 KECCAK256 DUP1 SLOAD SWAP1 POP DUP2 LT PUSH2 0x56B JUMPI PUSH1 0x40 MLOAD PUSH32 0x8C379A000000000000000000000000000000000000000000000000000000000 DUP2 MSTORE PUSH1 0x4 ADD PUSH2 0x562 SWAP1 PUSH2 0xDC8 JUMP JUMPDEST PUSH1 0x40 MLOAD DUP1 SWAP2 SUB SWAP1 REVERT JUMPDEST PUSH0 PUSH1 0x2 PUSH0 CALLER PUSH20 0xFFFFFFFFFFFFFFFFFFFFFFFFFFFFFFFFFFFFFFFF AND PUSH20 0xFFFFFFFFFFFFFFFFFFFFFFFFFFFFFFFFFFFFFFFF AND DUP2 MSTORE PUSH1 0x20 ADD SWAP1 DUP2 MSTORE PUSH1 0x20 ADD PUSH0 KECCAK256 DUP3 DUP2 SLOAD DUP2 LT PUSH2 0x5BB JUMPI PUSH2 0x5BA PUSH2 0xDE6 JUMP JUMPDEST JUMPDEST SWAP1 PUSH0 MSTORE PUSH1 0x20 PUSH0 KECCAK256 SWAP1 PUSH1 0x6 MUL ADD SWAP1 POP DUP1 PUSH1 0x5 ADD PUSH0 SWAP1 SLOAD SWAP1 PUSH2 0x100 EXP SWAP1 DIV PUSH1 0xFF AND PUSH2 0x619 JUMPI PUSH1 0x40 MLOAD PUSH32 0x8C379A000000000000000000000000000000000000000000000000000000000 DUP2 MSTORE PUSH1 0x4 ADD PUSH2 0x610 SWAP1 PUSH2 0xE5D JUMP JUMPDEST PUSH1 0x40 MLOAD DUP1 SWAP2 SUB SWAP1 REVERT JUMPDEST DUP1 PUSH1 0x3 ADD SLOAD TIMESTAMP LT ISZERO PUSH2 0x660 JUMPI PUSH1 0x40 MLOAD PUSH32 0x8C379A000000000000000000000000000000000000000000000000000000000 DUP2 MSTORE PUSH1 0x4 ADD PUSH2 0x657 SWAP1 PUSH2 0xEC5 JUMP JUMPDEST PUSH1 0x40 MLOAD DUP1 SWAP2 SUB SWAP1 REVERT JUMPDEST PUSH0 DUP2 PUSH1 0x5 ADD PUSH0 PUSH2 0x100 EXP DUP2 SLOAD DUP2 PUSH1 0xFF MUL NOT AND SWAP1 DUP4 ISZERO ISZERO MUL OR SWAP1 SSTORE POP PUSH0 DUP2 PUSH1 0x2 ADD SLOAD DUP3 PUSH1 0x3 ADD SLOAD PUSH2 0x690 SWAP2 SWAP1 PUSH2 0xEE3 JUMP JUMPDEST SWAP1 POP PUSH0 PUSH4 0xBBF81E00 DUP3 DUP5 PUSH1 0x4 ADD SLOAD DUP6 PUSH1 0x1 ADD SLOAD PUSH2 0x6AD SWAP2 SWAP1 PUSH2 0xF16 JUMP JUMPDEST PUSH2 0x6B7 SWAP2 SWAP1 PUSH2 0xF16 JUMP JUMPDEST PUSH2 0x6C1 SWAP2 SWAP1 PUSH2 0xF84 JUMP JUMPDEST SWAP1 POP PUSH0 DUP2 DUP5 PUSH1 0x1 ADD SLOAD PUSH2 0x6D4 SWAP2 SWAP1 PUSH2 0xCD0 JUMP JUMPDEST SWAP1 POP PUSH1 0x1 PUSH0 SWAP1 SLOAD SWAP1 PUSH2 0x100 EXP SWAP1 DIV PUSH20 0xFFFFFFFFFFFFFFFFFFFFFFFFFFFFFFFFFFFFFFFF AND PUSH20 0xFFFFFFFFFFFFFFFFFFFFFFFFFFFFFFFFFFFFFFFF AND PUSH4 0xA9059CBB CALLER DUP4 PUSH1 0x40 MLOAD DUP4 PUSH4 0xFFFFFFFF AND PUSH1 0xE0 SHL DUP2 MSTORE PUSH1 0x4 ADD PUSH2 0x732 SWAP3 SWAP2 SWAP1 PUSH2 0xFB4 JUMP JUMPDEST PUSH1 0x20 PUSH1 0x40 MLOAD DUP1 DUP4 SUB DUP2 PUSH0 DUP8 GAS CALL ISZERO DUP1 ISZERO PUSH2 0x74E JUMPI RETURNDATASIZE PUSH0 PUSH0 RETURNDATACOPY RETURNDATASIZE PUSH0 REVERT JUMPDEST POP POP POP POP PUSH1 0x40 MLOAD RETURNDATASIZE PUSH1 0x1F NOT PUSH1 0x1F DUP3 ADD AND DUP3 ADD DUP1 PUSH1 0x40 MSTORE POP DUP2 ADD SWAP1 PUSH2 0x772 SWAP2 SWAP1 PUSH2 0xBE3 JUMP JUMPDEST POP CALLER PUSH20 0xFFFFFFFFFFFFFFFFFFFFFFFFFFFFFFFFFFFFFFFF AND PUSH32 0x92CCF450A286A957AF52509BC1C9939D1A6A481783E142E41E2499F0BB66EBC6 DUP3 DUP8 PUSH1 0x40 MLOAD PUSH2 0x7BB SWAP3 SWAP2 SWAP1 PUSH2 0xFDB JUMP JUMPDEST PUSH1 0x40 MLOAD DUP1 SWAP2 SUB SWAP1 LOG2 POP POP POP POP POP JUMP JUMPDEST PUSH1 0x3 PUSH1 0x20 MSTORE DUP1 PUSH0 MSTORE PUSH1 0x40 PUSH0 KECCAK256 PUSH0 SWAP2 POP SWAP1 POP SLOAD DUP2 JUMP JUMPDEST PUSH1 0x1 PUSH0 SWAP1 SLOAD SWAP1 PUSH2 0x100 EXP SWAP1 DIV PUSH20 0xFFFFFFFFFFFFFFFFFFFFFFFFFFFFFFFFFFFFFFFF AND DUP2 JUMP JUMPDEST PUSH1 0x2 PUSH1 0x20 MSTORE DUP2 PUSH0 MSTORE PUSH1 0x40 PUSH0 KECCAK256 DUP2 DUP2 SLOAD DUP2 LT PUSH2 0x81D JUMPI PUSH0 DUP1 REVERT JUMPDEST SWAP1 PUSH0 MSTORE PUSH1 0x20 PUSH0 KECCAK256 SWAP1 PUSH1 0x6 MUL ADD PUSH0 SWAP2 POP SWAP2 POP POP DUP1 PUSH0 ADD SLOAD SWAP1 DUP1 PUSH1 0x1 ADD SLOAD SWAP1 DUP1 PUSH1 0x2 ADD SLOAD SWAP1 DUP1 PUSH1 0x3 ADD SLOAD SWAP1 DUP1 PUSH1 0x4 ADD SLOAD SWAP1 DUP1 PUSH1 0x5 ADD PUSH0 SWAP1 SLOAD SWAP1 PUSH2 0x100 EXP SWAP1 DIV PUSH1 0xFF AND SWAP1 POP DUP7 JUMP JUMPDEST PUSH0 PUSH0 REVERT JUMPDEST PUSH1 0x4 DUP2 LT PUSH2 0x872 JUMPI PUSH0 PUSH0 REVERT JUMPDEST POP JUMP JUMPDEST PUSH0 DUP2 CALLDATALOAD SWAP1 POP PUSH2 0x883 DUP2 PUSH2 0x866 JUMP JUMPDEST SWAP3 SWAP2 POP POP JUMP JUMPDEST PUSH0 PUSH1 0x20 DUP3 DUP5 SUB SLT ISZERO PUSH2 0x89E JUMPI PUSH2 0x89D PUSH2 0x862 JUMP JUMPDEST JUMPDEST PUSH0 PUSH2 0x8AB DUP5 DUP3 DUP6 ADD PUSH2 0x875 JUMP JUMPDEST SWAP2 POP POP SWAP3 SWAP2 POP POP JUMP JUMPDEST PUSH0 DUP2 SWAP1 POP SWAP2 SWAP1 POP JUMP JUMPDEST PUSH2 0x8C6 DUP2 PUSH2 0x8B4 JUMP JUMPDEST DUP3 MSTORE POP POP JUMP JUMPDEST PUSH0 PUSH1 0x20 DUP3 ADD SWAP1 POP PUSH2 0x8DF PUSH0 DUP4 ADD DUP5 PUSH2 0x8BD JUMP JUMPDEST SWAP3 SWAP2 POP POP JUMP JUMPDEST PUSH2 0x8EE DUP2 PUSH2 0x8B4 JUMP JUMPDEST DUP2 EQ PUSH2 0x8F8 JUMPI PUSH0 PUSH0 REVERT JUMPDEST POP JUMP JUMPDEST PUSH0 DUP2 CALLDATALOAD SWAP1 POP PUSH2 0x909 DUP2 PUSH2 0x8E5 JUMP JUMPDEST SWAP3 SWAP2 POP POP JUMP JUMPDEST PUSH0 PUSH0 PUSH1 0x40 DUP4 DUP6 SUB SLT ISZERO PUSH2 0x925 JUMPI PUSH2 0x924 PUSH2 0x862 JUMP JUMPDEST JUMPDEST PUSH0 PUSH2 0x932 DUP6 DUP3 DUP7 ADD PUSH2 0x8FB JUMP JUMPDEST SWAP3 POP POP PUSH1 0x20 PUSH2 0x943 DUP6 DUP3 DUP7 ADD PUSH2 0x875 JUMP JUMPDEST SWAP2 POP POP SWAP3 POP SWAP3 SWAP1 POP JUMP JUMPDEST PUSH0 PUSH1 0x20 DUP3 DUP5 SUB SLT ISZERO PUSH2 0x962 JUMPI PUSH2 0x961 PUSH2 0x862 JUMP JUMPDEST JUMPDEST PUSH0 PUSH2 0x96F DUP5 DUP3 DUP6 ADD PUSH2 0x8FB JUMP JUMPDEST SWAP2 POP POP SWAP3 SWAP2 POP POP JUMP JUMPDEST PUSH0 PUSH20 0xFFFFFFFFFFFFFFFFFFFFFFFFFFFFFFFFFFFFFFFF DUP3 AND SWAP1 POP SWAP2 SWAP1 POP JUMP JUMPDEST PUSH0 DUP2 SWAP1 POP SWAP2 SWAP1 POP JUMP JUMPDEST PUSH0 PUSH2 0x9BA PUSH2 0x9B5 PUSH2 0x9B0 DUP5 PUSH2 0x978 JUMP JUMPDEST PUSH2 0x997 JUMP JUMPDEST PUSH2 0x978 JUMP JUMPDEST SWAP1 POP SWAP2 SWAP1 POP JUMP JUMPDEST PUSH0 PUSH2 0x9CB DUP3 PUSH2 0x9A0 JUMP JUMPDEST SWAP1 POP SWAP2 SWAP1 POP JUMP JUMPDEST PUSH0 PUSH2 0x9DC DUP3 PUSH2 0x9C1 JUMP JUMPDEST SWAP1 POP SWAP2 SWAP1 POP JUMP JUMPDEST PUSH2 0x9EC DUP2 PUSH2 0x9D2 JUMP JUMPDEST DUP3 MSTORE POP POP JUMP JUMPDEST PUSH0 PUSH1 0x20 DUP3 ADD SWAP1 POP PUSH2 0xA05 PUSH0 DUP4 ADD DUP5 PUSH2 0x9E3 JUMP JUMPDEST SWAP3 SWAP2 POP POP JUMP JUMPDEST PUSH0 PUSH2 0xA15 DUP3 PUSH2 0x978 JUMP JUMPDEST SWAP1 POP SWAP2 SWAP1 POP JUMP JUMPDEST PUSH2 0xA25 DUP2 PUSH2 0xA0B JUMP JUMPDEST DUP2 EQ PUSH2 0xA2F JUMPI PUSH0 PUSH0 REVERT JUMPDEST POP JUMP JUMPDEST PUSH0 DUP2 CALLDATALOAD SWAP1 POP PUSH2 0xA40 DUP2 PUSH2 0xA1C JUMP JUMPDEST SWAP3 SWAP2 POP POP JUMP JUMPDEST PUSH0 PUSH0 PUSH1 0x40 DUP4 DUP6 SUB SLT ISZERO PUSH2 0xA5C JUMPI PUSH2 0xA5B PUSH2 0x862 JUMP JUMPDEST JUMPDEST PUSH0 PUSH2 0xA69 DUP6 DUP3 DUP7 ADD PUSH2 0xA32 JUMP JUMPDEST SWAP3 POP POP PUSH1 0x20 PUSH2 0xA7A DUP6 DUP3 DUP7 ADD PUSH2 0x8FB JUMP JUMPDEST SWAP2 POP POP SWAP3 POP SWAP3 SWAP1 POP JUMP JUMPDEST PUSH0 DUP2 ISZERO ISZERO SWAP1 POP SWAP2 SWAP1 POP JUMP JUMPDEST PUSH2 0xA98 DUP2 PUSH2 0xA84 JUMP JUMPDEST DUP3 MSTORE POP POP JUMP JUMPDEST PUSH0 PUSH1 0xC0 DUP3 ADD SWAP1 POP PUSH2 0xAB1 PUSH0 DUP4 ADD DUP10 PUSH2 0x8BD JUMP JUMPDEST PUSH2 0xABE PUSH1 0x20 DUP4 ADD DUP9 PUSH2 0x8BD JUMP JUMPDEST PUSH2 0xACB PUSH1 0x40 DUP4 ADD DUP8 PUSH2 0x8BD JUMP JUMPDEST PUSH2 0xAD8 PUSH1 0x60 DUP4 ADD DUP7 PUSH2 0x8BD JUMP JUMPDEST PUSH2 0xAE5 PUSH1 0x80 DUP4 ADD DUP6 PUSH2 0x8BD JUMP JUMPDEST PUSH2 0xAF2 PUSH1 0xA0 DUP4 ADD DUP5 PUSH2 0xA8F JUMP JUMPDEST SWAP8 SWAP7 POP POP POP POP POP POP POP JUMP JUMPDEST PUSH0 DUP3 DUP3 MSTORE PUSH1 0x20 DUP3 ADD SWAP1 POP SWAP3 SWAP2 POP POP JUMP JUMPDEST PUSH32 0x616D6F756E74206D7573742062652067726561746572207468616E207A65726F PUSH0 DUP3 ADD MSTORE POP JUMP JUMPDEST PUSH0 PUSH2 0xB41 PUSH1 0x20 DUP4 PUSH2 0xAFD JUMP JUMPDEST SWAP2 POP PUSH2 0xB4C DUP3 PUSH2 0xB0D JUMP JUMPDEST PUSH1 0x20 DUP3 ADD SWAP1 POP SWAP2 SWAP1 POP JUMP JUMPDEST PUSH0 PUSH1 0x20 DUP3 ADD SWAP1 POP DUP2 DUP2 SUB PUSH0 DUP4 ADD MSTORE PUSH2 0xB6E DUP2 PUSH2 0xB35 JUMP JUMPDEST SWAP1 POP SWAP2 SWAP1 POP JUMP JUMPDEST PUSH2 0xB7E DUP2 PUSH2 0xA0B JUMP JUMPDEST DUP3 MSTORE POP POP JUMP JUMPDEST PUSH0 PUSH1 0x60 DUP3 ADD SWAP1 POP PUSH2 0xB97 PUSH0 DUP4 ADD DUP7 PUSH2 0xB75 JUMP JUMPDEST PUSH2 0xBA4 PUSH1 0x20 DUP4 ADD DUP6 PUSH2 0xB75 JUMP JUMPDEST PUSH2 0xBB1 PUSH1 0x40 DUP4 ADD DUP5 PUSH2 0x8BD JUMP JUMPDEST SWAP5 SWAP4 POP POP POP POP JUMP JUMPDEST PUSH2 0xBC2 DUP2 PUSH2 0xA84 JUMP JUMPDEST DUP2 EQ PUSH2 0xBCC JUMPI PUSH0 PUSH0 REVERT JUMPDEST POP JUMP JUMPDEST PUSH0 DUP2 MLOAD SWAP1 POP PUSH2 0xBDD DUP2 PUSH2 0xBB9 JUMP JUMPDEST SWAP3 SWAP2 POP POP JUMP JUMPDEST PUSH0 PUSH1 0x20 DUP3 DUP5 SUB SLT ISZERO PUSH2 0xBF8 JUMPI PUSH2 0xBF7 PUSH2 0x862 JUMP JUMPDEST JUMPDEST PUSH0 PUSH2 0xC05 DUP5 DUP3 DUP6 ADD PUSH2 0xBCF JUMP JUMPDEST SWAP2 POP POP SWAP3 SWAP2 POP POP JUMP JUMPDEST PUSH32 0x5472616E73666572206661696C65640000000000000000000000000000000000 PUSH0 DUP3 ADD MSTORE POP JUMP JUMPDEST PUSH0 PUSH2 0xC42 PUSH1 0xF DUP4 PUSH2 0xAFD JUMP JUMPDEST SWAP2 POP PUSH2 0xC4D DUP3 PUSH2 0xC0E JUMP JUMPDEST PUSH1 0x20 DUP3 ADD SWAP1 POP SWAP2 SWAP1 POP JUMP JUMPDEST PUSH0 PUSH1 0x20 DUP3 ADD SWAP1 POP DUP2 DUP2 SUB PUSH0 DUP4 ADD MSTORE PUSH2 0xC6F DUP2 PUSH2 0xC36 JUMP JUMPDEST SWAP1 POP SWAP2 SWAP1 POP JUMP JUMPDEST PUSH32 0x4E487B7100000000000000000000000000000000000000000000000000000000 PUSH0 MSTORE PUSH1 0x21 PUSH1 0x4 MSTORE PUSH1 0x24 PUSH0 REVERT JUMPDEST PUSH32 0x4E487B7100000000000000000000000000000000000000000000000000000000 PUSH0 MSTORE PUSH1 0x11 PUSH1 0x4 MSTORE PUSH1 0x24 PUSH0 REVERT JUMPDEST PUSH0 PUSH2 0xCDA DUP3 PUSH2 0x8B4 JUMP JUMPDEST SWAP2 POP PUSH2 0xCE5 DUP4 PUSH2 0x8B4 JUMP JUMPDEST SWAP3 POP DUP3 DUP3 ADD SWAP1 POP DUP1 DUP3 GT ISZERO PUSH2 0xCFD JUMPI PUSH2 0xCFC PUSH2 0xCA3 JUMP JUMPDEST JUMPDEST SWAP3 SWAP2 POP POP JUMP JUMPDEST PUSH1 0x4 DUP2 LT PUSH2 0xD14 JUMPI PUSH2 0xD13 PUSH2 0xC76 JUMP JUMPDEST JUMPDEST POP JUMP JUMPDEST PUSH0 DUP2 SWAP1 POP PUSH2 0xD24 DUP3 PUSH2 0xD03 JUMP JUMPDEST SWAP2 SWAP1 POP JUMP JUMPDEST PUSH0 PUSH2 0xD33 DUP3 PUSH2 0xD17 JUMP JUMPDEST SWAP1 POP SWAP2 SWAP1 POP JUMP JUMPDEST PUSH2 0xD43 DUP2 PUSH2 0xD29 JUMP JUMPDEST DUP3 MSTORE POP POP JUMP JUMPDEST PUSH0 PUSH1 0x60 DUP3 ADD SWAP1 POP PUSH2 0xD5C PUSH0 DUP4 ADD DUP7 PUSH2 0x8BD JUMP JUMPDEST PUSH2 0xD69 PUSH1 0x20 DUP4 ADD DUP6 PUSH2 0xD3A JUMP JUMPDEST PUSH2 0xD76 PUSH1 0x40 DUP4 ADD DUP5 PUSH2 0x8BD JUMP JUMPDEST SWAP5 SWAP4 POP POP POP POP JUMP JUMPDEST PUSH32 0x496E76616C6964207374616B6520696E64657800000000000000000000000000 PUSH0 DUP3 ADD MSTORE POP JUMP JUMPDEST PUSH0 PUSH2 0xDB2 PUSH1 0x13 DUP4 PUSH2 0xAFD JUMP JUMPDEST SWAP2 POP PUSH2 0xDBD DUP3 PUSH2 0xD7E JUMP JUMPDEST PUSH1 0x20 DUP3 ADD SWAP1 POP SWAP2 SWAP1 POP JUMP JUMPDEST PUSH0 PUSH1 0x20 DUP3 ADD SWAP1 POP DUP2 DUP2 SUB PUSH0 DUP4 ADD MSTORE PUSH2 0xDDF DUP2 PUSH2 0xDA6 JUMP JUMPDEST SWAP1 POP SWAP2 SWAP1 POP JUMP JUMPDEST PUSH32 0x4E487B7100000000000000000000000000000000000000000000000000000000 PUSH0 MSTORE PUSH1 0x32 PUSH1 0x4 MSTORE PUSH1 0x24 PUSH0 REVERT JUMPDEST PUSH32 0x73746B206973206E6F7420616374697665000000000000000000000000000000 PUSH0 DUP3 ADD MSTORE POP JUMP JUMPDEST PUSH0 PUSH2 0xE47 PUSH1 0x11 DUP4 PUSH2 0xAFD JUMP JUMPDEST SWAP2 POP PUSH2 0xE52 DUP3 PUSH2 0xE13 JUMP JUMPDEST PUSH1 0x20 DUP3 ADD SWAP1 POP SWAP2 SWAP1 POP JUMP JUMPDEST PUSH0 PUSH1 0x20 DUP3 ADD SWAP1 POP DUP2 DUP2 SUB PUSH0 DUP4 ADD MSTORE PUSH2 0xE74 DUP2 PUSH2 0xE3B JUMP JUMPDEST SWAP1 POP SWAP2 SWAP1 POP JUMP JUMPDEST PUSH32 0x5374616B696E6720706572696F64206973206E6F74206F766572000000000000 PUSH0 DUP3 ADD MSTORE POP JUMP JUMPDEST PUSH0 PUSH2 0xEAF PUSH1 0x1A DUP4 PUSH2 0xAFD JUMP JUMPDEST SWAP2 POP PUSH2 0xEBA DUP3 PUSH2 0xE7B JUMP JUMPDEST PUSH1 0x20 DUP3 ADD SWAP1 POP SWAP2 SWAP1 POP JUMP JUMPDEST PUSH0 PUSH1 0x20 DUP3 ADD SWAP1 POP DUP2 DUP2 SUB PUSH0 DUP4 ADD MSTORE PUSH2 0xEDC DUP2 PUSH2 0xEA3 JUMP JUMPDEST SWAP1 POP SWAP2 SWAP1 POP JUMP JUMPDEST PUSH0 PUSH2 0xEED DUP3 PUSH2 0x8B4 JUMP JUMPDEST SWAP2 POP PUSH2 0xEF8 DUP4 PUSH2 0x8B4 JUMP JUMPDEST SWAP3 POP DUP3 DUP3 SUB SWAP1 POP DUP2 DUP2 GT ISZERO PUSH2 0xF10 JUMPI PUSH2 0xF0F PUSH2 0xCA3 JUMP JUMPDEST JUMPDEST SWAP3 SWAP2 POP POP JUMP JUMPDEST PUSH0 PUSH2 0xF20 DUP3 PUSH2 0x8B4 JUMP JUMPDEST SWAP2 POP PUSH2 0xF2B DUP4 PUSH2 0x8B4 JUMP JUMPDEST SWAP3 POP DUP3 DUP3 MUL PUSH2 0xF39 DUP2 PUSH2 0x8B4 JUMP JUMPDEST SWAP2 POP DUP3 DUP3 DIV DUP5 EQ DUP4 ISZERO OR PUSH2 0xF50 JUMPI PUSH2 0xF4F PUSH2 0xCA3 JUMP JUMPDEST JUMPDEST POP SWAP3 SWAP2 POP POP JUMP JUMPDEST PUSH32 0x4E487B7100000000000000000000000000000000000000000000000000000000 PUSH0 MSTORE PUSH1 0x12 PUSH1 0x4 MSTORE PUSH1 0x24 PUSH0 REVERT JUMPDEST PUSH0 PUSH2 0xF8E DUP3 PUSH2 0x8B4 JUMP JUMPDEST SWAP2 POP PUSH2 0xF99 DUP4 PUSH2 0x8B4 JUMP JUMPDEST SWAP3 POP DUP3 PUSH2 0xFA9 JUMPI PUSH2 0xFA8 PUSH2 0xF57 JUMP JUMPDEST JUMPDEST DUP3 DUP3 DIV SWAP1 POP SWAP3 SWAP2 POP POP JUMP JUMPDEST PUSH0 PUSH1 0x40 DUP3 ADD SWAP1 POP PUSH2 0xFC7 PUSH0 DUP4 ADD DUP6 PUSH2 0xB75 JUMP JUMPDEST PUSH2 0xFD4 PUSH1 0x20 DUP4 ADD DUP5 PUSH2 0x8BD JUMP JUMPDEST SWAP4 SWAP3 POP POP POP JUMP JUMPDEST PUSH0 PUSH1 0x40 DUP3 ADD SWAP1 POP PUSH2 0xFEE PUSH0 DUP4 ADD DUP6 PUSH2 0x8BD JUMP JUMPDEST PUSH2 0xFFB PUSH1 0x20 DUP4 ADD DUP5 PUSH2 0x8BD JUMP JUMPDEST SWAP4 SWAP3 POP POP POP JUMP INVALID LOG2 PUSH5 0x6970667358 0x22 SLT KECCAK256 CREATE2 DUP1 0xB0 GASPRICE ISZERO PREVRANDAO SHR COINBASE 0x2C MULMOD OR 0x22 LT NOT DUP7 ADDMOD CALLDATALOAD DUP10 BASEFEE 0x4D PUSH11 0xE46D77C9F15D74BD14A156 PUSH5 0x736F6C6343 STOP ADDMOD 0x1E STOP CALLER "
		},
		"gasEstimates": {
			"creation": {
				"codeDepositCost": "830400",
				"executionCost": "infinite",
				"totalCost": "infinite"
			},
			"external": {
				"aprs(uint8)": "2734",
				"apy(uint8)": "2756",
				"durations(uint8)": "2713",
				"stake(uint256,uint8)": "infinite",
				"stakingToken()": "infinite",
				"userStakes(address,uint256)": "infinite",
				"withdraw(uint256)": "infinite"
			},
			"internal": {
				"_getDuration(enum MtkContracts.StakingPeriod)": "infinite"
			}
		},
		"methodIdentifiers": {
			"aprs(uint8)": "4931fa75",
			"apy(uint8)": "1f1accb2",
			"durations(uint8)": "0ae355d3",
			"stake(uint256,uint8)": "10087fb1",
			"stakingToken()": "72f702f3",
			"userStakes(address,uint256)": "b5d5b5fa",
			"withdraw(uint256)": "2e1a7d4d"
		}
	},
	"abi": [
		{
			"inputs": [
				{
					"internalType": "contract IERC20",
					"name": "_mtkToken",
					"type": "address"
				}
			],
			"stateMutability": "nonpayable",
			"type": "constructor"
		},
		{
			"anonymous": false,
			"inputs": [
				{
					"indexed": true,
					"internalType": "address",
					"name": "user",
					"type": "address"
				},
				{
					"indexed": false,
					"internalType": "uint256",
					"name": "amount",
					"type": "uint256"
				},
				{
					"indexed": false,
					"internalType": "enum MtkContracts.StakingPeriod",
					"name": "period",
					"type": "uint8"
				},
				{
					"indexed": false,
					"internalType": "uint256",
					"name": "timestamp",
					"type": "uint256"
				}
			],
			"name": "Staked",
			"type": "event"
		},
		{
			"anonymous": false,
			"inputs": [
				{
					"indexed": true,
					"internalType": "address",
					"name": "user",
					"type": "address"
				},
				{
					"indexed": false,
					"internalType": "uint256",
					"name": "totalAmount",
					"type": "uint256"
				},
				{
					"indexed": false,
					"internalType": "uint256",
					"name": "stakeIndex",
					"type": "uint256"
				}
			],
			"name": "Withdrawn",
			"type": "event"
		},
		{
			"inputs": [
				{
					"internalType": "enum MtkContracts.StakingPeriod",
					"name": "",
					"type": "uint8"
				}
			],
			"name": "aprs",
			"outputs": [
				{
					"internalType": "uint256",
					"name": "",
					"type": "uint256"
				}
			],
			"stateMutability": "view",
			"type": "function"
		},
		{
			"inputs": [
				{
					"internalType": "enum MtkContracts.StakingPeriod",
					"name": "",
					"type": "uint8"
				}
			],
			"name": "apy",
			"outputs": [
				{
					"internalType": "uint256",
					"name": "",
					"type": "uint256"
				}
			],
			"stateMutability": "view",
			"type": "function"
		},
		{
			"inputs": [
				{
					"internalType": "enum MtkContracts.StakingPeriod",
					"name": "",
					"type": "uint8"
				}
			],
			"name": "durations",
			"outputs": [
				{
					"internalType": "uint256",
					"name": "",
					"type": "uint256"
				}
			],
			"stateMutability": "view",
			"type": "function"
		},
		{
			"inputs": [
				{
					"internalType": "uint256",
					"name": "amount",
					"type": "uint256"
				},
				{
					"internalType": "enum MtkContracts.StakingPeriod",
					"name": "period",
					"type": "uint8"
				}
			],
			"name": "stake",
			"outputs": [],
			"stateMutability": "nonpayable",
			"type": "function"
		},
		{
			"inputs": [],
			"name": "stakingToken",
			"outputs": [
				{
					"internalType": "contract IERC20",
					"name": "",
					"type": "address"
				}
			],
			"stateMutability": "view",
			"type": "function"
		},
		{
			"inputs": [
				{
					"internalType": "address",
					"name": "",
					"type": "address"
				},
				{
					"internalType": "uint256",
					"name": "",
					"type": "uint256"
				}
			],
			"name": "userStakes",
			"outputs": [
				{
					"internalType": "uint256",
					"name": "stakeIndex",
					"type": "uint256"
				},
				{
					"internalType": "uint256",
					"name": "amount",
					"type": "uint256"
				},
				{
					"internalType": "uint256",
					"name": "startTime",
					"type": "uint256"
				},
				{
					"internalType": "uint256",
					"name": "endTime",
					"type": "uint256"
				},
				{
					"internalType": "uint256",
					"name": "rewardRate",
					"type": "uint256"
				},
				{
					"internalType": "bool",
					"name": "isActive",
					"type": "bool"
				}
			],
			"stateMutability": "view",
			"type": "function"
		},
		{
			"inputs": [
				{
					"internalType": "uint256",
					"name": "stakeIndex",
					"type": "uint256"
				}
			],
			"name": "withdraw",
			"outputs": [],
			"stateMutability": "nonpayable",
			"type": "function"
		}
	]
}